{
    "contractName": "Freelancer",
    "abi": [
        {
            "inputs": [],
            "stateMutability": "nonpayable",
            "type": "constructor"
        },
        {
            "anonymous": false,
            "inputs": [],
            "name": "transferFunds",
            "type": "event"
        },
        {
            "anonymous": false,
            "inputs": [
                {
                    "components": [
                        {
                            "components": [
                                {
                                    "internalType": "address payable",
                                    "name": "addr",
                                    "type": "address"
                                },
                                {
                                    "internalType": "enum Freelancer.Vote",
                                    "name": "vote",
                                    "type": "uint8"
                                }
                            ],
                            "internalType": "struct Freelancer.Entity",
                            "name": "freelancer",
                            "type": "tuple"
                        },
                        {
                            "components": [
                                {
                                    "internalType": "address payable",
                                    "name": "addr",
                                    "type": "address"
                                },
                                {
                                    "internalType": "enum Freelancer.Vote",
                                    "name": "vote",
                                    "type": "uint8"
                                }
                            ],
                            "internalType": "struct Freelancer.Entity",
                            "name": "client",
                            "type": "tuple"
                        },
                        {
                            "internalType": "string",
                            "name": "description",
                            "type": "string"
                        },
                        {
                            "internalType": "uint256",
                            "name": "value",
                            "type": "uint256"
                        },
                        {
                            "internalType": "enum Freelancer.Status",
                            "name": "status",
                            "type": "uint8"
                        },
                        {
                            "internalType": "enum Freelancer.ConsensusType",
                            "name": "consensusType",
                            "type": "uint8"
                        },
                        {
                            "components": [
                                {
                                    "internalType": "address payable",
                                    "name": "addr",
                                    "type": "address"
                                },
                                {
                                    "internalType": "enum Freelancer.Vote",
                                    "name": "vote",
                                    "type": "uint8"
                                }
                            ],
                            "internalType": "struct Freelancer.Entity",
                            "name": "thirdParty",
                            "type": "tuple"
                        }
                    ],
                    "indexed": false,
                    "internalType": "struct Freelancer.Work",
                    "name": "work",
                    "type": "tuple"
                }
            ],
            "name": "workFunded",
            "type": "event"
        },
        {
            "inputs": [
                {
                    "internalType": "address",
                    "name": "",
                    "type": "address"
                },
                {
                    "internalType": "uint256",
                    "name": "",
                    "type": "uint256"
                }
            ],
            "name": "clientToContractId",
            "outputs": [
                {
                    "internalType": "uint256",
                    "name": "",
                    "type": "uint256"
                }
            ],
            "stateMutability": "view",
            "type": "function"
        },
        {
            "inputs": [
                {
                    "internalType": "uint256",
                    "name": "_id",
                    "type": "uint256"
                },
                {
                    "internalType": "enum Freelancer.Vote",
                    "name": "vote",
                    "type": "uint8"
                }
            ],
            "name": "clientVote",
            "outputs": [],
            "stateMutability": "nonpayable",
            "type": "function"
        },
        {
            "inputs": [
                {
                    "internalType": "uint256",
                    "name": "",
                    "type": "uint256"
                }
            ],
            "name": "contracts",
            "outputs": [
                {
                    "components": [
                        {
                            "internalType": "address payable",
                            "name": "addr",
                            "type": "address"
                        },
                        {
                            "internalType": "enum Freelancer.Vote",
                            "name": "vote",
                            "type": "uint8"
                        }
                    ],
                    "internalType": "struct Freelancer.Entity",
                    "name": "freelancer",
                    "type": "tuple"
                },
                {
                    "components": [
                        {
                            "internalType": "address payable",
                            "name": "addr",
                            "type": "address"
                        },
                        {
                            "internalType": "enum Freelancer.Vote",
                            "name": "vote",
                            "type": "uint8"
                        }
                    ],
                    "internalType": "struct Freelancer.Entity",
                    "name": "client",
                    "type": "tuple"
                },
                {
                    "internalType": "string",
                    "name": "description",
                    "type": "string"
                },
                {
                    "internalType": "uint256",
                    "name": "value",
                    "type": "uint256"
                },
                {
                    "internalType": "enum Freelancer.Status",
                    "name": "status",
                    "type": "uint8"
                },
                {
                    "internalType": "enum Freelancer.ConsensusType",
                    "name": "consensusType",
                    "type": "uint8"
                },
                {
                    "components": [
                        {
                            "internalType": "address payable",
                            "name": "addr",
                            "type": "address"
                        },
                        {
                            "internalType": "enum Freelancer.Vote",
                            "name": "vote",
                            "type": "uint8"
                        }
                    ],
                    "internalType": "struct Freelancer.Entity",
                    "name": "thirdParty",
                    "type": "tuple"
                }
            ],
            "stateMutability": "view",
            "type": "function"
        },
        {
            "inputs": [
                {
                    "internalType": "address",
                    "name": "",
                    "type": "address"
                },
                {
                    "internalType": "uint256",
                    "name": "",
                    "type": "uint256"
                }
            ],
            "name": "freelancerToContractId",
            "outputs": [
                {
                    "internalType": "uint256",
                    "name": "",
                    "type": "uint256"
                }
            ],
            "stateMutability": "view",
            "type": "function"
        },
        {
            "inputs": [
                {
                    "internalType": "uint256",
                    "name": "_id",
                    "type": "uint256"
                },
                {
                    "internalType": "enum Freelancer.Vote",
                    "name": "vote",
                    "type": "uint8"
                }
            ],
            "name": "freelancerVote",
            "outputs": [],
            "stateMutability": "nonpayable",
            "type": "function"
        },
        {
            "inputs": [
                {
                    "internalType": "string",
                    "name": "_description",
                    "type": "string"
                },
                {
                    "internalType": "uint256",
                    "name": "_value",
                    "type": "uint256"
                },
                {
                    "internalType": "address payable",
                    "name": "_freelancer",
                    "type": "address"
                }
            ],
            "name": "fundWork",
            "outputs": [],
            "stateMutability": "payable",
            "type": "function"
        },
        {
            "inputs": [
                {
                    "internalType": "string",
                    "name": "_description",
                    "type": "string"
                },
                {
                    "internalType": "uint256",
                    "name": "_value",
                    "type": "uint256"
                },
                {
                    "internalType": "address payable",
                    "name": "_freelancer",
                    "type": "address"
                },
                {
                    "internalType": "address payable",
                    "name": "_thirdParty",
                    "type": "address"
                }
            ],
            "name": "fundWorkWithThirdParty",
            "outputs": [],
            "stateMutability": "payable",
            "type": "function"
        },
        {
            "inputs": [
                {
                    "internalType": "uint256",
                    "name": "_id",
                    "type": "uint256"
                }
            ],
            "name": "getTask",
            "outputs": [
                {
                    "components": [
                        {
                            "components": [
                                {
                                    "internalType": "address payable",
                                    "name": "addr",
                                    "type": "address"
                                },
                                {
                                    "internalType": "enum Freelancer.Vote",
                                    "name": "vote",
                                    "type": "uint8"
                                }
                            ],
                            "internalType": "struct Freelancer.Entity",
                            "name": "freelancer",
                            "type": "tuple"
                        },
                        {
                            "components": [
                                {
                                    "internalType": "address payable",
                                    "name": "addr",
                                    "type": "address"
                                },
                                {
                                    "internalType": "enum Freelancer.Vote",
                                    "name": "vote",
                                    "type": "uint8"
                                }
                            ],
                            "internalType": "struct Freelancer.Entity",
                            "name": "client",
                            "type": "tuple"
                        },
                        {
                            "internalType": "string",
                            "name": "description",
                            "type": "string"
                        },
                        {
                            "internalType": "uint256",
                            "name": "value",
                            "type": "uint256"
                        },
                        {
                            "internalType": "enum Freelancer.Status",
                            "name": "status",
                            "type": "uint8"
                        },
                        {
                            "internalType": "enum Freelancer.ConsensusType",
                            "name": "consensusType",
                            "type": "uint8"
                        },
                        {
                            "components": [
                                {
                                    "internalType": "address payable",
                                    "name": "addr",
                                    "type": "address"
                                },
                                {
                                    "internalType": "enum Freelancer.Vote",
                                    "name": "vote",
                                    "type": "uint8"
                                }
                            ],
                            "internalType": "struct Freelancer.Entity",
                            "name": "thirdParty",
                            "type": "tuple"
                        }
                    ],
                    "internalType": "struct Freelancer.Work",
                    "name": "",
                    "type": "tuple"
                }
            ],
            "stateMutability": "view",
            "type": "function"
        },
        {
            "inputs": [
                {
                    "internalType": "address",
                    "name": "_address",
                    "type": "address"
                }
            ],
            "name": "getTaskForClient",
            "outputs": [
                {
                    "internalType": "uint256[]",
                    "name": "",
                    "type": "uint256[]"
                }
            ],
            "stateMutability": "view",
            "type": "function"
        },
        {
            "inputs": [
                {
                    "internalType": "address",
                    "name": "_address",
                    "type": "address"
                }
            ],
            "name": "getTaskForFreelancer",
            "outputs": [
                {
                    "internalType": "uint256[]",
                    "name": "",
                    "type": "uint256[]"
                }
            ],
            "stateMutability": "view",
            "type": "function"
        },
        {
            "inputs": [
                {
                    "internalType": "uint256",
                    "name": "_id",
                    "type": "uint256"
                },
                {
                    "internalType": "enum Freelancer.Vote",
                    "name": "vote",
                    "type": "uint8"
                }
            ],
            "name": "thirdPartyVote",
            "outputs": [],
            "stateMutability": "nonpayable",
            "type": "function"
        }
    ],
    "bytecode": "608060405234801561001057600080fd5b5060008055612110806100246000396000f3fe60806040526004361061009c5760003560e01c8063558955fb11610064578063558955fb1461016957806368886a2a14610189578063c64e9480146101a9578063caac51ba146101c9578063cd62a1ae146101dc578063e670ec3c1461020957600080fd5b806304c8db5c146100a15780630fec528b146100d45780631d65e77e146100f4578063474da79a1461012157806350a7473814610154575b600080fd5b3480156100ad57600080fd5b506100c16100bc366004611b90565b610229565b6040519081526020015b60405180910390f35b3480156100e057600080fd5b506100c16100ef366004611b90565b61025a565b34801561010057600080fd5b5061011461010f366004611c83565b610276565b6040516100cb9190611e7b565b34801561012d57600080fd5b5061014161013c366004611c83565b6104a2565b6040516100cb9796959493929190611e0c565b610167610162366004611c17565b610655565b005b34801561017557600080fd5b50610167610184366004611c9c565b6109cb565b34801561019557600080fd5b506101676101a4366004611c9c565b610e2c565b3480156101b557600080fd5b506101676101c4366004611c9c565b611246565b6101676101d7366004611bbc565b611609565b3480156101e857600080fd5b506101fc6101f7366004611b6c565b6118e0565b6040516100cb9190611d81565b34801561021557600080fd5b506101fc610224366004611b6c565b61194c565b6003602052816000526040600020818154811061024557600080fd5b90600052602060002001600091509150505481565b6002602052816000526040600020818154811061024557600080fd5b61027e6119b6565b600082815260016020526040908190208151610120810190925280546001600160a01b03811660e0840190815283918390610100840190600160a01b900460ff1660028111156102d0576102d0612086565b60028111156102e1576102e1612086565b9052508152604080518082019091526001830180546001600160a01b0381168352602093840193830190600160a01b900460ff16600281111561032657610326612086565b600281111561033757610337612086565b81525050815260200160028201805461034f90612022565b80601f016020809104026020016040519081016040528092919081815260200182805461037b90612022565b80156103c85780601f1061039d576101008083540402835291602001916103c8565b820191906000526020600020905b8154815290600101906020018083116103ab57829003601f168201915b505050918352505060038201546020820152600482015460409091019060ff1660018111156103f9576103f9612086565b600181111561040a5761040a612086565b81526020016004820160019054906101000a900460ff16600181111561043257610432612086565b600181111561044357610443612086565b8152604080518082019091526005830180546001600160a01b0381168352602093840193830190600160a01b900460ff16600281111561048557610485612086565b600281111561049657610496612086565b90525090525092915050565b600160209081526000918252604091829020825180840190935280546001600160a01b0381168452909291839190830190600160a01b900460ff1660028111156104ee576104ee612086565b60028111156104ff576104ff612086565b905250604080518082019091526001830180546001600160a01b03811683529293926020830190600160a01b900460ff16600281111561054157610541612086565b600281111561055257610552612086565b815250509080600201805461056690612022565b80601f016020809104026020016040519081016040528092919081815260200182805461059290612022565b80156105df5780601f106105b4576101008083540402835291602001916105df565b820191906000526020600020905b8154815290600101906020018083116105c257829003601f168201915b5050505060038301546004840154604080518082019091526005860180546001600160a01b03811683529596939560ff8085169650610100909404841694936020840191600160a01b900416600281111561063c5761063c612086565b600281111561064d5761064d612086565b905250905087565b823481811461067f5760405162461bcd60e51b815260040161067690611dc5565b60405180910390fd5b836001600160a01b0316836001600160a01b0316141580156106aa57506001600160a01b0383163314155b6107115760405162461bcd60e51b815260206004820152603260248201527f54686520636c69656e74206f7220667265656c616e6365722063616e6e6f742060448201527162652074686520746869726420706172747960701b6064820152608401610676565b6040805180820182526001600160a01b0386811682526002602080840182905284518086018652338152808201839052855160e0810187528581528083018290528087018d9052606081018c905260006080820152600160a082015286518088019097529389168652939460c0840192909182015290526000805481526001602090815260409091208251805182546001600160a01b031981166001600160a01b03909216918217845593820151929391928492909183916001600160a81b03191617600160a01b8360028111156107eb576107eb612086565b0217905550505060208281015180516001840180546001600160a01b031981166001600160a01b03909316928317825593830151929390929183916001600160a81b03191617600160a01b83600281111561084857610848612086565b021790555050506040820151805161086a916002840191602090910190611a46565b5060608201516003820155608082015160048201805460ff19166001838181111561089757610897612086565b021790555060a082015160048201805461ff0019166101008360018111156108c1576108c1612086565b021790555060c082015180516005830180546001600160a01b031981166001600160a01b0390931692831782556020840151919283916001600160a81b03191617600160a01b83600281111561091957610919612086565b021790555050506001600160a01b0388166000908152600260209081526040808320835481546001818101845592865284862001553384526003835281842084548154808401835591865284862090910155835484529091529081902090517f1b8ca9d6d6a53ae2ccaea11da256089d3ffa1b5c99331355e14022637ed7afb493506109a59250611f0b565b60405180910390a16000805490806109bc8361205d565b91905055505050505050505050565b60008281526001602052604090206005015482906001600160a01b03163314610a4c5760405162461bcd60e51b815260206004820152602d60248201527f4f6e6c79206170706f696e7465642074686972642070617274792063616e206360448201526c616c6c207468697320666c6f7760981b6064820152608401610676565b8260008060008381526001602081905260409091206004015460ff1690811115610a7857610a78612086565b14610a8257600080fd5b84600180600083815260016020819052604090912060040154610100900460ff1690811115610ab357610ab3612086565b14610abd57600080fd5b6000878152600160205260409020600501805487919060ff60a01b1916600160a01b836002811115610af157610af1612086565b02179055506000878152600160205260408082208151610120810190925280546001600160a01b03811660e0840190815283918390610100840190600160a01b900460ff166002811115610b4757610b47612086565b6002811115610b5857610b58612086565b9052508152604080518082019091526001830180546001600160a01b0381168352602093840193830190600160a01b900460ff166002811115610b9d57610b9d612086565b6002811115610bae57610bae612086565b815250508152602001600282018054610bc690612022565b80601f0160208091040260200160405190810160405280929190818152602001828054610bf290612022565b8015610c3f5780601f10610c1457610100808354040283529160200191610c3f565b820191906000526020600020905b815481529060010190602001808311610c2257829003601f168201915b505050918352505060038201546020820152600482015460409091019060ff166001811115610c7057610c70612086565b6001811115610c8157610c81612086565b81526020016004820160019054906101000a900460ff166001811115610ca957610ca9612086565b6001811115610cba57610cba612086565b8152604080518082019091526005830180546001600160a01b0381168352602093840193830190600160a01b900460ff166002811115610cfc57610cfc612086565b6002811115610d0d57610d0d612086565b90525090525090506000876002811115610d2957610d29612086565b1415610d9c5780515160608201516040516001600160a01b039092169181156108fc0291906000818181858888f19350505050158015610d6d573d6000803e3d6000fd5b506040517f3c68eb814466095d6413c3d54053314f3612010356401ad9ab12567846d9625490600090a1610e22565b6001876002811115610db057610db0612086565b1415610e225760208101515160608201516040516001600160a01b039092169181156108fc0291906000818181858888f19350505050158015610df7573d6000803e3d6000fd5b506040517f3c68eb814466095d6413c3d54053314f3612010356401ad9ab12567846d9625490600090a15b5050505050505050565b6000828152600160208190526040909120015482906001600160a01b03163314610e985760405162461bcd60e51b815260206004820152601e60248201527f4f6e6c7920636c69656e742063616e2063616c6c207468697320666c6f7700006044820152606401610676565b8260008060008381526001602081905260409091206004015460ff1690811115610ec457610ec4612086565b14610ece57600080fd5b84600080600083815260016020819052604090912060040154610100900460ff1690811115610eff57610eff612086565b14610f0957600080fd5b600087815260016020819052604090912001805487919060ff60a01b1916600160a01b836002811115610f3e57610f3e612086565b02179055506000878152600160205260408082208151610120810190925280546001600160a01b03811660e0840190815283918390610100840190600160a01b900460ff166002811115610f9457610f94612086565b6002811115610fa557610fa5612086565b9052508152604080518082019091526001830180546001600160a01b0381168352602093840193830190600160a01b900460ff166002811115610fea57610fea612086565b6002811115610ffb57610ffb612086565b81525050815260200160028201805461101390612022565b80601f016020809104026020016040519081016040528092919081815260200182805461103f90612022565b801561108c5780601f106110615761010080835404028352916020019161108c565b820191906000526020600020905b81548152906001019060200180831161106f57829003601f168201915b505050918352505060038201546020820152600482015460409091019060ff1660018111156110bd576110bd612086565b60018111156110ce576110ce612086565b81526020016004820160019054906101000a900460ff1660018111156110f6576110f6612086565b600181111561110757611107612086565b8152604080518082019091526005830180546001600160a01b0381168352602093840193830190600160a01b900460ff16600281111561114957611149612086565b600281111561115a5761115a612086565b90525090525090506000816020015160200151600281111561117e5761117e612086565b14156111c25780515160608201516040516001600160a01b039092169181156108fc0291906000818181858888f19350505050158015610d6d573d6000803e3d6000fd5b600181602001516020015160028111156111de576111de612086565b148015611200575060015b8151602001516002811115610db057610db0612086565b15610e225760208101515160608201516040516001600160a01b039092169181156108fc0291906000818181858888f19350505050158015610df7573d6000803e3d6000fd5b60008281526001602052604090205482906001600160a01b031633146112ba5760405162461bcd60e51b815260206004820152602360248201527f4f6e6c7920667265656c616e6365722063616e2063616c6c207468697320666c60448201526237bb9760e91b6064820152608401610676565b8260008060008381526001602081905260409091206004015460ff16908111156112e6576112e6612086565b146112f057600080fd5b84600080600083815260016020819052604090912060040154610100900460ff169081111561132157611321612086565b1461132b57600080fd5b6000878152600160205260409020805487919060ff60a01b1916600160a01b83600281111561135c5761135c612086565b02179055506000878152600160205260408082208151610120810190925280546001600160a01b03811660e0840190815283918390610100840190600160a01b900460ff1660028111156113b2576113b2612086565b60028111156113c3576113c3612086565b9052508152604080518082019091526001830180546001600160a01b0381168352602093840193830190600160a01b900460ff16600281111561140857611408612086565b600281111561141957611419612086565b81525050815260200160028201805461143190612022565b80601f016020809104026020016040519081016040528092919081815260200182805461145d90612022565b80156114aa5780601f1061147f576101008083540402835291602001916114aa565b820191906000526020600020905b81548152906001019060200180831161148d57829003601f168201915b505050918352505060038201546020820152600482015460409091019060ff1660018111156114db576114db612086565b60018111156114ec576114ec612086565b81526020016004820160019054906101000a900460ff16600181111561151457611514612086565b600181111561152557611525612086565b8152604080518082019091526005830180546001600160a01b0381168352602093840193830190600160a01b900460ff16600281111561156757611567612086565b600281111561157857611578612086565b90525090525090506000816020015160200151600281111561159c5761159c612086565b1480156115bf5750600081516020015160028111156115bd576115bd612086565b145b156116025780515160608201516040516001600160a01b039092169181156108fc0291906000818181858888f19350505050158015610d6d573d6000803e3d6000fd5b60016111e9565b813481811461162a5760405162461bcd60e51b815260040161067690611dc5565b6040805180820182526001600160a01b0385168152600260208083018290528351808501855233815280820192909252835160e08101855283815290810182905292830188905260608301879052909160808101600081526000602080830182905260408051808201825283815260028184018190529482015282548352600182529091208351805182546001600160a01b039091166001600160a01b0319821681178455938201519294919385939284926001600160a81b03191690911790600160a01b90849081111561170157611701612086565b0217905550505060208281015180516001840180546001600160a01b031981166001600160a01b03909316928317825593830151929390929183916001600160a81b03191617600160a01b83600281111561175e5761175e612086565b0217905550505060408201518051611780916002840191602090910190611a46565b5060608201516003820155608082015160048201805460ff1916600183818111156117ad576117ad612086565b021790555060a082015160048201805461ff0019166101008360018111156117d7576117d7612086565b021790555060c082015180516005830180546001600160a01b031981166001600160a01b0390931692831782556020840151919283916001600160a81b03191617600160a01b83600281111561182f5761182f612086565b021790555050506001600160a01b0387166000908152600260209081526040808320835481546001818101845592865284862001553384526003835281842084548154808401835591865284862090910155835484529091529081902090517f1b8ca9d6d6a53ae2ccaea11da256089d3ffa1b5c99331355e14022637ed7afb493506118bb9250611f0b565b60405180910390a16000805490806118d28361205d565b919050555050505050505050565b6001600160a01b03811660009081526002602090815260409182902080548351818402810184019094528084526060939283018282801561194057602002820191906000526020600020905b81548152602001906001019080831161192c575b50505050509050919050565b6001600160a01b038116600090815260036020908152604091829020805483518184028101840190945280845260609392830182828015611940576020028201919060005260206000209081548152602001906001019080831161192c5750505050509050919050565b604080516101208101909152600060e08201818152610100830191909152819081526020016119f5604080518082019091526000808252602082015290565b8152602001606081526020016000815260200160006001811115611a1b57611a1b612086565b815260200160008152602001611a41604080518082019091526000808252602082015290565b905290565b828054611a5290612022565b90600052602060002090601f016020900481019282611a745760008555611aba565b82601f10611a8d57805160ff1916838001178555611aba565b82800160010185558215611aba579182015b82811115611aba578251825591602001919060010190611a9f565b50611ac6929150611aca565b5090565b5b80821115611ac65760008155600101611acb565b600082601f830112611af057600080fd5b813567ffffffffffffffff80821115611b0b57611b0b61209c565b604051601f8301601f19908116603f01168101908282118183101715611b3357611b3361209c565b81604052838152866020858801011115611b4c57600080fd5b836020870160208301376000602085830101528094505050505092915050565b600060208284031215611b7e57600080fd5b8135611b89816120c5565b9392505050565b60008060408385031215611ba357600080fd5b8235611bae816120c5565b946020939093013593505050565b600080600060608486031215611bd157600080fd5b833567ffffffffffffffff811115611be857600080fd5b611bf486828701611adf565b935050602084013591506040840135611c0c816120c5565b809150509250925092565b60008060008060808587031215611c2d57600080fd5b843567ffffffffffffffff811115611c4457600080fd5b611c5087828801611adf565b945050602085013592506040850135611c68816120c5565b91506060850135611c78816120c5565b939692955090935050565b600060208284031215611c9557600080fd5b5035919050565b60008060408385031215611caf57600080fd5b82359150602083013560038110611cc557600080fd5b809150509250929050565b611cd9816120b2565b9052565b60038110611cd957611cd9612086565b6000815180845260005b81811015611d1357602081850181015186830182015201611cf7565b81811115611d25576000602083870101525b50601f01601f19169290920160200192915050565b80516001600160a01b0316825260208082015190611d5a90840182611cdd565b505050565b80546001600160a01b0381168352611d5a6020840160a083901c60ff16611cdd565b6020808252825182820181905260009190848201906040850190845b81811015611db957835183529284019291840191600101611d9d565b50909695505050505050565b60208082526027908201527f46756e647320617265206e6f7420657175616c20746f20617070726f7665642060408201526630b6b7bab73a1760c91b606082015260800190565b6000610140611e1b838b611d3a565b611e28604084018a611d3a565b806080840152611e3a81840189611ced565b9150508560a0830152611e4c856120b2565b8460c0830152611e5b846120b2565b8360e0830152611e6f610100830184611d3a565b98975050505050505050565b60208152611e8d602082018351611d3a565b60006020830151611ea16060840182611d3a565b50604083015161014060a0840152611ebd610160840182611ced565b9050606084015160c08401526080840151611ed7816120b2565b60e084015260a0840151611eea816120b2565b61010084015260c0840151611f03610120850182611d3a565b509392505050565b60006020808352611f1e81840185611d5f565b6001611f2f60608501828701611d5f565b61014060a085015260028501805460009080841c84821680611f5257607f821691505b868210811415611f7057634e487b7160e01b84526022600452602484fd5b61016089018290526101808901818015611f915760018114611fa257611fcd565b60ff19851682528882019550611fcd565b60008781526020902060005b85811015611fc757815484820152908901908a01611fae565b83019650505b5050505050600387015460c087015260048701549350611ff360e0870160ff8616611cd0565b612007610100870160ff8660081c16611cd0565b612018610120870160058901611d5f565b9695505050505050565b600181811c9082168061203657607f821691505b6020821081141561205757634e487b7160e01b600052602260045260246000fd5b50919050565b600060001982141561207f57634e487b7160e01b600052601160045260246000fd5b5060010190565b634e487b7160e01b600052602160045260246000fd5b634e487b7160e01b600052604160045260246000fd5b600281106120c2576120c2612086565b50565b6001600160a01b03811681146120c257600080fdfea2646970667358221220f26e87e2a5e5d2433ec9b5c22b0dc91fdcfcd5897cd7dc5c8be55fe22981f79a64736f6c63430008070033",
    "sourcePath": "/Users/dsinghvi/Documents/faucet-Dapp/contracts/Freelancer.sol",
    "compiler": {
        "name": "solc",
        "version": "0.8.7+commit.e28d00a7"
    },
    "functionHashes": {
        "clientToContractId(address,uint256)": "04c8db5c",
        "clientVote(uint256,uint8)": "68886a2a",
        "contracts(uint256)": "474da79a",
        "freelancerToContractId(address,uint256)": "0fec528b",
        "freelancerVote(uint256,uint8)": "c64e9480",
        "fundWork(string,uint256,address)": "caac51ba",
        "fundWorkWithThirdParty(string,uint256,address,address)": "50a74738",
        "getTask(uint256)": "1d65e77e",
        "getTaskForClient(address)": "e670ec3c",
        "getTaskForFreelancer(address)": "cd62a1ae",
        "thirdPartyVote(uint256,uint8)": "558955fb"
    },
    "gasEstimates": {
        "creation": {
            "codeDepositCost": "1692800",
            "executionCost": "6784",
            "totalCost": "1699584"
        },
        "external": {
            "clientToContractId(address,uint256)": "4728",
            "clientVote(uint256,uint8)": "infinite",
            "contracts(uint256)": "infinite",
            "freelancerToContractId(address,uint256)": "4750",
            "freelancerVote(uint256,uint8)": "infinite",
            "fundWork(string,uint256,address)": "infinite",
            "fundWorkWithThirdParty(string,uint256,address,address)": "infinite",
            "getTask(uint256)": "infinite",
            "getTaskForClient(address)": "infinite",
            "getTaskForFreelancer(address)": "infinite",
            "thirdPartyVote(uint256,uint8)": "infinite"
        }
    }
}