{
    "contractName": "Freelancer",
    "abi": [
        {
            "inputs": [],
            "stateMutability": "nonpayable",
            "type": "constructor"
        },
        {
            "anonymous": false,
            "inputs": [],
            "name": "transferFunds",
            "type": "event"
        },
        {
            "anonymous": false,
            "inputs": [
                {
                    "components": [
                        {
                            "components": [
                                {
                                    "internalType": "address payable",
                                    "name": "addr",
                                    "type": "address"
                                },
                                {
                                    "internalType": "enum Freelancer.Vote",
                                    "name": "vote",
                                    "type": "uint8"
                                }
                            ],
                            "internalType": "struct Freelancer.Entity",
                            "name": "freelancer",
                            "type": "tuple"
                        },
                        {
                            "components": [
                                {
                                    "internalType": "address payable",
                                    "name": "addr",
                                    "type": "address"
                                },
                                {
                                    "internalType": "enum Freelancer.Vote",
                                    "name": "vote",
                                    "type": "uint8"
                                }
                            ],
                            "internalType": "struct Freelancer.Entity",
                            "name": "client",
                            "type": "tuple"
                        },
                        {
                            "internalType": "string",
                            "name": "description",
                            "type": "string"
                        },
                        {
                            "internalType": "uint256",
                            "name": "value",
                            "type": "uint256"
                        },
                        {
                            "internalType": "enum Freelancer.Status",
                            "name": "status",
                            "type": "uint8"
                        },
                        {
                            "internalType": "enum Freelancer.ConsensusType",
                            "name": "consensusType",
                            "type": "uint8"
                        },
                        {
                            "components": [
                                {
                                    "internalType": "address payable",
                                    "name": "addr",
                                    "type": "address"
                                },
                                {
                                    "internalType": "enum Freelancer.Vote",
                                    "name": "vote",
                                    "type": "uint8"
                                }
                            ],
                            "internalType": "struct Freelancer.Entity",
                            "name": "thirdParty",
                            "type": "tuple"
                        },
                        {
                            "internalType": "uint256",
                            "name": "id",
                            "type": "uint256"
                        },
                        {
                            "internalType": "bool",
                            "name": "isPopulated",
                            "type": "bool"
                        }
                    ],
                    "indexed": false,
                    "internalType": "struct Freelancer.Work",
                    "name": "work",
                    "type": "tuple"
                }
            ],
            "name": "workFunded",
            "type": "event"
        },
        {
            "inputs": [
                {
                    "internalType": "address",
                    "name": "",
                    "type": "address"
                },
                {
                    "internalType": "uint256",
                    "name": "",
                    "type": "uint256"
                }
            ],
            "name": "clientToContractId",
            "outputs": [
                {
                    "internalType": "uint256",
                    "name": "",
                    "type": "uint256"
                }
            ],
            "stateMutability": "view",
            "type": "function"
        },
        {
            "inputs": [
                {
                    "internalType": "uint256",
                    "name": "_id",
                    "type": "uint256"
                },
                {
                    "internalType": "enum Freelancer.Vote",
                    "name": "vote",
                    "type": "uint8"
                }
            ],
            "name": "clientVote",
            "outputs": [],
            "stateMutability": "nonpayable",
            "type": "function"
        },
        {
            "inputs": [
                {
                    "internalType": "uint256",
                    "name": "",
                    "type": "uint256"
                }
            ],
            "name": "contracts",
            "outputs": [
                {
                    "components": [
                        {
                            "internalType": "address payable",
                            "name": "addr",
                            "type": "address"
                        },
                        {
                            "internalType": "enum Freelancer.Vote",
                            "name": "vote",
                            "type": "uint8"
                        }
                    ],
                    "internalType": "struct Freelancer.Entity",
                    "name": "freelancer",
                    "type": "tuple"
                },
                {
                    "components": [
                        {
                            "internalType": "address payable",
                            "name": "addr",
                            "type": "address"
                        },
                        {
                            "internalType": "enum Freelancer.Vote",
                            "name": "vote",
                            "type": "uint8"
                        }
                    ],
                    "internalType": "struct Freelancer.Entity",
                    "name": "client",
                    "type": "tuple"
                },
                {
                    "internalType": "string",
                    "name": "description",
                    "type": "string"
                },
                {
                    "internalType": "uint256",
                    "name": "value",
                    "type": "uint256"
                },
                {
                    "internalType": "enum Freelancer.Status",
                    "name": "status",
                    "type": "uint8"
                },
                {
                    "internalType": "enum Freelancer.ConsensusType",
                    "name": "consensusType",
                    "type": "uint8"
                },
                {
                    "components": [
                        {
                            "internalType": "address payable",
                            "name": "addr",
                            "type": "address"
                        },
                        {
                            "internalType": "enum Freelancer.Vote",
                            "name": "vote",
                            "type": "uint8"
                        }
                    ],
                    "internalType": "struct Freelancer.Entity",
                    "name": "thirdParty",
                    "type": "tuple"
                },
                {
                    "internalType": "uint256",
                    "name": "id",
                    "type": "uint256"
                },
                {
                    "internalType": "bool",
                    "name": "isPopulated",
                    "type": "bool"
                }
            ],
            "stateMutability": "view",
            "type": "function"
        },
        {
            "inputs": [
                {
                    "internalType": "address",
                    "name": "",
                    "type": "address"
                },
                {
                    "internalType": "uint256",
                    "name": "",
                    "type": "uint256"
                }
            ],
            "name": "freelancerToContractId",
            "outputs": [
                {
                    "internalType": "uint256",
                    "name": "",
                    "type": "uint256"
                }
            ],
            "stateMutability": "view",
            "type": "function"
        },
        {
            "inputs": [
                {
                    "internalType": "uint256",
                    "name": "_id",
                    "type": "uint256"
                },
                {
                    "internalType": "enum Freelancer.Vote",
                    "name": "vote",
                    "type": "uint8"
                }
            ],
            "name": "freelancerVote",
            "outputs": [],
            "stateMutability": "nonpayable",
            "type": "function"
        },
        {
            "inputs": [
                {
                    "internalType": "uint256",
                    "name": "_id",
                    "type": "uint256"
                },
                {
                    "internalType": "string",
                    "name": "_description",
                    "type": "string"
                },
                {
                    "internalType": "uint256",
                    "name": "_value",
                    "type": "uint256"
                },
                {
                    "internalType": "address payable",
                    "name": "_freelancer",
                    "type": "address"
                }
            ],
            "name": "fundWork",
            "outputs": [],
            "stateMutability": "payable",
            "type": "function"
        },
        {
            "inputs": [
                {
                    "internalType": "uint256",
                    "name": "_id",
                    "type": "uint256"
                },
                {
                    "internalType": "string",
                    "name": "_description",
                    "type": "string"
                },
                {
                    "internalType": "uint256",
                    "name": "_value",
                    "type": "uint256"
                },
                {
                    "internalType": "address payable",
                    "name": "_freelancer",
                    "type": "address"
                },
                {
                    "internalType": "address payable",
                    "name": "_thirdParty",
                    "type": "address"
                }
            ],
            "name": "fundWorkWithThirdParty",
            "outputs": [],
            "stateMutability": "payable",
            "type": "function"
        },
        {
            "inputs": [],
            "name": "getBalance",
            "outputs": [
                {
                    "internalType": "uint256",
                    "name": "",
                    "type": "uint256"
                }
            ],
            "stateMutability": "view",
            "type": "function"
        },
        {
            "inputs": [
                {
                    "internalType": "uint256",
                    "name": "_id",
                    "type": "uint256"
                }
            ],
            "name": "getTask",
            "outputs": [
                {
                    "components": [
                        {
                            "components": [
                                {
                                    "internalType": "address payable",
                                    "name": "addr",
                                    "type": "address"
                                },
                                {
                                    "internalType": "enum Freelancer.Vote",
                                    "name": "vote",
                                    "type": "uint8"
                                }
                            ],
                            "internalType": "struct Freelancer.Entity",
                            "name": "freelancer",
                            "type": "tuple"
                        },
                        {
                            "components": [
                                {
                                    "internalType": "address payable",
                                    "name": "addr",
                                    "type": "address"
                                },
                                {
                                    "internalType": "enum Freelancer.Vote",
                                    "name": "vote",
                                    "type": "uint8"
                                }
                            ],
                            "internalType": "struct Freelancer.Entity",
                            "name": "client",
                            "type": "tuple"
                        },
                        {
                            "internalType": "string",
                            "name": "description",
                            "type": "string"
                        },
                        {
                            "internalType": "uint256",
                            "name": "value",
                            "type": "uint256"
                        },
                        {
                            "internalType": "enum Freelancer.Status",
                            "name": "status",
                            "type": "uint8"
                        },
                        {
                            "internalType": "enum Freelancer.ConsensusType",
                            "name": "consensusType",
                            "type": "uint8"
                        },
                        {
                            "components": [
                                {
                                    "internalType": "address payable",
                                    "name": "addr",
                                    "type": "address"
                                },
                                {
                                    "internalType": "enum Freelancer.Vote",
                                    "name": "vote",
                                    "type": "uint8"
                                }
                            ],
                            "internalType": "struct Freelancer.Entity",
                            "name": "thirdParty",
                            "type": "tuple"
                        },
                        {
                            "internalType": "uint256",
                            "name": "id",
                            "type": "uint256"
                        },
                        {
                            "internalType": "bool",
                            "name": "isPopulated",
                            "type": "bool"
                        }
                    ],
                    "internalType": "struct Freelancer.Work",
                    "name": "",
                    "type": "tuple"
                }
            ],
            "stateMutability": "view",
            "type": "function"
        },
        {
            "inputs": [
                {
                    "internalType": "address",
                    "name": "_address",
                    "type": "address"
                }
            ],
            "name": "getTaskForClient",
            "outputs": [
                {
                    "internalType": "uint256[]",
                    "name": "",
                    "type": "uint256[]"
                }
            ],
            "stateMutability": "view",
            "type": "function"
        },
        {
            "inputs": [
                {
                    "internalType": "address",
                    "name": "_address",
                    "type": "address"
                }
            ],
            "name": "getTaskForFreelancer",
            "outputs": [
                {
                    "internalType": "uint256[]",
                    "name": "",
                    "type": "uint256[]"
                }
            ],
            "stateMutability": "view",
            "type": "function"
        },
        {
            "inputs": [
                {
                    "internalType": "uint256",
                    "name": "_id",
                    "type": "uint256"
                },
                {
                    "internalType": "enum Freelancer.Vote",
                    "name": "vote",
                    "type": "uint8"
                }
            ],
            "name": "thirdPartyVote",
            "outputs": [],
            "stateMutability": "nonpayable",
            "type": "function"
        }
    ],
    "bytecode": "608060405234801561001057600080fd5b50612405806100206000396000f3fe6080604052600436106100a75760003560e01c8063474da79a11610064578063474da79a14610168578063558955fb1461019d57806368886a2a146101bd578063c64e9480146101dd578063cd62a1ae146101fd578063e670ec3c1461022a57600080fd5b806304c8db5c146100ac5780630fec528b146100df57806312065fe0146100ff57806319597425146101135780631d65e77e14610128578063323dd29e14610155575b600080fd5b3480156100b857600080fd5b506100cc6100c7366004611e42565b61024a565b6040519081526020015b60405180910390f35b3480156100eb57600080fd5b506100cc6100fa366004611e42565b61027b565b34801561010b57600080fd5b5033316100cc565b610126610121366004611ebb565b610297565b005b34801561013457600080fd5b50610148610143366004611e6e565b610602565b6040516100d69190612206565b610126610163366004611f1e565b610849565b34801561017457600080fd5b50610188610183366004611e6e565b610c3a565b6040516100d699989796959493929190612189565b3480156101a957600080fd5b506101266101b8366004611e87565b610df9565b3480156101c957600080fd5b506101266101d8366004611e87565b6112ad565b3480156101e957600080fd5b506101266101f8366004611e87565b6117a8565b34801561020957600080fd5b5061021d610218366004611e1e565b611b82565b6040516100d691906120fe565b34801561023657600080fd5b5061021d610245366004611e1e565b611bee565b6002602052816000526040600020818154811061026657600080fd5b90600052602060002001600091509150505481565b6001602052816000526040600020818154811061026657600080fd5b81348181146102c15760405162461bcd60e51b81526004016102b890612142565b60405180910390fd5b600086815260208190526040902060070154869060ff16156103255760405162461bcd60e51b815260206004820152601d60248201527f5461736b2069642068617320616c7265616479206265656e207573656400000060448201526064016102b8565b6040805180820182526001600160a01b03861681526002602080830182905283518085018552338152808201929092528351610120810185528381529081018290529283018990526060830188905290916080810160008152602001600081526040805180820190915260008152602091820191810160029052815260208082018c9052600160409283015260008c8152808252919091208251805182546001600160a01b031981166001600160a01b03909216918217845593820151929391928492909183916001600160a81b03191617600160a01b83600281111561040e5761040e61238b565b0217905550505060208281015180516001840180546001600160a01b031981166001600160a01b03909316928317825593830151929390929183916001600160a81b03191617600160a01b83600281111561046b5761046b61238b565b021790555050506040820151805161048d916002840191602090910190611c58565b506060820151816003015560808201518160040160006101000a81548160ff021916908360038111156104c2576104c261238b565b021790555060a082015160048201805461ff0019166101008360018111156104ec576104ec61238b565b021790555060c082015180516005830180546001600160a01b031981166001600160a01b0390931692831782556020840151919283916001600160a81b03191617600160a01b8360028111156105445761054461238b565b0217905550505060e08201516006820155610100909101516007909101805460ff19169115159190911790556001600160a01b038616600090815260016020818152604080842080548085018255908552828520018d9055338452600282528084208054938401815584528184209092018c90558b83528290529081902090517ff7d7e8d5c058cf59e0531caf95b6c75eb031314d5b1b0b2cc63aff507a71b286916105ef916122ae565b60405180910390a1505050505050505050565b61060a611cdc565b600082815260208190526040908190208151610160810190925280546001600160a01b038116610120840190815283918390610140840190600160a01b900460ff16600281111561065d5761065d61238b565b600281111561066e5761066e61238b565b9052508152604080518082019091526001830180546001600160a01b0381168352602093840193830190600160a01b900460ff1660028111156106b3576106b361238b565b60028111156106c4576106c461238b565b8152505081526020016002820180546106dc90612350565b80601f016020809104026020016040519081016040528092919081815260200182805461070890612350565b80156107555780601f1061072a57610100808354040283529160200191610755565b820191906000526020600020905b81548152906001019060200180831161073857829003601f168201915b50505091835250506003828101546020830152600483015460409092019160ff16908111156107865761078661238b565b60038111156107975761079761238b565b81526020016004820160019054906101000a900460ff1660018111156107bf576107bf61238b565b60018111156107d0576107d061238b565b8152604080518082019091526005830180546001600160a01b0381168352602093840193830190600160a01b900460ff1660028111156108125761081261238b565b60028111156108235761082361238b565b90525081526006820154602082015260079091015460ff16151560409091015292915050565b823481811461086a5760405162461bcd60e51b81526004016102b890612142565b600087815260208190526040902060070154879060ff16156108ce5760405162461bcd60e51b815260206004820152601d60248201527f5461736b2069642068617320616c7265616479206265656e207573656400000060448201526064016102b8565b846001600160a01b0316846001600160a01b0316141580156108f957506001600160a01b0384163314155b6109605760405162461bcd60e51b815260206004820152603260248201527f54686520636c69656e74206f7220667265656c616e6365722063616e6e6f742060448201527162652074686520746869726420706172747960701b60648201526084016102b8565b6040805180820182526001600160a01b03878116825260026020808401829052845180860186523381528082018390528551610120810187528581528083018290528087018e9052606081018d905260006080820152600160a08201528651808801909752938a168652939460c08401929091820152815260208082018d9052600160409283015260008d8152808252919091208251805182546001600160a01b031981166001600160a01b03909216918217845593820151929391928492909183916001600160a81b03191617600160a01b836002811115610a4557610a4561238b565b0217905550505060208281015180516001840180546001600160a01b031981166001600160a01b03909316928317825593830151929390929183916001600160a81b03191617600160a01b836002811115610aa257610aa261238b565b0217905550505060408201518051610ac4916002840191602090910190611c58565b506060820151816003015560808201518160040160006101000a81548160ff02191690836003811115610af957610af961238b565b021790555060a082015160048201805461ff001916610100836001811115610b2357610b2361238b565b021790555060c082015180516005830180546001600160a01b031981166001600160a01b0390931692831782556020840151919283916001600160a81b03191617600160a01b836002811115610b7b57610b7b61238b565b0217905550505060e08201516006820155610100909101516007909101805460ff19169115159190911790556001600160a01b038716600090815260016020818152604080842080548085018255908552828520018e9055338452600282528084208054938401815584528184209092018d90558c83528290529081902090517ff7d7e8d5c058cf59e0531caf95b6c75eb031314d5b1b0b2cc63aff507a71b28691610c26916122ae565b60405180910390a150505050505050505050565b60006020818152918152604090819020815180830190925280546001600160a01b03811683529092839190830190600160a01b900460ff166002811115610c8357610c8361238b565b6002811115610c9457610c9461238b565b905250604080518082019091526001830180546001600160a01b03811683529293926020830190600160a01b900460ff166002811115610cd657610cd661238b565b6002811115610ce757610ce761238b565b8152505090806002018054610cfb90612350565b80601f0160208091040260200160405190810160405280929190818152602001828054610d2790612350565b8015610d745780601f10610d4957610100808354040283529160200191610d74565b820191906000526020600020905b815481529060010190602001808311610d5757829003601f168201915b5050505060038301546004840154604080518082019091526005860180546001600160a01b03811683529596939560ff8085169650610100909404841694936020840191600160a01b9004166002811115610dd157610dd161238b565b6002811115610de257610de261238b565b905250600682015460079092015490919060ff1689565b60008281526020819052604090206005015482906001600160a01b03163314610e7a5760405162461bcd60e51b815260206004820152602d60248201527f4f6e6c79206170706f696e7465642074686972642070617274792063616e206360448201526c616c6c207468697320666c6f7760981b60648201526084016102b8565b8260008060008381526020819052604090206004015460ff166003811115610ea457610ea461238b565b14610eae57600080fd5b84600180600083815260208190526040902060040154610100900460ff166001811115610edd57610edd61238b565b14610ee757600080fd5b6000878152602081905260409020600501805487919060ff60a01b1916600160a01b836002811115610f1b57610f1b61238b565b02179055506000878152602081905260408082208151610160810190925280546001600160a01b038116610120840190815283918390610140840190600160a01b900460ff166002811115610f7257610f7261238b565b6002811115610f8357610f8361238b565b9052508152604080518082019091526001830180546001600160a01b0381168352602093840193830190600160a01b900460ff166002811115610fc857610fc861238b565b6002811115610fd957610fd961238b565b815250508152602001600282018054610ff190612350565b80601f016020809104026020016040519081016040528092919081815260200182805461101d90612350565b801561106a5780601f1061103f5761010080835404028352916020019161106a565b820191906000526020600020905b81548152906001019060200180831161104d57829003601f168201915b50505091835250506003828101546020830152600483015460409092019160ff169081111561109b5761109b61238b565b60038111156110ac576110ac61238b565b81526020016004820160019054906101000a900460ff1660018111156110d4576110d461238b565b60018111156110e5576110e561238b565b8152604080518082019091526005830180546001600160a01b0381168352602093840193830190600160a01b900460ff1660028111156111275761112761238b565b60028111156111385761113861238b565b90525081526006820154602082015260079091015460ff1615156040909101529050600087600281111561116e5761116e61238b565b14156112045780515160608201516040516001600160a01b039092169181156108fc0291906000818181858888f193505050501580156111b2573d6000803e3d6000fd5b50600088815260208190526040902060040180546001919060ff191682805b02179055506040517f3c68eb814466095d6413c3d54053314f3612010356401ad9ab12567846d9625490600090a16112a3565b60018760028111156112185761121861238b565b14156112a35760208101515160608201516040516001600160a01b039092169181156108fc0291906000818181858888f1935050505015801561125f573d6000803e3d6000fd5b50600088815260208190526040808220600401805460ff19166002179055517f3c68eb814466095d6413c3d54053314f3612010356401ad9ab12567846d962549190a15b5050505050505050565b60008281526020819052604090206001015482906001600160a01b031633146113185760405162461bcd60e51b815260206004820152601e60248201527f4f6e6c7920636c69656e742063616e2063616c6c207468697320666c6f77000060448201526064016102b8565b8260008060008381526020819052604090206004015460ff1660038111156113425761134261238b565b1461134c57600080fd5b84600080600083815260208190526040902060040154610100900460ff16600181111561137b5761137b61238b565b1461138557600080fd5b6000878152602081905260409020600101805487919060ff60a01b1916600160a01b8360028111156113b9576113b961238b565b02179055506000878152602081905260408082208151610160810190925280546001600160a01b038116610120840190815283918390610140840190600160a01b900460ff1660028111156114105761141061238b565b60028111156114215761142161238b565b9052508152604080518082019091526001830180546001600160a01b0381168352602093840193830190600160a01b900460ff1660028111156114665761146661238b565b60028111156114775761147761238b565b81525050815260200160028201805461148f90612350565b80601f01602080910402602001604051908101604052809291908181526020018280546114bb90612350565b80156115085780601f106114dd57610100808354040283529160200191611508565b820191906000526020600020905b8154815290600101906020018083116114eb57829003601f168201915b50505091835250506003828101546020830152600483015460409092019160ff16908111156115395761153961238b565b600381111561154a5761154a61238b565b81526020016004820160019054906101000a900460ff1660018111156115725761157261238b565b60018111156115835761158361238b565b8152604080518082019091526005830180546001600160a01b0381168352602093840193830190600160a01b900460ff1660028111156115c5576115c561238b565b60028111156115d6576115d661238b565b90525081526006820154602082015260079091015460ff1615156040909101529050600081602001516020015160028111156116145761161461238b565b14156116585780515160608201516040516001600160a01b039092169181156108fc0291906000818181858888f193505050501580156111b2573d6000803e3d6000fd5b600181602001516020015160028111156116745761167461238b565b148015611698575060015b81516020015160028111156116965761169661238b565b145b156117025760208101515160608201516040516001600160a01b039092169181156108fc0291906000818181858888f193505050501580156116de573d6000803e3d6000fd5b50600088815260208190526040902060040180546002919060ff19166001836111d1565b6002816020015160200151600281111561171e5761171e61238b565b141580156117435750600281516020015160028111156117405761174061238b565b14155b801561177e575080516020015160028111156117615761176161238b565b816020015160200151600281111561177b5761177b61238b565b14155b156112a357505050600094855250505060208290525060409020600401805460ff19166003179055565b60008281526020819052604090205482906001600160a01b0316331461181c5760405162461bcd60e51b815260206004820152602360248201527f4f6e6c7920667265656c616e6365722063616e2063616c6c207468697320666c60448201526237bb9760e91b60648201526084016102b8565b8260008060008381526020819052604090206004015460ff1660038111156118465761184661238b565b1461185057600080fd5b84600080600083815260208190526040902060040154610100900460ff16600181111561187f5761187f61238b565b1461188957600080fd5b6000878152602081905260409020805487919060ff60a01b1916600160a01b8360028111156118ba576118ba61238b565b02179055506000878152602081905260408082208151610160810190925280546001600160a01b038116610120840190815283918390610140840190600160a01b900460ff1660028111156119115761191161238b565b60028111156119225761192261238b565b9052508152604080518082019091526001830180546001600160a01b0381168352602093840193830190600160a01b900460ff1660028111156119675761196761238b565b60028111156119785761197861238b565b81525050815260200160028201805461199090612350565b80601f01602080910402602001604051908101604052809291908181526020018280546119bc90612350565b8015611a095780601f106119de57610100808354040283529160200191611a09565b820191906000526020600020905b8154815290600101906020018083116119ec57829003601f168201915b50505091835250506003828101546020830152600483015460409092019160ff1690811115611a3a57611a3a61238b565b6003811115611a4b57611a4b61238b565b81526020016004820160019054906101000a900460ff166001811115611a7357611a7361238b565b6001811115611a8457611a8461238b565b8152604080518082019091526005830180546001600160a01b0381168352602093840193830190600160a01b900460ff166002811115611ac657611ac661238b565b6002811115611ad757611ad761238b565b90525081526006820154602082015260079091015460ff161515604090910152905060008160200151602001516002811115611b1557611b1561238b565b148015611b38575060008151602001516002811115611b3657611b3661238b565b145b15611b7b5780515160608201516040516001600160a01b039092169181156108fc0291906000818181858888f193505050501580156111b2573d6000803e3d6000fd5b600161167f565b6001600160a01b038116600090815260016020908152604091829020805483518184028101840190945280845260609392830182828015611be257602002820191906000526020600020905b815481526020019060010190808311611bce575b50505050509050919050565b6001600160a01b038116600090815260026020908152604091829020805483518184028101840190945280845260609392830182828015611be25760200282019190600052602060002090815481526020019060010190808311611bce5750505050509050919050565b828054611c6490612350565b90600052602060002090601f016020900481019282611c865760008555611ccc565b82601f10611c9f57805160ff1916838001178555611ccc565b82800160010185558215611ccc579182015b82811115611ccc578251825591602001919060010190611cb1565b50611cd8929150611d7c565b5090565b6040805161016081019091526000610120820181815261014083019190915281908152602001611d1c604080518082019091526000808252602082015290565b8152602001606081526020016000815260200160006003811115611d4257611d4261238b565b815260200160008152602001611d68604080518082019091526000808252602082015290565b815260006020820181905260409091015290565b5b80821115611cd85760008155600101611d7d565b600082601f830112611da257600080fd5b813567ffffffffffffffff80821115611dbd57611dbd6123a1565b604051601f8301601f19908116603f01168101908282118183101715611de557611de56123a1565b81604052838152866020858801011115611dfe57600080fd5b836020870160208301376000602085830101528094505050505092915050565b600060208284031215611e3057600080fd5b8135611e3b816123b7565b9392505050565b60008060408385031215611e5557600080fd5b8235611e60816123b7565b946020939093013593505050565b600060208284031215611e8057600080fd5b5035919050565b60008060408385031215611e9a57600080fd5b82359150602083013560038110611eb057600080fd5b809150509250929050565b60008060008060808587031215611ed157600080fd5b84359350602085013567ffffffffffffffff811115611eef57600080fd5b611efb87828801611d91565b935050604085013591506060850135611f13816123b7565b939692955090935050565b600080600080600060a08688031215611f3657600080fd5b85359450602086013567ffffffffffffffff811115611f5457600080fd5b611f6088828901611d91565b945050604086013592506060860135611f78816123b7565b91506080860135611f88816123b7565b809150509295509295909350565b60028110611fa657611fa661238b565b9052565b60048110611fa657611fa661238b565b60038110611fa657611fa661238b565b6000815180845260005b81811015611ff057602081850181015186830182015201611fd4565b81811115612002576000602083870101525b50601f01601f19169290920160200192915050565b8054600090600181811c908083168061203157607f831692505b602080841082141561205357634e487b7160e01b600052602260045260246000fd5b8388526020880182801561206e576001811461207f576120aa565b60ff198716825282820197506120aa565b60008981526020902060005b878110156120a45781548482015290860190840161208b565b83019850505b5050505050505092915050565b80516001600160a01b03168252602080820151906120d790840182611fba565b505050565b80546001600160a01b03811683526120d76020840160a083901c60ff16611fba565b6020808252825182820181905260009190848201906040850190845b818110156121365783518352928401929184019160010161211a565b50909695505050505050565b60208082526027908201527f46756e647320617265206e6f7420657175616c20746f20617070726f7665642060408201526630b6b7bab73a1760c91b606082015260800190565b6000610180612198838d6120b7565b6121a5604084018c6120b7565b8060808401526121b78184018b611fca565b9150508760a08301526121cd60c0830188611faa565b6121da60e0830187611f96565b6121e86101008301866120b7565b836101408301528215156101608301529a9950505050505050505050565b602081526122186020820183516120b7565b6000602083015161222c60608401826120b7565b5060408301516101808060a08501526122496101a0850183611fca565b9150606085015160c0850152608085015161226760e0860182611faa565b5060a085015161010061227c81870183611f96565b60c087015191506122916101208701836120b7565b60e087015161016087015290950151151593019290925250919050565b602081526122bf60208201836120dc565b6122cf60608201600184016120dc565b60006101808060a08401526122eb6101a0840160028601612017565b600385015460c0850152600485015461230a60e0860160ff8316611faa565b61231e610100860160ff8360081c16611f96565b506123306101208501600587016120dc565b600685015461016085015260079094015460ff1615159201919091525090565b600181811c9082168061236457607f821691505b6020821081141561238557634e487b7160e01b600052602260045260246000fd5b50919050565b634e487b7160e01b600052602160045260246000fd5b634e487b7160e01b600052604160045260246000fd5b6001600160a01b03811681146123cc57600080fd5b5056fea26469706673582212207a842a37b6fd84677a3d3896a4c1a92d7bfa1e06e9e1dde6949143012921b5bb64736f6c63430008070033",
    "sourcePath": "/Users/dsinghvi/Documents/faucet-Dapp/contracts/Freelancer.sol",
    "compiler": {
        "name": "solc",
        "version": "0.8.7+commit.e28d00a7"
    },
    "functionHashes": {
        "clientToContractId(address,uint256)": "04c8db5c",
        "clientVote(uint256,uint8)": "68886a2a",
        "contracts(uint256)": "474da79a",
        "freelancerToContractId(address,uint256)": "0fec528b",
        "freelancerVote(uint256,uint8)": "c64e9480",
        "fundWork(uint256,string,uint256,address)": "19597425",
        "fundWorkWithThirdParty(uint256,string,uint256,address,address)": "323dd29e",
        "getBalance()": "12065fe0",
        "getTask(uint256)": "1d65e77e",
        "getTaskForClient(address)": "e670ec3c",
        "getTaskForFreelancer(address)": "cd62a1ae",
        "thirdPartyVote(uint256,uint8)": "558955fb"
    },
    "gasEstimates": {
        "creation": {
            "codeDepositCost": "1844200",
            "executionCost": "1948",
            "totalCost": "1846148"
        },
        "external": {
            "clientToContractId(address,uint256)": "4728",
            "clientVote(uint256,uint8)": "infinite",
            "contracts(uint256)": "infinite",
            "freelancerToContractId(address,uint256)": "4750",
            "freelancerVote(uint256,uint8)": "infinite",
            "fundWork(uint256,string,uint256,address)": "infinite",
            "fundWorkWithThirdParty(uint256,string,uint256,address,address)": "infinite",
            "getBalance()": "2825",
            "getTask(uint256)": "infinite",
            "getTaskForClient(address)": "infinite",
            "getTaskForFreelancer(address)": "infinite",
            "thirdPartyVote(uint256,uint8)": "infinite"
        }
    }
}