{
    "contractName": "Freelancer",
    "abi": [
        {
            "inputs": [],
            "stateMutability": "nonpayable",
            "type": "constructor"
        },
        {
            "anonymous": false,
            "inputs": [],
            "name": "transferFunds",
            "type": "event"
        },
        {
            "anonymous": false,
            "inputs": [
                {
                    "components": [
                        {
                            "components": [
                                {
                                    "internalType": "address payable",
                                    "name": "addr",
                                    "type": "address"
                                },
                                {
                                    "internalType": "enum Freelancer.Vote",
                                    "name": "vote",
                                    "type": "uint8"
                                }
                            ],
                            "internalType": "struct Freelancer.Entity",
                            "name": "freelancer",
                            "type": "tuple"
                        },
                        {
                            "components": [
                                {
                                    "internalType": "address payable",
                                    "name": "addr",
                                    "type": "address"
                                },
                                {
                                    "internalType": "enum Freelancer.Vote",
                                    "name": "vote",
                                    "type": "uint8"
                                }
                            ],
                            "internalType": "struct Freelancer.Entity",
                            "name": "client",
                            "type": "tuple"
                        },
                        {
                            "internalType": "string",
                            "name": "description",
                            "type": "string"
                        },
                        {
                            "internalType": "uint256",
                            "name": "value",
                            "type": "uint256"
                        },
                        {
                            "internalType": "enum Freelancer.Status",
                            "name": "status",
                            "type": "uint8"
                        },
                        {
                            "internalType": "enum Freelancer.ConsensusType",
                            "name": "consensusType",
                            "type": "uint8"
                        },
                        {
                            "components": [
                                {
                                    "internalType": "address payable",
                                    "name": "addr",
                                    "type": "address"
                                },
                                {
                                    "internalType": "enum Freelancer.Vote",
                                    "name": "vote",
                                    "type": "uint8"
                                }
                            ],
                            "internalType": "struct Freelancer.Entity",
                            "name": "thirdParty",
                            "type": "tuple"
                        },
                        {
                            "internalType": "uint256",
                            "name": "id",
                            "type": "uint256"
                        },
                        {
                            "internalType": "bool",
                            "name": "isPopulated",
                            "type": "bool"
                        }
                    ],
                    "indexed": false,
                    "internalType": "struct Freelancer.Work",
                    "name": "work",
                    "type": "tuple"
                }
            ],
            "name": "workFunded",
            "type": "event"
        },
        {
            "inputs": [
                {
                    "internalType": "address",
                    "name": "",
                    "type": "address"
                },
                {
                    "internalType": "uint256",
                    "name": "",
                    "type": "uint256"
                }
            ],
            "name": "clientToContractId",
            "outputs": [
                {
                    "internalType": "uint256",
                    "name": "",
                    "type": "uint256"
                }
            ],
            "stateMutability": "view",
            "type": "function"
        },
        {
            "inputs": [
                {
                    "internalType": "uint256",
                    "name": "_id",
                    "type": "uint256"
                },
                {
                    "internalType": "enum Freelancer.Vote",
                    "name": "vote",
                    "type": "uint8"
                }
            ],
            "name": "clientVote",
            "outputs": [],
            "stateMutability": "nonpayable",
            "type": "function"
        },
        {
            "inputs": [
                {
                    "internalType": "uint256",
                    "name": "",
                    "type": "uint256"
                }
            ],
            "name": "contracts",
            "outputs": [
                {
                    "components": [
                        {
                            "internalType": "address payable",
                            "name": "addr",
                            "type": "address"
                        },
                        {
                            "internalType": "enum Freelancer.Vote",
                            "name": "vote",
                            "type": "uint8"
                        }
                    ],
                    "internalType": "struct Freelancer.Entity",
                    "name": "freelancer",
                    "type": "tuple"
                },
                {
                    "components": [
                        {
                            "internalType": "address payable",
                            "name": "addr",
                            "type": "address"
                        },
                        {
                            "internalType": "enum Freelancer.Vote",
                            "name": "vote",
                            "type": "uint8"
                        }
                    ],
                    "internalType": "struct Freelancer.Entity",
                    "name": "client",
                    "type": "tuple"
                },
                {
                    "internalType": "string",
                    "name": "description",
                    "type": "string"
                },
                {
                    "internalType": "uint256",
                    "name": "value",
                    "type": "uint256"
                },
                {
                    "internalType": "enum Freelancer.Status",
                    "name": "status",
                    "type": "uint8"
                },
                {
                    "internalType": "enum Freelancer.ConsensusType",
                    "name": "consensusType",
                    "type": "uint8"
                },
                {
                    "components": [
                        {
                            "internalType": "address payable",
                            "name": "addr",
                            "type": "address"
                        },
                        {
                            "internalType": "enum Freelancer.Vote",
                            "name": "vote",
                            "type": "uint8"
                        }
                    ],
                    "internalType": "struct Freelancer.Entity",
                    "name": "thirdParty",
                    "type": "tuple"
                },
                {
                    "internalType": "uint256",
                    "name": "id",
                    "type": "uint256"
                },
                {
                    "internalType": "bool",
                    "name": "isPopulated",
                    "type": "bool"
                }
            ],
            "stateMutability": "view",
            "type": "function"
        },
        {
            "inputs": [
                {
                    "internalType": "address",
                    "name": "",
                    "type": "address"
                },
                {
                    "internalType": "uint256",
                    "name": "",
                    "type": "uint256"
                }
            ],
            "name": "freelancerToContractId",
            "outputs": [
                {
                    "internalType": "uint256",
                    "name": "",
                    "type": "uint256"
                }
            ],
            "stateMutability": "view",
            "type": "function"
        },
        {
            "inputs": [
                {
                    "internalType": "uint256",
                    "name": "_id",
                    "type": "uint256"
                },
                {
                    "internalType": "enum Freelancer.Vote",
                    "name": "vote",
                    "type": "uint8"
                }
            ],
            "name": "freelancerVote",
            "outputs": [],
            "stateMutability": "nonpayable",
            "type": "function"
        },
        {
            "inputs": [
                {
                    "internalType": "uint256",
                    "name": "_id",
                    "type": "uint256"
                },
                {
                    "internalType": "string",
                    "name": "_description",
                    "type": "string"
                },
                {
                    "internalType": "uint256",
                    "name": "_value",
                    "type": "uint256"
                },
                {
                    "internalType": "address payable",
                    "name": "_freelancer",
                    "type": "address"
                }
            ],
            "name": "fundWork",
            "outputs": [],
            "stateMutability": "payable",
            "type": "function"
        },
        {
            "inputs": [
                {
                    "internalType": "uint256",
                    "name": "_id",
                    "type": "uint256"
                },
                {
                    "internalType": "string",
                    "name": "_description",
                    "type": "string"
                },
                {
                    "internalType": "uint256",
                    "name": "_value",
                    "type": "uint256"
                },
                {
                    "internalType": "address payable",
                    "name": "_freelancer",
                    "type": "address"
                },
                {
                    "internalType": "address payable",
                    "name": "_thirdParty",
                    "type": "address"
                }
            ],
            "name": "fundWorkWithThirdParty",
            "outputs": [],
            "stateMutability": "payable",
            "type": "function"
        },
        {
            "inputs": [],
            "name": "getBalance",
            "outputs": [
                {
                    "internalType": "uint256",
                    "name": "",
                    "type": "uint256"
                }
            ],
            "stateMutability": "view",
            "type": "function"
        },
        {
            "inputs": [
                {
                    "internalType": "uint256",
                    "name": "_id",
                    "type": "uint256"
                }
            ],
            "name": "getTask",
            "outputs": [
                {
                    "components": [
                        {
                            "components": [
                                {
                                    "internalType": "address payable",
                                    "name": "addr",
                                    "type": "address"
                                },
                                {
                                    "internalType": "enum Freelancer.Vote",
                                    "name": "vote",
                                    "type": "uint8"
                                }
                            ],
                            "internalType": "struct Freelancer.Entity",
                            "name": "freelancer",
                            "type": "tuple"
                        },
                        {
                            "components": [
                                {
                                    "internalType": "address payable",
                                    "name": "addr",
                                    "type": "address"
                                },
                                {
                                    "internalType": "enum Freelancer.Vote",
                                    "name": "vote",
                                    "type": "uint8"
                                }
                            ],
                            "internalType": "struct Freelancer.Entity",
                            "name": "client",
                            "type": "tuple"
                        },
                        {
                            "internalType": "string",
                            "name": "description",
                            "type": "string"
                        },
                        {
                            "internalType": "uint256",
                            "name": "value",
                            "type": "uint256"
                        },
                        {
                            "internalType": "enum Freelancer.Status",
                            "name": "status",
                            "type": "uint8"
                        },
                        {
                            "internalType": "enum Freelancer.ConsensusType",
                            "name": "consensusType",
                            "type": "uint8"
                        },
                        {
                            "components": [
                                {
                                    "internalType": "address payable",
                                    "name": "addr",
                                    "type": "address"
                                },
                                {
                                    "internalType": "enum Freelancer.Vote",
                                    "name": "vote",
                                    "type": "uint8"
                                }
                            ],
                            "internalType": "struct Freelancer.Entity",
                            "name": "thirdParty",
                            "type": "tuple"
                        },
                        {
                            "internalType": "uint256",
                            "name": "id",
                            "type": "uint256"
                        },
                        {
                            "internalType": "bool",
                            "name": "isPopulated",
                            "type": "bool"
                        }
                    ],
                    "internalType": "struct Freelancer.Work",
                    "name": "",
                    "type": "tuple"
                }
            ],
            "stateMutability": "view",
            "type": "function"
        },
        {
            "inputs": [
                {
                    "internalType": "address",
                    "name": "_address",
                    "type": "address"
                }
            ],
            "name": "getTaskForClient",
            "outputs": [
                {
                    "internalType": "uint256[]",
                    "name": "",
                    "type": "uint256[]"
                }
            ],
            "stateMutability": "view",
            "type": "function"
        },
        {
            "inputs": [
                {
                    "internalType": "address",
                    "name": "_address",
                    "type": "address"
                }
            ],
            "name": "getTaskForFreelancer",
            "outputs": [
                {
                    "internalType": "uint256[]",
                    "name": "",
                    "type": "uint256[]"
                }
            ],
            "stateMutability": "view",
            "type": "function"
        },
        {
            "inputs": [
                {
                    "internalType": "uint256",
                    "name": "_id",
                    "type": "uint256"
                },
                {
                    "internalType": "enum Freelancer.Vote",
                    "name": "vote",
                    "type": "uint8"
                }
            ],
            "name": "thirdPartyVote",
            "outputs": [],
            "stateMutability": "nonpayable",
            "type": "function"
        }
    ],
    "bytecode": "608060405234801561001057600080fd5b506122ea806100206000396000f3fe6080604052600436106100a75760003560e01c8063474da79a11610064578063474da79a14610168578063558955fb1461019d57806368886a2a146101bd578063c64e9480146101dd578063cd62a1ae146101fd578063e670ec3c1461022a57600080fd5b806304c8db5c146100ac5780630fec528b146100df57806312065fe0146100ff57806319597425146101135780631d65e77e14610128578063323dd29e14610155575b600080fd5b3480156100b857600080fd5b506100cc6100c7366004611d2a565b61024a565b6040519081526020015b60405180910390f35b3480156100eb57600080fd5b506100cc6100fa366004611d2a565b61027b565b34801561010b57600080fd5b5033316100cc565b610126610121366004611da3565b610297565b005b34801561013457600080fd5b50610148610143366004611d56565b6105fa565b6040516100d691906120db565b610126610163366004611e06565b610841565b34801561017457600080fd5b50610188610183366004611d56565b610c2a565b6040516100d69998979695949392919061205a565b3480156101a957600080fd5b506101266101b8366004611d6f565b610de9565b3480156101c957600080fd5b506101266101d8366004611d6f565b611261565b3480156101e957600080fd5b506101266101f8366004611d6f565b611690565b34801561020957600080fd5b5061021d610218366004611d06565b611a6a565b6040516100d69190611fcf565b34801561023657600080fd5b5061021d610245366004611d06565b611ad6565b6002602052816000526040600020818154811061026657600080fd5b90600052602060002001600091509150505481565b6001602052816000526040600020818154811061026657600080fd5b81348181146102c15760405162461bcd60e51b81526004016102b890612013565b60405180910390fd5b600086815260208190526040902060070154869060ff16156103255760405162461bcd60e51b815260206004820152601d60248201527f5461736b2069642068617320616c7265616479206265656e207573656400000060448201526064016102b8565b6040805180820182526001600160a01b03861681526002602080830182905283518085018552338152808201929092528351610120810185528381529081018290529283018990526060830188905290916080810160008152602001600081526040805180820190915260008152602091820191810160029052815260208082018c9052600160409283015260008c8152808252919091208251805182546001600160a01b031981166001600160a01b03909216918217845593820151929391928492909183916001600160a81b03191617600160a01b83600281111561040e5761040e612260565b0217905550505060208281015180516001840180546001600160a01b031981166001600160a01b03909316928317825593830151929390929183916001600160a81b03191617600160a01b83600281111561046b5761046b612260565b021790555050506040820151805161048d916002840191602090910190611b40565b5060608201516003820155608082015160048201805460ff1916600183818111156104ba576104ba612260565b021790555060a082015160048201805461ff0019166101008360018111156104e4576104e4612260565b021790555060c082015180516005830180546001600160a01b031981166001600160a01b0390931692831782556020840151919283916001600160a81b03191617600160a01b83600281111561053c5761053c612260565b0217905550505060e08201516006820155610100909101516007909101805460ff19169115159190911790556001600160a01b038616600090815260016020818152604080842080548085018255908552828520018d9055338452600282528084208054938401815584528184209092018c90558b83528290529081902090517ff7d7e8d5c058cf59e0531caf95b6c75eb031314d5b1b0b2cc63aff507a71b286916105e791612183565b60405180910390a1505050505050505050565b610602611bc4565b600082815260208190526040908190208151610160810190925280546001600160a01b038116610120840190815283918390610140840190600160a01b900460ff16600281111561065557610655612260565b600281111561066657610666612260565b9052508152604080518082019091526001830180546001600160a01b0381168352602093840193830190600160a01b900460ff1660028111156106ab576106ab612260565b60028111156106bc576106bc612260565b8152505081526020016002820180546106d490612225565b80601f016020809104026020016040519081016040528092919081815260200182805461070090612225565b801561074d5780601f106107225761010080835404028352916020019161074d565b820191906000526020600020905b81548152906001019060200180831161073057829003601f168201915b505050918352505060038201546020820152600482015460409091019060ff16600181111561077e5761077e612260565b600181111561078f5761078f612260565b81526020016004820160019054906101000a900460ff1660018111156107b7576107b7612260565b60018111156107c8576107c8612260565b8152604080518082019091526005830180546001600160a01b0381168352602093840193830190600160a01b900460ff16600281111561080a5761080a612260565b600281111561081b5761081b612260565b90525081526006820154602082015260079091015460ff16151560409091015292915050565b82348181146108625760405162461bcd60e51b81526004016102b890612013565b600087815260208190526040902060070154879060ff16156108c65760405162461bcd60e51b815260206004820152601d60248201527f5461736b2069642068617320616c7265616479206265656e207573656400000060448201526064016102b8565b846001600160a01b0316846001600160a01b0316141580156108f157506001600160a01b0384163314155b6109585760405162461bcd60e51b815260206004820152603260248201527f54686520636c69656e74206f7220667265656c616e6365722063616e6e6f742060448201527162652074686520746869726420706172747960701b60648201526084016102b8565b6040805180820182526001600160a01b03878116825260026020808401829052845180860186523381528082018390528551610120810187528581528083018290528087018e9052606081018d905260006080820152600160a08201528651808801909752938a168652939460c08401929091820152815260208082018d9052600160409283015260008d8152808252919091208251805182546001600160a01b031981166001600160a01b03909216918217845593820151929391928492909183916001600160a81b03191617600160a01b836002811115610a3d57610a3d612260565b0217905550505060208281015180516001840180546001600160a01b031981166001600160a01b03909316928317825593830151929390929183916001600160a81b03191617600160a01b836002811115610a9a57610a9a612260565b0217905550505060408201518051610abc916002840191602090910190611b40565b5060608201516003820155608082015160048201805460ff191660018381811115610ae957610ae9612260565b021790555060a082015160048201805461ff001916610100836001811115610b1357610b13612260565b021790555060c082015180516005830180546001600160a01b031981166001600160a01b0390931692831782556020840151919283916001600160a81b03191617600160a01b836002811115610b6b57610b6b612260565b0217905550505060e08201516006820155610100909101516007909101805460ff19169115159190911790556001600160a01b038716600090815260016020818152604080842080548085018255908552828520018e9055338452600282528084208054938401815584528184209092018d90558c83528290529081902090517ff7d7e8d5c058cf59e0531caf95b6c75eb031314d5b1b0b2cc63aff507a71b28691610c1691612183565b60405180910390a150505050505050505050565b60006020818152918152604090819020815180830190925280546001600160a01b03811683529092839190830190600160a01b900460ff166002811115610c7357610c73612260565b6002811115610c8457610c84612260565b905250604080518082019091526001830180546001600160a01b03811683529293926020830190600160a01b900460ff166002811115610cc657610cc6612260565b6002811115610cd757610cd7612260565b8152505090806002018054610ceb90612225565b80601f0160208091040260200160405190810160405280929190818152602001828054610d1790612225565b8015610d645780601f10610d3957610100808354040283529160200191610d64565b820191906000526020600020905b815481529060010190602001808311610d4757829003601f168201915b5050505060038301546004840154604080518082019091526005860180546001600160a01b03811683529596939560ff8085169650610100909404841694936020840191600160a01b9004166002811115610dc157610dc1612260565b6002811115610dd257610dd2612260565b905250600682015460079092015490919060ff1689565b60008281526020819052604090206005015482906001600160a01b03163314610e6a5760405162461bcd60e51b815260206004820152602d60248201527f4f6e6c79206170706f696e7465642074686972642070617274792063616e206360448201526c616c6c207468697320666c6f7760981b60648201526084016102b8565b8260008060008381526020819052604090206004015460ff166001811115610e9457610e94612260565b14610e9e57600080fd5b84600180600083815260208190526040902060040154610100900460ff166001811115610ecd57610ecd612260565b14610ed757600080fd5b6000878152602081905260409020600501805487919060ff60a01b1916600160a01b836002811115610f0b57610f0b612260565b02179055506000878152602081905260408082208151610160810190925280546001600160a01b038116610120840190815283918390610140840190600160a01b900460ff166002811115610f6257610f62612260565b6002811115610f7357610f73612260565b9052508152604080518082019091526001830180546001600160a01b0381168352602093840193830190600160a01b900460ff166002811115610fb857610fb8612260565b6002811115610fc957610fc9612260565b815250508152602001600282018054610fe190612225565b80601f016020809104026020016040519081016040528092919081815260200182805461100d90612225565b801561105a5780601f1061102f5761010080835404028352916020019161105a565b820191906000526020600020905b81548152906001019060200180831161103d57829003601f168201915b505050918352505060038201546020820152600482015460409091019060ff16600181111561108b5761108b612260565b600181111561109c5761109c612260565b81526020016004820160019054906101000a900460ff1660018111156110c4576110c4612260565b60018111156110d5576110d5612260565b8152604080518082019091526005830180546001600160a01b0381168352602093840193830190600160a01b900460ff16600281111561111757611117612260565b600281111561112857611128612260565b90525081526006820154602082015260079091015460ff1615156040909101529050600087600281111561115e5761115e612260565b14156111d15780515160608201516040516001600160a01b039092169181156108fc0291906000818181858888f193505050501580156111a2573d6000803e3d6000fd5b506040517f3c68eb814466095d6413c3d54053314f3612010356401ad9ab12567846d9625490600090a1611257565b60018760028111156111e5576111e5612260565b14156112575760208101515160608201516040516001600160a01b039092169181156108fc0291906000818181858888f1935050505015801561122c573d6000803e3d6000fd5b506040517f3c68eb814466095d6413c3d54053314f3612010356401ad9ab12567846d9625490600090a15b5050505050505050565b60008281526020819052604090206001015482906001600160a01b031633146112cc5760405162461bcd60e51b815260206004820152601e60248201527f4f6e6c7920636c69656e742063616e2063616c6c207468697320666c6f77000060448201526064016102b8565b8260008060008381526020819052604090206004015460ff1660018111156112f6576112f6612260565b1461130057600080fd5b84600080600083815260208190526040902060040154610100900460ff16600181111561132f5761132f612260565b1461133957600080fd5b6000878152602081905260409020600101805487919060ff60a01b1916600160a01b83600281111561136d5761136d612260565b02179055506000878152602081905260408082208151610160810190925280546001600160a01b038116610120840190815283918390610140840190600160a01b900460ff1660028111156113c4576113c4612260565b60028111156113d5576113d5612260565b9052508152604080518082019091526001830180546001600160a01b0381168352602093840193830190600160a01b900460ff16600281111561141a5761141a612260565b600281111561142b5761142b612260565b81525050815260200160028201805461144390612225565b80601f016020809104026020016040519081016040528092919081815260200182805461146f90612225565b80156114bc5780601f10611491576101008083540402835291602001916114bc565b820191906000526020600020905b81548152906001019060200180831161149f57829003601f168201915b505050918352505060038201546020820152600482015460409091019060ff1660018111156114ed576114ed612260565b60018111156114fe576114fe612260565b81526020016004820160019054906101000a900460ff16600181111561152657611526612260565b600181111561153757611537612260565b8152604080518082019091526005830180546001600160a01b0381168352602093840193830190600160a01b900460ff16600281111561157957611579612260565b600281111561158a5761158a612260565b90525081526006820154602082015260079091015460ff1615156040909101529050600081602001516020015160028111156115c8576115c8612260565b141561160c5780515160608201516040516001600160a01b039092169181156108fc0291906000818181858888f193505050501580156111a2573d6000803e3d6000fd5b6001816020015160200151600281111561162857611628612260565b14801561164a575060015b81516020015160028111156111e5576111e5612260565b156112575760208101515160608201516040516001600160a01b039092169181156108fc0291906000818181858888f1935050505015801561122c573d6000803e3d6000fd5b60008281526020819052604090205482906001600160a01b031633146117045760405162461bcd60e51b815260206004820152602360248201527f4f6e6c7920667265656c616e6365722063616e2063616c6c207468697320666c60448201526237bb9760e91b60648201526084016102b8565b8260008060008381526020819052604090206004015460ff16600181111561172e5761172e612260565b1461173857600080fd5b84600080600083815260208190526040902060040154610100900460ff16600181111561176757611767612260565b1461177157600080fd5b6000878152602081905260409020805487919060ff60a01b1916600160a01b8360028111156117a2576117a2612260565b02179055506000878152602081905260408082208151610160810190925280546001600160a01b038116610120840190815283918390610140840190600160a01b900460ff1660028111156117f9576117f9612260565b600281111561180a5761180a612260565b9052508152604080518082019091526001830180546001600160a01b0381168352602093840193830190600160a01b900460ff16600281111561184f5761184f612260565b600281111561186057611860612260565b81525050815260200160028201805461187890612225565b80601f01602080910402602001604051908101604052809291908181526020018280546118a490612225565b80156118f15780601f106118c6576101008083540402835291602001916118f1565b820191906000526020600020905b8154815290600101906020018083116118d457829003601f168201915b505050918352505060038201546020820152600482015460409091019060ff16600181111561192257611922612260565b600181111561193357611933612260565b81526020016004820160019054906101000a900460ff16600181111561195b5761195b612260565b600181111561196c5761196c612260565b8152604080518082019091526005830180546001600160a01b0381168352602093840193830190600160a01b900460ff1660028111156119ae576119ae612260565b60028111156119bf576119bf612260565b90525081526006820154602082015260079091015460ff1615156040909101529050600081602001516020015160028111156119fd576119fd612260565b148015611a20575060008151602001516002811115611a1e57611a1e612260565b145b15611a635780515160608201516040516001600160a01b039092169181156108fc0291906000818181858888f193505050501580156111a2573d6000803e3d6000fd5b6001611633565b6001600160a01b038116600090815260016020908152604091829020805483518184028101840190945280845260609392830182828015611aca57602002820191906000526020600020905b815481526020019060010190808311611ab6575b50505050509050919050565b6001600160a01b038116600090815260026020908152604091829020805483518184028101840190945280845260609392830182828015611aca5760200282019190600052602060002090815481526020019060010190808311611ab65750505050509050919050565b828054611b4c90612225565b90600052602060002090601f016020900481019282611b6e5760008555611bb4565b82601f10611b8757805160ff1916838001178555611bb4565b82800160010185558215611bb4579182015b82811115611bb4578251825591602001919060010190611b99565b50611bc0929150611c64565b5090565b6040805161016081019091526000610120820181815261014083019190915281908152602001611c04604080518082019091526000808252602082015290565b8152602001606081526020016000815260200160006001811115611c2a57611c2a612260565b815260200160008152602001611c50604080518082019091526000808252602082015290565b815260006020820181905260409091015290565b5b80821115611bc05760008155600101611c65565b600082601f830112611c8a57600080fd5b813567ffffffffffffffff80821115611ca557611ca5612276565b604051601f8301601f19908116603f01168101908282118183101715611ccd57611ccd612276565b81604052838152866020858801011115611ce657600080fd5b836020870160208301376000602085830101528094505050505092915050565b600060208284031215611d1857600080fd5b8135611d238161229f565b9392505050565b60008060408385031215611d3d57600080fd5b8235611d488161229f565b946020939093013593505050565b600060208284031215611d6857600080fd5b5035919050565b60008060408385031215611d8257600080fd5b82359150602083013560038110611d9857600080fd5b809150509250929050565b60008060008060808587031215611db957600080fd5b84359350602085013567ffffffffffffffff811115611dd757600080fd5b611de387828801611c79565b935050604085013591506060850135611dfb8161229f565b939692955090935050565b600080600080600060a08688031215611e1e57600080fd5b85359450602086013567ffffffffffffffff811115611e3c57600080fd5b611e4888828901611c79565b945050604086013592506060860135611e608161229f565b91506080860135611e708161229f565b809150509295509295909350565b611e878161228c565b9052565b60038110611e8757611e87612260565b6000815180845260005b81811015611ec157602081850181015186830182015201611ea5565b81811115611ed3576000602083870101525b50601f01601f19169290920160200192915050565b8054600090600181811c9080831680611f0257607f831692505b6020808410821415611f2457634e487b7160e01b600052602260045260246000fd5b83885260208801828015611f3f5760018114611f5057611f7b565b60ff19871682528282019750611f7b565b60008981526020902060005b87811015611f7557815484820152908601908401611f5c565b83019850505b5050505050505092915050565b80516001600160a01b0316825260208082015190611fa890840182611e8b565b505050565b80546001600160a01b0381168352611fa86020840160a083901c60ff16611e8b565b6020808252825182820181905260009190848201906040850190845b8181101561200757835183529284019291840191600101611feb565b50909695505050505050565b60208082526027908201527f46756e647320617265206e6f7420657175616c20746f20617070726f7665642060408201526630b6b7bab73a1760c91b606082015260800190565b6000610180612069838d611f88565b612076604084018c611f88565b8060808401526120888184018b611e9b565b9150508760a083015261209a8761228c565b8660c08301526120a98661228c565b8560e08301526120bd610100830186611f88565b836101408301528215156101608301529a9950505050505050505050565b602081526120ed602082018351611f88565b600060208301516121016060840182611f88565b5060408301516101808060a085015261211e6101a0850183611e9b565b9150606085015160c0850152608085015161213c60e0860182611e7e565b5060a085015161010061215181870183611e7e565b60c08701519150612166610120870183611f88565b60e087015161016087015290950151151593019290925250919050565b602081526121946020820183611fad565b6121a46060820160018401611fad565b60006101808060a08401526121c06101a0840160028601611ee8565b600385015460c085015260048501546121df60e0860160ff8316611e7e565b6121f3610100860160ff8360081c16611e7e565b50612205610120850160058701611fad565b600685015461016085015260079094015460ff1615159201919091525090565b600181811c9082168061223957607f821691505b6020821081141561225a57634e487b7160e01b600052602260045260246000fd5b50919050565b634e487b7160e01b600052602160045260246000fd5b634e487b7160e01b600052604160045260246000fd5b6002811061229c5761229c612260565b50565b6001600160a01b038116811461229c57600080fdfea2646970667358221220c9d54a09a185c558775e7ee7741cbf33061a0cfa00f54ff3b4367e8fb344f78864736f6c63430008070033",
    "sourcePath": "/Users/akanksha/projects/EtheriumWorkshop/cryptopal/contracts/Freelancer.sol",
    "compiler": {
        "name": "solc",
        "version": "0.8.7+commit.e28d00a7"
    },
    "functionHashes": {
        "clientToContractId(address,uint256)": "04c8db5c",
        "clientVote(uint256,uint8)": "68886a2a",
        "contracts(uint256)": "474da79a",
        "freelancerToContractId(address,uint256)": "0fec528b",
        "freelancerVote(uint256,uint8)": "c64e9480",
        "fundWork(uint256,string,uint256,address)": "19597425",
        "fundWorkWithThirdParty(uint256,string,uint256,address,address)": "323dd29e",
        "getBalance()": "12065fe0",
        "getTask(uint256)": "1d65e77e",
        "getTaskForClient(address)": "e670ec3c",
        "getTaskForFreelancer(address)": "cd62a1ae",
        "thirdPartyVote(uint256,uint8)": "558955fb"
    },
    "gasEstimates": {
        "creation": {
            "codeDepositCost": "1787600",
            "executionCost": "1884",
            "totalCost": "1789484"
        },
        "external": {
            "clientToContractId(address,uint256)": "4728",
            "clientVote(uint256,uint8)": "infinite",
            "contracts(uint256)": "infinite",
            "freelancerToContractId(address,uint256)": "4750",
            "freelancerVote(uint256,uint8)": "infinite",
            "fundWork(uint256,string,uint256,address)": "infinite",
            "fundWorkWithThirdParty(uint256,string,uint256,address,address)": "infinite",
            "getBalance()": "2825",
            "getTask(uint256)": "infinite",
            "getTaskForClient(address)": "infinite",
            "getTaskForFreelancer(address)": "infinite",
            "thirdPartyVote(uint256,uint8)": "infinite"
        }
    }
}