{
    "contractName": "Freelancer",
    "sourceName": "contracts/Freelancer.sol",
    "abi": [
        {
            "inputs": [],
            "stateMutability": "nonpayable",
            "type": "constructor"
        },
        {
            "anonymous": false,
            "inputs": [],
            "name": "transferFunds",
            "type": "event"
        },
        {
            "anonymous": false,
            "inputs": [
                {
                    "components": [
                        {
                            "components": [
                                {
                                    "internalType": "address payable",
                                    "name": "addr",
                                    "type": "address"
                                },
                                {
                                    "internalType": "enum Freelancer.Vote",
                                    "name": "vote",
                                    "type": "uint8"
                                }
                            ],
                            "internalType": "struct Freelancer.Entity",
                            "name": "freelancer",
                            "type": "tuple"
                        },
                        {
                            "components": [
                                {
                                    "internalType": "address payable",
                                    "name": "addr",
                                    "type": "address"
                                },
                                {
                                    "internalType": "enum Freelancer.Vote",
                                    "name": "vote",
                                    "type": "uint8"
                                }
                            ],
                            "internalType": "struct Freelancer.Entity",
                            "name": "client",
                            "type": "tuple"
                        },
                        {
                            "internalType": "string",
                            "name": "description",
                            "type": "string"
                        },
                        {
                            "internalType": "uint256",
                            "name": "value",
                            "type": "uint256"
                        },
                        {
                            "internalType": "enum Freelancer.Status",
                            "name": "status",
                            "type": "uint8"
                        },
                        {
                            "internalType": "enum Freelancer.ConsensusType",
                            "name": "consensusType",
                            "type": "uint8"
                        },
                        {
                            "components": [
                                {
                                    "internalType": "address payable",
                                    "name": "addr",
                                    "type": "address"
                                },
                                {
                                    "internalType": "enum Freelancer.Vote",
                                    "name": "vote",
                                    "type": "uint8"
                                }
                            ],
                            "internalType": "struct Freelancer.Entity",
                            "name": "thirdParty",
                            "type": "tuple"
                        }
                    ],
                    "indexed": false,
                    "internalType": "struct Freelancer.Work",
                    "name": "work",
                    "type": "tuple"
                }
            ],
            "name": "workFunded",
            "type": "event"
        },
        {
            "inputs": [
                {
                    "internalType": "address",
                    "name": "",
                    "type": "address"
                }
            ],
            "name": "clientToContractId",
            "outputs": [
                {
                    "internalType": "uint256",
                    "name": "",
                    "type": "uint256"
                }
            ],
            "stateMutability": "view",
            "type": "function"
        },
        {
            "inputs": [
                {
                    "internalType": "uint256",
                    "name": "_id",
                    "type": "uint256"
                },
                {
                    "internalType": "enum Freelancer.Vote",
                    "name": "vote",
                    "type": "uint8"
                }
            ],
            "name": "clientVote",
            "outputs": [],
            "stateMutability": "nonpayable",
            "type": "function"
        },
        {
            "inputs": [
                {
                    "internalType": "uint256",
                    "name": "",
                    "type": "uint256"
                }
            ],
            "name": "contracts",
            "outputs": [
                {
                    "components": [
                        {
                            "internalType": "address payable",
                            "name": "addr",
                            "type": "address"
                        },
                        {
                            "internalType": "enum Freelancer.Vote",
                            "name": "vote",
                            "type": "uint8"
                        }
                    ],
                    "internalType": "struct Freelancer.Entity",
                    "name": "freelancer",
                    "type": "tuple"
                },
                {
                    "components": [
                        {
                            "internalType": "address payable",
                            "name": "addr",
                            "type": "address"
                        },
                        {
                            "internalType": "enum Freelancer.Vote",
                            "name": "vote",
                            "type": "uint8"
                        }
                    ],
                    "internalType": "struct Freelancer.Entity",
                    "name": "client",
                    "type": "tuple"
                },
                {
                    "internalType": "string",
                    "name": "description",
                    "type": "string"
                },
                {
                    "internalType": "uint256",
                    "name": "value",
                    "type": "uint256"
                },
                {
                    "internalType": "enum Freelancer.Status",
                    "name": "status",
                    "type": "uint8"
                },
                {
                    "internalType": "enum Freelancer.ConsensusType",
                    "name": "consensusType",
                    "type": "uint8"
                },
                {
                    "components": [
                        {
                            "internalType": "address payable",
                            "name": "addr",
                            "type": "address"
                        },
                        {
                            "internalType": "enum Freelancer.Vote",
                            "name": "vote",
                            "type": "uint8"
                        }
                    ],
                    "internalType": "struct Freelancer.Entity",
                    "name": "thirdParty",
                    "type": "tuple"
                }
            ],
            "stateMutability": "view",
            "type": "function"
        },
        {
            "inputs": [
                {
                    "internalType": "uint256",
                    "name": "_id",
                    "type": "uint256"
                },
                {
                    "internalType": "enum Freelancer.Vote",
                    "name": "vote",
                    "type": "uint8"
                }
            ],
            "name": "freelancerVote",
            "outputs": [],
            "stateMutability": "nonpayable",
            "type": "function"
        },
        {
            "inputs": [
                {
                    "internalType": "address",
                    "name": "",
                    "type": "address"
                }
            ],
            "name": "freelanderToContractId",
            "outputs": [
                {
                    "internalType": "uint256",
                    "name": "",
                    "type": "uint256"
                }
            ],
            "stateMutability": "view",
            "type": "function"
        },
        {
            "inputs": [
                {
                    "internalType": "string",
                    "name": "_description",
                    "type": "string"
                },
                {
                    "internalType": "uint256",
                    "name": "_value",
                    "type": "uint256"
                },
                {
                    "internalType": "address payable",
                    "name": "_freelancer",
                    "type": "address"
                }
            ],
            "name": "fundWork",
            "outputs": [],
            "stateMutability": "payable",
            "type": "function"
        },
        {
            "inputs": [
                {
                    "internalType": "string",
                    "name": "_description",
                    "type": "string"
                },
                {
                    "internalType": "uint256",
                    "name": "_value",
                    "type": "uint256"
                },
                {
                    "internalType": "address payable",
                    "name": "_freelancer",
                    "type": "address"
                },
                {
                    "internalType": "address payable",
                    "name": "_thirdParty",
                    "type": "address"
                }
            ],
            "name": "fundWork",
            "outputs": [],
            "stateMutability": "payable",
            "type": "function"
        },
        {
            "inputs": [
                {
                    "internalType": "uint256",
                    "name": "_id",
                    "type": "uint256"
                },
                {
                    "internalType": "enum Freelancer.Vote",
                    "name": "vote",
                    "type": "uint8"
                }
            ],
            "name": "thirdPartyVote",
            "outputs": [],
            "stateMutability": "nonpayable",
            "type": "function"
        }
    ],
    "bytecode": "608060405234801561001057600080fd5b50600080556119eb806100246000396000f3fe60806040526004361061007b5760003560e01c8063b3d8487d1161004e578063b3d8487d14610139578063c64e948014610166578063caac51ba14610186578063d07a6eae1461019957600080fd5b8063474da79a14610080578063558955fb146100bc57806368886a2a146100de578063a3aa010d146100fe575b600080fd5b34801561008c57600080fd5b506100a061009b36600461168f565b6101ac565b6040516100b39796959493929190611747565b60405180910390f35b3480156100c857600080fd5b506100dc6100d73660046116a8565b61035f565b005b3480156100ea57600080fd5b506100dc6100f93660046116a8565b61072e565b34801561010a57600080fd5b5061012b6101193660046115a4565b60026020526000908152604090205481565b6040519081526020016100b3565b34801561014557600080fd5b5061012b6101543660046115a4565b60036020526000908152604090205481565b34801561017257600080fd5b506100dc6101813660046116a8565b610afb565b6100dc6101943660046115c8565b610e96565b6100dc6101a7366004611623565b61113d565b600160209081526000918252604091829020825180840190935280546001600160a01b0381168452909291839190830190600160a01b900460ff1660028111156101f8576101f8611971565b600281111561020957610209611971565b905250604080518082019091526001830180546001600160a01b03811683529293926020830190600160a01b900460ff16600281111561024b5761024b611971565b600281111561025c5761025c611971565b81525050908060020180546102709061190d565b80601f016020809104026020016040519081016040528092919081815260200182805461029c9061190d565b80156102e95780601f106102be576101008083540402835291602001916102e9565b820191906000526020600020905b8154815290600101906020018083116102cc57829003601f168201915b5050505060038301546004840154604080518082019091526005860180546001600160a01b03811683529596939560ff8085169650610100909404841694936020840191600160a01b900416600281111561034657610346611971565b600281111561035757610357611971565b905250905087565b60008281526001602052604090206005015482906001600160a01b0316331461038757600080fd5b8260008060008381526001602081905260409091206004015460ff16908111156103b3576103b3611971565b146103bd57600080fd5b84600180600083815260016020819052604090912060040154610100900460ff16908111156103ee576103ee611971565b146103f857600080fd5b6000878152600160205260408082208151610120810190925280546001600160a01b03811660e0840190815283918390610100840190600160a01b900460ff16600281111561044957610449611971565b600281111561045a5761045a611971565b9052508152604080518082019091526001830180546001600160a01b0381168352602093840193830190600160a01b900460ff16600281111561049f5761049f611971565b60028111156104b0576104b0611971565b8152505081526020016002820180546104c89061190d565b80601f01602080910402602001604051908101604052809291908181526020018280546104f49061190d565b80156105415780601f1061051657610100808354040283529160200191610541565b820191906000526020600020905b81548152906001019060200180831161052457829003601f168201915b505050918352505060038201546020820152600482015460409091019060ff16600181111561057257610572611971565b600181111561058357610583611971565b81526020016004820160019054906101000a900460ff1660018111156105ab576105ab611971565b60018111156105bc576105bc611971565b8152604080518082019091526005830180546001600160a01b0381168352602093840193830190600160a01b900460ff1660028111156105fe576105fe611971565b600281111561060f5761060f611971565b9052509052509050600087600281111561062b5761062b611971565b141561069e5780515160608201516040516001600160a01b039092169181156108fc0291906000818181858888f1935050505015801561066f573d6000803e3d6000fd5b506040517f3c68eb814466095d6413c3d54053314f3612010356401ad9ab12567846d9625490600090a1610724565b60018760028111156106b2576106b2611971565b14156107245760208101515160608201516040516001600160a01b039092169181156108fc0291906000818181858888f193505050501580156106f9573d6000803e3d6000fd5b506040517f3c68eb814466095d6413c3d54053314f3612010356401ad9ab12567846d9625490600090a15b5050505050505050565b6000828152600160208190526040909120015482906001600160a01b0316331461075757600080fd5b8260008060008381526001602081905260409091206004015460ff169081111561078357610783611971565b1461078d57600080fd5b84600080600083815260016020819052604090912060040154610100900460ff16908111156107be576107be611971565b146107c857600080fd5b6000878152600160205260408082208151610120810190925280546001600160a01b03811660e0840190815283918390610100840190600160a01b900460ff16600281111561081957610819611971565b600281111561082a5761082a611971565b9052508152604080518082019091526001830180546001600160a01b0381168352602093840193830190600160a01b900460ff16600281111561086f5761086f611971565b600281111561088057610880611971565b8152505081526020016002820180546108989061190d565b80601f01602080910402602001604051908101604052809291908181526020018280546108c49061190d565b80156109115780601f106108e657610100808354040283529160200191610911565b820191906000526020600020905b8154815290600101906020018083116108f457829003601f168201915b505050918352505060038201546020820152600482015460409091019060ff16600181111561094257610942611971565b600181111561095357610953611971565b81526020016004820160019054906101000a900460ff16600181111561097b5761097b611971565b600181111561098c5761098c611971565b8152604080518082019091526005830180546001600160a01b0381168352602093840193830190600160a01b900460ff1660028111156109ce576109ce611971565b60028111156109df576109df611971565b90525090525060208082015191925001876002811115610a0157610a01611971565b90816002811115610a1457610a14611971565b90525060008160200151602001516002811115610a3357610a33611971565b1415610a775780515160608201516040516001600160a01b039092169181156108fc0291906000818181858888f1935050505015801561066f573d6000803e3d6000fd5b60018160200151602001516002811115610a9357610a93611971565b148015610ab5575060015b81516020015160028111156106b2576106b2611971565b156107245760208101515160608201516040516001600160a01b039092169181156108fc0291906000818181858888f193505050501580156106f9573d6000803e3d6000fd5b60008281526001602052604090205482906001600160a01b03163314610b2057600080fd5b8260008060008381526001602081905260409091206004015460ff1690811115610b4c57610b4c611971565b14610b5657600080fd5b84600080600083815260016020819052604090912060040154610100900460ff1690811115610b8757610b87611971565b14610b9157600080fd5b6000878152600160205260408082208151610120810190925280546001600160a01b03811660e0840190815283918390610100840190600160a01b900460ff166002811115610be257610be2611971565b6002811115610bf357610bf3611971565b9052508152604080518082019091526001830180546001600160a01b0381168352602093840193830190600160a01b900460ff166002811115610c3857610c38611971565b6002811115610c4957610c49611971565b815250508152602001600282018054610c619061190d565b80601f0160208091040260200160405190810160405280929190818152602001828054610c8d9061190d565b8015610cda5780601f10610caf57610100808354040283529160200191610cda565b820191906000526020600020905b815481529060010190602001808311610cbd57829003601f168201915b505050918352505060038201546020820152600482015460409091019060ff166001811115610d0b57610d0b611971565b6001811115610d1c57610d1c611971565b81526020016004820160019054906101000a900460ff166001811115610d4457610d44611971565b6001811115610d5557610d55611971565b8152604080518082019091526005830180546001600160a01b0381168352602093840193830190600160a01b900460ff166002811115610d9757610d97611971565b6002811115610da857610da8611971565b90525090525060208082015191925001876002811115610dca57610dca611971565b90816002811115610ddd57610ddd611971565b9052508051602001876002811115610df757610df7611971565b90816002811115610e0a57610e0a611971565b90525060008160200151602001516002811115610e2957610e29611971565b148015610e4c575060008151602001516002811115610e4a57610e4a611971565b145b15610e8f5780515160608201516040516001600160a01b039092169181156108fc0291906000818181858888f1935050505015801561066f573d6000803e3d6000fd5b6001610a9e565b8134818114610ea457600080fd5b6040805180820182526001600160a01b0385168152600260208083018290528351808501855233815280820192909252835160e08101855283815290810182905292830188905260608301879052909160808101600081526000602080830182905260408051808201825283815260028184018190529482015282548352600182529091208351805182546001600160a01b039091166001600160a01b0319821681178455938201519294919385939284926001600160a81b03191690911790600160a01b908490811115610f7b57610f7b611971565b0217905550505060208281015180516001840180546001600160a01b031981166001600160a01b03909316928317825593830151929390929183916001600160a81b03191617600160a01b836002811115610fd857610fd8611971565b0217905550505060408201518051610ffa91600284019160209091019061147e565b5060608201516003820155608082015160048201805460ff19166001838181111561102757611027611971565b021790555060a082015160048201805461ff00191661010083600181111561105157611051611971565b021790555060c082015180516005830180546001600160a01b031981166001600160a01b0390931692831782556020840151919283916001600160a81b03191617600160a01b8360028111156110a9576110a9611971565b021790555050600080546001600160a01b038a16825260026020908152604080842083905533845260038252808420839055918352600190529081902090517f1b8ca9d6d6a53ae2ccaea11da256089d3ffa1b5c99331355e14022637ed7afb4945061111893509091506117f6565b60405180910390a160008054908061112f83611948565b919050555050505050505050565b823481811461114b57600080fd5b836001600160a01b0316836001600160a01b03161415801561117657506001600160a01b0383163314155b6111e15760405162461bcd60e51b815260206004820152603260248201527f54686520636c69656e74206f7220667265656c616e6365722063616e6e6f742060448201527162652074686520746869726420706172747960701b606482015260840160405180910390fd5b6040805180820182526001600160a01b0386811682526002602080840182905284518086018652338152808201839052855160e0810187528581528083018290528087018d9052606081018c905260006080820152600160a082015286518088019097529389168652939460c0840192909182015290526000805481526001602090815260409091208251805182546001600160a01b031981166001600160a01b03909216918217845593820151929391928492909183916001600160a81b03191617600160a01b8360028111156112bb576112bb611971565b0217905550505060208281015180516001840180546001600160a01b031981166001600160a01b03909316928317825593830151929390929183916001600160a81b03191617600160a01b83600281111561131857611318611971565b021790555050506040820151805161133a91600284019160209091019061147e565b5060608201516003820155608082015160048201805460ff19166001838181111561136757611367611971565b021790555060a082015160048201805461ff00191661010083600181111561139157611391611971565b021790555060c082015180516005830180546001600160a01b031981166001600160a01b0390931692831782556020840151919283916001600160a81b03191617600160a01b8360028111156113e9576113e9611971565b021790555050600080546001600160a01b038b16825260026020908152604080842083905533845260038252808420839055918352600190529081902090517f1b8ca9d6d6a53ae2ccaea11da256089d3ffa1b5c99331355e14022637ed7afb4945061145893509091506117f6565b60405180910390a160008054908061146f83611948565b91905055505050505050505050565b82805461148a9061190d565b90600052602060002090601f0160209004810192826114ac57600085556114f2565b82601f106114c557805160ff19168380011785556114f2565b828001600101855582156114f2579182015b828111156114f25782518255916020019190600101906114d7565b506114fe929150611502565b5090565b5b808211156114fe5760008155600101611503565b600082601f83011261152857600080fd5b813567ffffffffffffffff8082111561154357611543611987565b604051601f8301601f19908116603f0116810190828211818310171561156b5761156b611987565b8160405283815286602085880101111561158457600080fd5b836020870160208301376000602085830101528094505050505092915050565b6000602082840312156115b657600080fd5b81356115c18161199d565b9392505050565b6000806000606084860312156115dd57600080fd5b833567ffffffffffffffff8111156115f457600080fd5b61160086828701611517565b9350506020840135915060408401356116188161199d565b809150509250925092565b6000806000806080858703121561163957600080fd5b843567ffffffffffffffff81111561165057600080fd5b61165c87828801611517565b9450506020850135925060408501356116748161199d565b915060608501356116848161199d565b939692955090935050565b6000602082840312156116a157600080fd5b5035919050565b600080604083850312156116bb57600080fd5b823591506020830135600381106116d157600080fd5b809150509250929050565b600281106116ec576116ec611971565b9052565b600381106116ec576116ec611971565b80516001600160a01b0316825260208082015190611720908401826116f0565b505050565b80546001600160a01b03811683526117206020840160a083901c60ff166116f0565b6000610140611756838b611700565b611763604084018a611700565b80608084015287518082850152600091505b80821015611797576020828a0101516101608386010152602082019150611775565b808211156117aa57600061016082860101525b60a08401889052601f01601f191683016101600191506117cf905060c08301866116dc565b6117dc60e08301856116dc565b6117ea610100830184611700565b98975050505050505050565b6000602080835261180981840185611725565b600161181a60608501828701611725565b61014060a085015260028501805460009080841c8482168061183d57607f821691505b86821081141561185b57634e487b7160e01b84526022600452602484fd5b6101608901829052610180890181801561187c576001811461188d576118b8565b60ff198516825288820195506118b8565b60008781526020902060005b858110156118b257815484820152908901908a01611899565b83019650505b5050505050600387015460c0870152600487015493506118de60e0870160ff86166116dc565b6118f2610100870160ff8660081c166116dc565b611903610120870160058901611725565b9695505050505050565b600181811c9082168061192157607f821691505b6020821081141561194257634e487b7160e01b600052602260045260246000fd5b50919050565b600060001982141561196a57634e487b7160e01b600052601160045260246000fd5b5060010190565b634e487b7160e01b600052602160045260246000fd5b634e487b7160e01b600052604160045260246000fd5b6001600160a01b03811681146119b257600080fd5b5056fea2646970667358221220c1d797546e77c9b9e9f50ebc4b518cc1f2b7eed6211a6167ef0e5155f381348e64736f6c63430008070033",
    "sourcePath": "/Users/dsinghvi/Documents/faucet-Dapp/contracts/Freelancer.sol",
    "compiler": {
        "name": "solc",
        "version": "0.8.7+commit.e28d00a7"
    },
    "functionHashes": {
        "clientToContractId(address)": "b3d8487d",
        "clientVote(uint256,uint8)": "68886a2a",
        "contracts(uint256)": "474da79a",
        "freelancerVote(uint256,uint8)": "c64e9480",
        "freelanderToContractId(address)": "a3aa010d",
        "fundWork(string,uint256,address)": "caac51ba",
        "fundWork(string,uint256,address,address)": "d07a6eae",
        "thirdPartyVote(uint256,uint8)": "558955fb"
    },
    "gasEstimates": {
        "creation": {
            "codeDepositCost": "1327000",
            "executionCost": "6389",
            "totalCost": "1333389"
        },
        "external": {
            "clientToContractId(address)": "2513",
            "clientVote(uint256,uint8)": "infinite",
            "contracts(uint256)": "infinite",
            "freelancerVote(uint256,uint8)": "infinite",
            "freelanderToContractId(address)": "2580",
            "fundWork(string,uint256,address)": "infinite",
            "fundWork(string,uint256,address,address)": "infinite",
            "thirdPartyVote(uint256,uint8)": "infinite"
        }
    }
}