{
    "contractName": "Freelancer",
    "abi": [
        {
            "inputs": [],
            "stateMutability": "nonpayable",
            "type": "constructor"
        },
        {
            "anonymous": false,
            "inputs": [],
            "name": "transferFunds",
            "type": "event"
        },
        {
            "anonymous": false,
            "inputs": [
                {
                    "components": [
                        {
                            "components": [
                                {
                                    "internalType": "address payable",
                                    "name": "addr",
                                    "type": "address"
                                },
                                {
                                    "internalType": "enum Freelancer.Vote",
                                    "name": "vote",
                                    "type": "uint8"
                                }
                            ],
                            "internalType": "struct Freelancer.Entity",
                            "name": "freelancer",
                            "type": "tuple"
                        },
                        {
                            "components": [
                                {
                                    "internalType": "address payable",
                                    "name": "addr",
                                    "type": "address"
                                },
                                {
                                    "internalType": "enum Freelancer.Vote",
                                    "name": "vote",
                                    "type": "uint8"
                                }
                            ],
                            "internalType": "struct Freelancer.Entity",
                            "name": "client",
                            "type": "tuple"
                        },
                        {
                            "internalType": "string",
                            "name": "description",
                            "type": "string"
                        },
                        {
                            "internalType": "uint256",
                            "name": "value",
                            "type": "uint256"
                        },
                        {
                            "internalType": "enum Freelancer.Status",
                            "name": "status",
                            "type": "uint8"
                        },
                        {
                            "internalType": "enum Freelancer.ConsensusType",
                            "name": "consensusType",
                            "type": "uint8"
                        },
                        {
                            "components": [
                                {
                                    "internalType": "address payable",
                                    "name": "addr",
                                    "type": "address"
                                },
                                {
                                    "internalType": "enum Freelancer.Vote",
                                    "name": "vote",
                                    "type": "uint8"
                                }
                            ],
                            "internalType": "struct Freelancer.Entity",
                            "name": "thirdParty",
                            "type": "tuple"
                        }
                    ],
                    "indexed": false,
                    "internalType": "struct Freelancer.Work",
                    "name": "work",
                    "type": "tuple"
                }
            ],
            "name": "workFunded",
            "type": "event"
        },
        {
            "inputs": [
                {
                    "internalType": "address",
                    "name": "",
                    "type": "address"
                }
            ],
            "name": "clientToContractId",
            "outputs": [
                {
                    "internalType": "uint256",
                    "name": "",
                    "type": "uint256"
                }
            ],
            "stateMutability": "view",
            "type": "function"
        },
        {
            "inputs": [
                {
                    "internalType": "uint256",
                    "name": "_id",
                    "type": "uint256"
                },
                {
                    "internalType": "enum Freelancer.Vote",
                    "name": "vote",
                    "type": "uint8"
                }
            ],
            "name": "clientVote",
            "outputs": [],
            "stateMutability": "nonpayable",
            "type": "function"
        },
        {
            "inputs": [
                {
                    "internalType": "uint256",
                    "name": "",
                    "type": "uint256"
                }
            ],
            "name": "contracts",
            "outputs": [
                {
                    "components": [
                        {
                            "internalType": "address payable",
                            "name": "addr",
                            "type": "address"
                        },
                        {
                            "internalType": "enum Freelancer.Vote",
                            "name": "vote",
                            "type": "uint8"
                        }
                    ],
                    "internalType": "struct Freelancer.Entity",
                    "name": "freelancer",
                    "type": "tuple"
                },
                {
                    "components": [
                        {
                            "internalType": "address payable",
                            "name": "addr",
                            "type": "address"
                        },
                        {
                            "internalType": "enum Freelancer.Vote",
                            "name": "vote",
                            "type": "uint8"
                        }
                    ],
                    "internalType": "struct Freelancer.Entity",
                    "name": "client",
                    "type": "tuple"
                },
                {
                    "internalType": "string",
                    "name": "description",
                    "type": "string"
                },
                {
                    "internalType": "uint256",
                    "name": "value",
                    "type": "uint256"
                },
                {
                    "internalType": "enum Freelancer.Status",
                    "name": "status",
                    "type": "uint8"
                },
                {
                    "internalType": "enum Freelancer.ConsensusType",
                    "name": "consensusType",
                    "type": "uint8"
                },
                {
                    "components": [
                        {
                            "internalType": "address payable",
                            "name": "addr",
                            "type": "address"
                        },
                        {
                            "internalType": "enum Freelancer.Vote",
                            "name": "vote",
                            "type": "uint8"
                        }
                    ],
                    "internalType": "struct Freelancer.Entity",
                    "name": "thirdParty",
                    "type": "tuple"
                }
            ],
            "stateMutability": "view",
            "type": "function"
        },
        {
            "inputs": [
                {
                    "internalType": "uint256",
                    "name": "_id",
                    "type": "uint256"
                },
                {
                    "internalType": "enum Freelancer.Vote",
                    "name": "vote",
                    "type": "uint8"
                }
            ],
            "name": "freelancerVote",
            "outputs": [],
            "stateMutability": "nonpayable",
            "type": "function"
        },
        {
            "inputs": [
                {
                    "internalType": "address",
                    "name": "",
                    "type": "address"
                }
            ],
            "name": "freelanderToContractId",
            "outputs": [
                {
                    "internalType": "uint256",
                    "name": "",
                    "type": "uint256"
                }
            ],
            "stateMutability": "view",
            "type": "function"
        },
        {
            "inputs": [
                {
                    "internalType": "string",
                    "name": "_description",
                    "type": "string"
                },
                {
                    "internalType": "uint256",
                    "name": "_value",
                    "type": "uint256"
                },
                {
                    "internalType": "address payable",
                    "name": "_freelancer",
                    "type": "address"
                }
            ],
            "name": "fundWork",
            "outputs": [],
            "stateMutability": "payable",
            "type": "function"
        },
        {
            "inputs": [
                {
                    "internalType": "uint256",
                    "name": "_id",
                    "type": "uint256"
                },
                {
                    "internalType": "enum Freelancer.Vote",
                    "name": "vote",
                    "type": "uint8"
                }
            ],
            "name": "thirdPartyVote",
            "outputs": [],
            "stateMutability": "nonpayable",
            "type": "function"
        }
    ],
    "bytecode": "608060405234801561001057600080fd5b5060008055611613806100246000396000f3fe6080604052600436106100705760003560e01c8063a3aa010d1161004e578063a3aa010d146100f3578063b3d8487d1461012e578063c64e94801461015b578063caac51ba1461017b57600080fd5b8063474da79a14610075578063558955fb146100b157806368886a2a146100d3575b600080fd5b34801561008157600080fd5b506100956100903660046112b7565b61018e565b6040516100a8979695949392919061136f565b60405180910390f35b3480156100bd57600080fd5b506100d16100cc3660046112d0565b610341565b005b3480156100df57600080fd5b506100d16100ee3660046112d0565b610710565b3480156100ff57600080fd5b5061012061010e3660046111c8565b60026020526000908152604090205481565b6040519081526020016100a8565b34801561013a57600080fd5b506101206101493660046111c8565b60036020526000908152604090205481565b34801561016757600080fd5b506100d16101763660046112d0565b610add565b6100d16101893660046111ec565b610e78565b600160209081526000918252604091829020825180840190935280546001600160a01b0381168452909291839190830190600160a01b900460ff1660028111156101da576101da611599565b60028111156101eb576101eb611599565b905250604080518082019091526001830180546001600160a01b03811683529293926020830190600160a01b900460ff16600281111561022d5761022d611599565b600281111561023e5761023e611599565b815250509080600201805461025290611535565b80601f016020809104026020016040519081016040528092919081815260200182805461027e90611535565b80156102cb5780601f106102a0576101008083540402835291602001916102cb565b820191906000526020600020905b8154815290600101906020018083116102ae57829003601f168201915b5050505060038301546004840154604080518082019091526005860180546001600160a01b03811683529596939560ff8085169650610100909404841694936020840191600160a01b900416600281111561032857610328611599565b600281111561033957610339611599565b905250905087565b60008281526001602052604090206005015482906001600160a01b0316331461036957600080fd5b8260008060008381526001602081905260409091206004015460ff169081111561039557610395611599565b1461039f57600080fd5b84600180600083815260016020819052604090912060040154610100900460ff16908111156103d0576103d0611599565b146103da57600080fd5b6000878152600160205260408082208151610120810190925280546001600160a01b03811660e0840190815283918390610100840190600160a01b900460ff16600281111561042b5761042b611599565b600281111561043c5761043c611599565b9052508152604080518082019091526001830180546001600160a01b0381168352602093840193830190600160a01b900460ff16600281111561048157610481611599565b600281111561049257610492611599565b8152505081526020016002820180546104aa90611535565b80601f01602080910402602001604051908101604052809291908181526020018280546104d690611535565b80156105235780601f106104f857610100808354040283529160200191610523565b820191906000526020600020905b81548152906001019060200180831161050657829003601f168201915b505050918352505060038201546020820152600482015460409091019060ff16600181111561055457610554611599565b600181111561056557610565611599565b81526020016004820160019054906101000a900460ff16600181111561058d5761058d611599565b600181111561059e5761059e611599565b8152604080518082019091526005830180546001600160a01b0381168352602093840193830190600160a01b900460ff1660028111156105e0576105e0611599565b60028111156105f1576105f1611599565b9052509052509050600087600281111561060d5761060d611599565b14156106805780515160608201516040516001600160a01b039092169181156108fc0291906000818181858888f19350505050158015610651573d6000803e3d6000fd5b506040517f3c68eb814466095d6413c3d54053314f3612010356401ad9ab12567846d9625490600090a1610706565b600187600281111561069457610694611599565b14156107065760208101515160608201516040516001600160a01b039092169181156108fc0291906000818181858888f193505050501580156106db573d6000803e3d6000fd5b506040517f3c68eb814466095d6413c3d54053314f3612010356401ad9ab12567846d9625490600090a15b5050505050505050565b6000828152600160208190526040909120015482906001600160a01b0316331461073957600080fd5b8260008060008381526001602081905260409091206004015460ff169081111561076557610765611599565b1461076f57600080fd5b84600080600083815260016020819052604090912060040154610100900460ff16908111156107a0576107a0611599565b146107aa57600080fd5b6000878152600160205260408082208151610120810190925280546001600160a01b03811660e0840190815283918390610100840190600160a01b900460ff1660028111156107fb576107fb611599565b600281111561080c5761080c611599565b9052508152604080518082019091526001830180546001600160a01b0381168352602093840193830190600160a01b900460ff16600281111561085157610851611599565b600281111561086257610862611599565b81525050815260200160028201805461087a90611535565b80601f01602080910402602001604051908101604052809291908181526020018280546108a690611535565b80156108f35780601f106108c8576101008083540402835291602001916108f3565b820191906000526020600020905b8154815290600101906020018083116108d657829003601f168201915b505050918352505060038201546020820152600482015460409091019060ff16600181111561092457610924611599565b600181111561093557610935611599565b81526020016004820160019054906101000a900460ff16600181111561095d5761095d611599565b600181111561096e5761096e611599565b8152604080518082019091526005830180546001600160a01b0381168352602093840193830190600160a01b900460ff1660028111156109b0576109b0611599565b60028111156109c1576109c1611599565b905250905250602080820151919250018760028111156109e3576109e3611599565b908160028111156109f6576109f6611599565b90525060008160200151602001516002811115610a1557610a15611599565b1415610a595780515160608201516040516001600160a01b039092169181156108fc0291906000818181858888f19350505050158015610651573d6000803e3d6000fd5b60018160200151602001516002811115610a7557610a75611599565b148015610a97575060015b815160200151600281111561069457610694611599565b156107065760208101515160608201516040516001600160a01b039092169181156108fc0291906000818181858888f193505050501580156106db573d6000803e3d6000fd5b60008281526001602052604090205482906001600160a01b03163314610b0257600080fd5b8260008060008381526001602081905260409091206004015460ff1690811115610b2e57610b2e611599565b14610b3857600080fd5b84600080600083815260016020819052604090912060040154610100900460ff1690811115610b6957610b69611599565b14610b7357600080fd5b6000878152600160205260408082208151610120810190925280546001600160a01b03811660e0840190815283918390610100840190600160a01b900460ff166002811115610bc457610bc4611599565b6002811115610bd557610bd5611599565b9052508152604080518082019091526001830180546001600160a01b0381168352602093840193830190600160a01b900460ff166002811115610c1a57610c1a611599565b6002811115610c2b57610c2b611599565b815250508152602001600282018054610c4390611535565b80601f0160208091040260200160405190810160405280929190818152602001828054610c6f90611535565b8015610cbc5780601f10610c9157610100808354040283529160200191610cbc565b820191906000526020600020905b815481529060010190602001808311610c9f57829003601f168201915b505050918352505060038201546020820152600482015460409091019060ff166001811115610ced57610ced611599565b6001811115610cfe57610cfe611599565b81526020016004820160019054906101000a900460ff166001811115610d2657610d26611599565b6001811115610d3757610d37611599565b8152604080518082019091526005830180546001600160a01b0381168352602093840193830190600160a01b900460ff166002811115610d7957610d79611599565b6002811115610d8a57610d8a611599565b90525090525060208082015191925001876002811115610dac57610dac611599565b90816002811115610dbf57610dbf611599565b9052508051602001876002811115610dd957610dd9611599565b90816002811115610dec57610dec611599565b90525060008160200151602001516002811115610e0b57610e0b611599565b148015610e2e575060008151602001516002811115610e2c57610e2c611599565b145b15610e715780515160608201516040516001600160a01b039092169181156108fc0291906000818181858888f19350505050158015610651573d6000803e3d6000fd5b6001610a80565b8134818114610e8657600080fd5b6040805180820182526001600160a01b0385168152600260208083018290528351808501855233815280820192909252835160e08101855283815290810182905292830188905260608301879052909160808101600081526000602080830182905260408051808201825283815260028184018190529482015282548352600182529091208351805182546001600160a01b039091166001600160a01b0319821681178455938201519294919385939284926001600160a81b03191690911790600160a01b908490811115610f5d57610f5d611599565b0217905550505060208281015180516001840180546001600160a01b031981166001600160a01b03909316928317825593830151929390929183916001600160a81b03191617600160a01b836002811115610fba57610fba611599565b0217905550505060408201518051610fdc91600284019160209091019061111f565b5060608201516003820155608082015160048201805460ff19166001838181111561100957611009611599565b021790555060a082015160048201805461ff00191661010083600181111561103357611033611599565b021790555060c082015180516005830180546001600160a01b031981166001600160a01b0390931692831782556020840151919283916001600160a81b03191617600160a01b83600281111561108b5761108b611599565b021790555050600080546001600160a01b038a16825260026020908152604080842083905533845260038252808420839055918352600190529081902090517f1b8ca9d6d6a53ae2ccaea11da256089d3ffa1b5c99331355e14022637ed7afb494506110fa935090915061141e565b60405180910390a160008054908061111183611570565b919050555050505050505050565b82805461112b90611535565b90600052602060002090601f01602090048101928261114d5760008555611193565b82601f1061116657805160ff1916838001178555611193565b82800160010185558215611193579182015b82811115611193578251825591602001919060010190611178565b5061119f9291506111a3565b5090565b5b8082111561119f57600081556001016111a4565b80356111c3816115c5565b919050565b6000602082840312156111da57600080fd5b81356111e5816115c5565b9392505050565b60008060006060848603121561120157600080fd5b833567ffffffffffffffff8082111561121957600080fd5b818601915086601f83011261122d57600080fd5b81358181111561123f5761123f6115af565b604051601f8201601f19908116603f01168101908382118183101715611267576112676115af565b8160405282815289602084870101111561128057600080fd5b826020860160208301376000602084830101528097505050505050602084013591506112ae604085016111b8565b90509250925092565b6000602082840312156112c957600080fd5b5035919050565b600080604083850312156112e357600080fd5b823591506020830135600381106112f957600080fd5b809150509250929050565b6002811061131457611314611599565b9052565b6003811061131457611314611599565b80516001600160a01b031682526020808201519061134890840182611318565b505050565b80546001600160a01b03811683526113486020840160a083901c60ff16611318565b600061014061137e838b611328565b61138b604084018a611328565b80608084015287518082850152600091505b808210156113bf576020828a010151610160838601015260208201915061139d565b808211156113d257600061016082860101525b60a08401889052601f01601f191683016101600191506113f7905060c0830186611304565b61140460e0830185611304565b611412610100830184611328565b98975050505050505050565b600060208083526114318184018561134d565b60016114426060850182870161134d565b61014060a085015260028501805460009080841c8482168061146557607f821691505b86821081141561148357634e487b7160e01b84526022600452602484fd5b610160890182905261018089018180156114a457600181146114b5576114e0565b60ff198516825288820195506114e0565b60008781526020902060005b858110156114da57815484820152908901908a016114c1565b83019650505b5050505050600387015460c08701526004870154935061150660e0870160ff8616611304565b61151a610100870160ff8660081c16611304565b61152b61012087016005890161134d565b9695505050505050565b600181811c9082168061154957607f821691505b6020821081141561156a57634e487b7160e01b600052602260045260246000fd5b50919050565b600060001982141561159257634e487b7160e01b600052601160045260246000fd5b5060010190565b634e487b7160e01b600052602160045260246000fd5b634e487b7160e01b600052604160045260246000fd5b6001600160a01b03811681146115da57600080fd5b5056fea2646970667358221220e2579e191bf86693fabbab1439b344cc332118591996fab67679680f9c2ca3c564736f6c63430008070033",
    "sourcePath": "/Users/dsinghvi/Documents/faucet-Dapp/contracts/Freelancer.sol",
    "compiler": {
        "name": "solc",
        "version": "0.8.7+commit.e28d00a7"
    },
    "functionHashes": {
        "clientToContractId(address)": "b3d8487d",
        "clientVote(uint256,uint8)": "68886a2a",
        "contracts(uint256)": "474da79a",
        "freelancerVote(uint256,uint8)": "c64e9480",
        "freelanderToContractId(address)": "a3aa010d",
        "fundWork(string,uint256,address)": "caac51ba",
        "thirdPartyVote(uint256,uint8)": "558955fb"
    },
    "gasEstimates": {
        "creation": {
            "codeDepositCost": "1130200",
            "executionCost": "6180",
            "totalCost": "1136380"
        },
        "external": {
            "clientToContractId(address)": "2535",
            "clientVote(uint256,uint8)": "infinite",
            "contracts(uint256)": "infinite",
            "freelancerVote(uint256,uint8)": "infinite",
            "freelanderToContractId(address)": "2513",
            "fundWork(string,uint256,address)": "infinite",
            "thirdPartyVote(uint256,uint8)": "infinite"
        }
    }
}