{
    "_format": "hh-sol-artifact-1",
    "contractName": "Freelancer",
    "sourceName": "contracts/Freelancer.sol",
    "abi": [
        {
            "inputs": [
                {
                    "internalType": "address",
                    "name": "ERC20TokenAddress",
                    "type": "address"
                }
            ],
            "stateMutability": "nonpayable",
            "type": "constructor"
        },
        {
            "anonymous": false,
            "inputs": [],
            "name": "transferFunds",
            "type": "event"
        },
        {
            "anonymous": false,
            "inputs": [
                {
                    "components": [
                        {
                            "components": [
                                {
                                    "internalType": "address payable",
                                    "name": "addr",
                                    "type": "address"
                                },
                                {
                                    "internalType": "enum Freelancer.Vote",
                                    "name": "vote",
                                    "type": "uint8"
                                }
                            ],
                            "internalType": "struct Freelancer.Entity",
                            "name": "freelancer",
                            "type": "tuple"
                        },
                        {
                            "components": [
                                {
                                    "internalType": "address payable",
                                    "name": "addr",
                                    "type": "address"
                                },
                                {
                                    "internalType": "enum Freelancer.Vote",
                                    "name": "vote",
                                    "type": "uint8"
                                }
                            ],
                            "internalType": "struct Freelancer.Entity",
                            "name": "client",
                            "type": "tuple"
                        },
                        {
                            "internalType": "string",
                            "name": "description",
                            "type": "string"
                        },
                        {
                            "internalType": "uint256",
                            "name": "value",
                            "type": "uint256"
                        },
                        {
                            "internalType": "enum Freelancer.Status",
                            "name": "status",
                            "type": "uint8"
                        },
                        {
                            "internalType": "enum Freelancer.ConsensusType",
                            "name": "consensusType",
                            "type": "uint8"
                        },
                        {
                            "components": [
                                {
                                    "internalType": "address payable",
                                    "name": "addr",
                                    "type": "address"
                                },
                                {
                                    "internalType": "enum Freelancer.Vote",
                                    "name": "vote",
                                    "type": "uint8"
                                }
                            ],
                            "internalType": "struct Freelancer.Entity",
                            "name": "thirdParty",
                            "type": "tuple"
                        },
                        {
                            "internalType": "uint256",
                            "name": "id",
                            "type": "uint256"
                        },
                        {
                            "internalType": "bool",
                            "name": "isPopulated",
                            "type": "bool"
                        }
                    ],
                    "indexed": false,
                    "internalType": "struct Freelancer.Work",
                    "name": "work",
                    "type": "tuple"
                }
            ],
            "name": "workFunded",
            "type": "event"
        },
        {
            "inputs": [],
            "name": "ERC20Token",
            "outputs": [
                {
                    "internalType": "contract IERC20",
                    "name": "",
                    "type": "address"
                }
            ],
            "stateMutability": "view",
            "type": "function"
        },
        {
            "inputs": [
                {
                    "internalType": "address",
                    "name": "",
                    "type": "address"
                },
                {
                    "internalType": "uint256",
                    "name": "",
                    "type": "uint256"
                }
            ],
            "name": "clientToContractId",
            "outputs": [
                {
                    "internalType": "uint256",
                    "name": "",
                    "type": "uint256"
                }
            ],
            "stateMutability": "view",
            "type": "function"
        },
        {
            "inputs": [
                {
                    "internalType": "uint256",
                    "name": "_id",
                    "type": "uint256"
                },
                {
                    "internalType": "enum Freelancer.Vote",
                    "name": "vote",
                    "type": "uint8"
                }
            ],
            "name": "clientVote",
            "outputs": [],
            "stateMutability": "nonpayable",
            "type": "function"
        },
        {
            "inputs": [
                {
                    "internalType": "uint256",
                    "name": "",
                    "type": "uint256"
                }
            ],
            "name": "contracts",
            "outputs": [
                {
                    "components": [
                        {
                            "internalType": "address payable",
                            "name": "addr",
                            "type": "address"
                        },
                        {
                            "internalType": "enum Freelancer.Vote",
                            "name": "vote",
                            "type": "uint8"
                        }
                    ],
                    "internalType": "struct Freelancer.Entity",
                    "name": "freelancer",
                    "type": "tuple"
                },
                {
                    "components": [
                        {
                            "internalType": "address payable",
                            "name": "addr",
                            "type": "address"
                        },
                        {
                            "internalType": "enum Freelancer.Vote",
                            "name": "vote",
                            "type": "uint8"
                        }
                    ],
                    "internalType": "struct Freelancer.Entity",
                    "name": "client",
                    "type": "tuple"
                },
                {
                    "internalType": "string",
                    "name": "description",
                    "type": "string"
                },
                {
                    "internalType": "uint256",
                    "name": "value",
                    "type": "uint256"
                },
                {
                    "internalType": "enum Freelancer.Status",
                    "name": "status",
                    "type": "uint8"
                },
                {
                    "internalType": "enum Freelancer.ConsensusType",
                    "name": "consensusType",
                    "type": "uint8"
                },
                {
                    "components": [
                        {
                            "internalType": "address payable",
                            "name": "addr",
                            "type": "address"
                        },
                        {
                            "internalType": "enum Freelancer.Vote",
                            "name": "vote",
                            "type": "uint8"
                        }
                    ],
                    "internalType": "struct Freelancer.Entity",
                    "name": "thirdParty",
                    "type": "tuple"
                },
                {
                    "internalType": "uint256",
                    "name": "id",
                    "type": "uint256"
                },
                {
                    "internalType": "bool",
                    "name": "isPopulated",
                    "type": "bool"
                }
            ],
            "stateMutability": "view",
            "type": "function"
        },
        {
            "inputs": [
                {
                    "internalType": "address",
                    "name": "",
                    "type": "address"
                },
                {
                    "internalType": "uint256",
                    "name": "",
                    "type": "uint256"
                }
            ],
            "name": "freelancerToContractId",
            "outputs": [
                {
                    "internalType": "uint256",
                    "name": "",
                    "type": "uint256"
                }
            ],
            "stateMutability": "view",
            "type": "function"
        },
        {
            "inputs": [
                {
                    "internalType": "uint256",
                    "name": "_id",
                    "type": "uint256"
                },
                {
                    "internalType": "enum Freelancer.Vote",
                    "name": "vote",
                    "type": "uint8"
                }
            ],
            "name": "freelancerVote",
            "outputs": [],
            "stateMutability": "nonpayable",
            "type": "function"
        },
        {
            "inputs": [
                {
                    "internalType": "uint256",
                    "name": "_id",
                    "type": "uint256"
                },
                {
                    "internalType": "string",
                    "name": "_description",
                    "type": "string"
                },
                {
                    "internalType": "uint256",
                    "name": "_value",
                    "type": "uint256"
                },
                {
                    "internalType": "address payable",
                    "name": "_freelancer",
                    "type": "address"
                }
            ],
            "name": "fundWork",
            "outputs": [],
            "stateMutability": "payable",
            "type": "function"
        },
        {
            "inputs": [
                {
                    "internalType": "uint256",
                    "name": "_id",
                    "type": "uint256"
                },
                {
                    "internalType": "string",
                    "name": "_description",
                    "type": "string"
                },
                {
                    "internalType": "uint256",
                    "name": "_value",
                    "type": "uint256"
                },
                {
                    "internalType": "address payable",
                    "name": "_freelancer",
                    "type": "address"
                },
                {
                    "internalType": "address payable",
                    "name": "_thirdParty",
                    "type": "address"
                }
            ],
            "name": "fundWorkWithThirdParty",
            "outputs": [],
            "stateMutability": "payable",
            "type": "function"
        },
        {
            "inputs": [],
            "name": "getBalance",
            "outputs": [
                {
                    "internalType": "uint256",
                    "name": "",
                    "type": "uint256"
                }
            ],
            "stateMutability": "view",
            "type": "function"
        },
        {
            "inputs": [
                {
                    "internalType": "uint256",
                    "name": "_id",
                    "type": "uint256"
                }
            ],
            "name": "getTask",
            "outputs": [
                {
                    "components": [
                        {
                            "components": [
                                {
                                    "internalType": "address payable",
                                    "name": "addr",
                                    "type": "address"
                                },
                                {
                                    "internalType": "enum Freelancer.Vote",
                                    "name": "vote",
                                    "type": "uint8"
                                }
                            ],
                            "internalType": "struct Freelancer.Entity",
                            "name": "freelancer",
                            "type": "tuple"
                        },
                        {
                            "components": [
                                {
                                    "internalType": "address payable",
                                    "name": "addr",
                                    "type": "address"
                                },
                                {
                                    "internalType": "enum Freelancer.Vote",
                                    "name": "vote",
                                    "type": "uint8"
                                }
                            ],
                            "internalType": "struct Freelancer.Entity",
                            "name": "client",
                            "type": "tuple"
                        },
                        {
                            "internalType": "string",
                            "name": "description",
                            "type": "string"
                        },
                        {
                            "internalType": "uint256",
                            "name": "value",
                            "type": "uint256"
                        },
                        {
                            "internalType": "enum Freelancer.Status",
                            "name": "status",
                            "type": "uint8"
                        },
                        {
                            "internalType": "enum Freelancer.ConsensusType",
                            "name": "consensusType",
                            "type": "uint8"
                        },
                        {
                            "components": [
                                {
                                    "internalType": "address payable",
                                    "name": "addr",
                                    "type": "address"
                                },
                                {
                                    "internalType": "enum Freelancer.Vote",
                                    "name": "vote",
                                    "type": "uint8"
                                }
                            ],
                            "internalType": "struct Freelancer.Entity",
                            "name": "thirdParty",
                            "type": "tuple"
                        },
                        {
                            "internalType": "uint256",
                            "name": "id",
                            "type": "uint256"
                        },
                        {
                            "internalType": "bool",
                            "name": "isPopulated",
                            "type": "bool"
                        }
                    ],
                    "internalType": "struct Freelancer.Work",
                    "name": "",
                    "type": "tuple"
                }
            ],
            "stateMutability": "view",
            "type": "function"
        },
        {
            "inputs": [
                {
                    "internalType": "address",
                    "name": "_address",
                    "type": "address"
                }
            ],
            "name": "getTaskForClient",
            "outputs": [
                {
                    "internalType": "uint256[]",
                    "name": "",
                    "type": "uint256[]"
                }
            ],
            "stateMutability": "view",
            "type": "function"
        },
        {
            "inputs": [
                {
                    "internalType": "address",
                    "name": "_address",
                    "type": "address"
                }
            ],
            "name": "getTaskForFreelancer",
            "outputs": [
                {
                    "internalType": "uint256[]",
                    "name": "",
                    "type": "uint256[]"
                }
            ],
            "stateMutability": "view",
            "type": "function"
        },
        {
            "inputs": [
                {
                    "internalType": "uint256",
                    "name": "_id",
                    "type": "uint256"
                },
                {
                    "internalType": "enum Freelancer.Vote",
                    "name": "vote",
                    "type": "uint8"
                }
            ],
            "name": "thirdPartyVote",
            "outputs": [],
            "stateMutability": "nonpayable",
            "type": "function"
        }
    ],
    "bytecode": "0x60806040523480156200001157600080fd5b50604051620056e2380380620056e2833981810160405281019062000037919062000096565b80600360006101000a81548173ffffffffffffffffffffffffffffffffffffffff021916908373ffffffffffffffffffffffffffffffffffffffff1602179055505062000110565b6000815190506200009081620000f6565b92915050565b600060208284031215620000a957600080fd5b6000620000b9848285016200007f565b91505092915050565b6000620000cf82620000d6565b9050919050565b600073ffffffffffffffffffffffffffffffffffffffff82169050919050565b6200010181620000c2565b81146200010d57600080fd5b50565b6155c280620001206000396000f3fe6080604052600436106100c25760003560e01c8063474da79a1161007f5780637a80760e116100595780637a80760e14610278578063c64e9480146102a3578063cd62a1ae146102cc578063e670ec3c14610309576100c2565b8063474da79a146101e1578063558955fb1461022657806368886a2a1461024f576100c2565b806304c8db5c146100c75780630fec528b1461010457806312065fe014610141578063195974251461016c5780631d65e77e14610188578063323dd29e146101c5575b600080fd5b3480156100d357600080fd5b506100ee60048036038101906100e991906145ac565b610346565b6040516100fb9190615097565b60405180910390f35b34801561011057600080fd5b5061012b600480360381019061012691906145ac565b610377565b6040516101389190615097565b60405180910390f35b34801561014d57600080fd5b506101566103a8565b6040516101639190615097565b60405180910390f35b6101866004803603810190610181919061469f565b6103c7565b005b34801561019457600080fd5b506101af60048036038101906101aa9190614611565b610bdc565b6040516101bc9190615053565b60405180910390f35b6101df60048036038101906101da919061471a565b6110ab565b005b3480156101ed57600080fd5b5061020860048036038101906102039190614611565b611966565b60405161021d99989796959493929190614fbd565b60405180910390f35b34801561023257600080fd5b5061024d60048036038101906102489190614663565b611d18565b005b34801561025b57600080fd5b5061027660048036038101906102719190614663565b6126f4565b005b34801561028457600080fd5b5061028d613431565b60405161029a9190614ee2565b60405180910390f35b3480156102af57600080fd5b506102ca60048036038101906102c59190614663565b613457565b005b3480156102d857600080fd5b506102f360048036038101906102ee9190614583565b614194565b6040516103009190614ec0565b60405180910390f35b34801561031557600080fd5b50610330600480360381019061032b9190614583565b61422b565b60405161033d9190614ec0565b60405180910390f35b6002602052816000526040600020818154811061036257600080fd5b90600052602060002001600091509150505481565b6001602052816000526040600020818154811061039357600080fd5b90600052602060002001600091509150505481565b60003373ffffffffffffffffffffffffffffffffffffffff1631905090565b813381600360009054906101000a900473ffffffffffffffffffffffffffffffffffffffff1673ffffffffffffffffffffffffffffffffffffffff166370a08231836040518263ffffffff1660e01b81526004016104259190614e45565b60206040518083038186803b15801561043d57600080fd5b505afa158015610451573d6000803e3d6000fd5b505050506040513d601f19601f82011682018060405250810190610475919061463a565b10156104b6576040517f08c379a00000000000000000000000000000000000000000000000000000000081526004016104ad90614f7d565b60405180910390fd5b8560008082815260200190815260200160002060070160009054906101000a900460ff161561051a576040517f08c379a000000000000000000000000000000000000000000000000000000000815260040161051190614f5d565b60405180910390fd5b600060405180604001604052808673ffffffffffffffffffffffffffffffffffffffff16815260200160028081111561057c577f4e487b7100000000000000000000000000000000000000000000000000000000600052602160045260246000fd5b8152509050600060405180604001604052803373ffffffffffffffffffffffffffffffffffffffff1681526020016002808111156105e3577f4e487b7100000000000000000000000000000000000000000000000000000000600052602160045260246000fd5b815250905060405180610120016040528083815260200182815260200189815260200188815260200160006003811115610646577f4e487b7100000000000000000000000000000000000000000000000000000000600052602160045260246000fd5b815260200160006001811115610685577f4e487b7100000000000000000000000000000000000000000000000000000000600052602160045260246000fd5b81526020016040518060400160405280600073ffffffffffffffffffffffffffffffffffffffff1681526020016002808111156106eb577f4e487b7100000000000000000000000000000000000000000000000000000000600052602160045260246000fd5b81525081526020018a8152602001600115158152506000808b815260200190815260200160002060008201518160000160008201518160000160006101000a81548173ffffffffffffffffffffffffffffffffffffffff021916908373ffffffffffffffffffffffffffffffffffffffff16021790555060208201518160000160146101000a81548160ff021916908360028111156107b3577f4e487b7100000000000000000000000000000000000000000000000000000000600052602160045260246000fd5b0217905550505060208201518160010160008201518160000160006101000a81548173ffffffffffffffffffffffffffffffffffffffff021916908373ffffffffffffffffffffffffffffffffffffffff16021790555060208201518160000160146101000a81548160ff0219169083600281111561085b577f4e487b7100000000000000000000000000000000000000000000000000000000600052602160045260246000fd5b02179055505050604082015181600201908051906020019061087e9291906142c2565b506060820151816003015560808201518160040160006101000a81548160ff021916908360038111156108da577f4e487b7100000000000000000000000000000000000000000000000000000000600052602160045260246000fd5b021790555060a08201518160040160016101000a81548160ff02191690836001811115610930577f4e487b7100000000000000000000000000000000000000000000000000000000600052602160045260246000fd5b021790555060c08201518160050160008201518160000160006101000a81548173ffffffffffffffffffffffffffffffffffffffff021916908373ffffffffffffffffffffffffffffffffffffffff16021790555060208201518160000160146101000a81548160ff021916908360028111156109d6577f4e487b7100000000000000000000000000000000000000000000000000000000600052602160045260246000fd5b0217905550505060e082015181600601556101008201518160070160006101000a81548160ff021916908315150217905550905050600160008773ffffffffffffffffffffffffffffffffffffffff1673ffffffffffffffffffffffffffffffffffffffff168152602001908152602001600020899080600181540180825580915050600190039060005260206000200160009091909190915055600260003373ffffffffffffffffffffffffffffffffffffffff1673ffffffffffffffffffffffffffffffffffffffff168152602001908152602001600020899080600181540180825580915050600190039060005260206000200160009091909190915055600360009054906101000a900473ffffffffffffffffffffffffffffffffffffffff1673ffffffffffffffffffffffffffffffffffffffff166323b872dd33308a6040518463ffffffff1660e01b8152600401610b3693929190614e89565b602060405180830381600087803b158015610b5057600080fd5b505af1158015610b64573d6000803e3d6000fd5b505050506040513d601f19601f82011682018060405250810190610b8891906145e8565b507ff7d7e8d5c058cf59e0531caf95b6c75eb031314d5b1b0b2cc63aff507a71b2866000808b8152602001908152602001600020604051610bc99190615075565b60405180910390a1505050505050505050565b610be4614348565b60008083815260200190815260200160002060405180610120016040529081600082016040518060400160405290816000820160009054906101000a900473ffffffffffffffffffffffffffffffffffffffff1673ffffffffffffffffffffffffffffffffffffffff1673ffffffffffffffffffffffffffffffffffffffff1681526020016000820160149054906101000a900460ff166002811115610cb3577f4e487b7100000000000000000000000000000000000000000000000000000000600052602160045260246000fd5b6002811115610ceb577f4e487b7100000000000000000000000000000000000000000000000000000000600052602160045260246000fd5b815250508152602001600182016040518060400160405290816000820160009054906101000a900473ffffffffffffffffffffffffffffffffffffffff1673ffffffffffffffffffffffffffffffffffffffff1673ffffffffffffffffffffffffffffffffffffffff1681526020016000820160149054906101000a900460ff166002811115610da4577f4e487b7100000000000000000000000000000000000000000000000000000000600052602160045260246000fd5b6002811115610ddc577f4e487b7100000000000000000000000000000000000000000000000000000000600052602160045260246000fd5b815250508152602001600282018054610df490615351565b80601f0160208091040260200160405190810160405280929190818152602001828054610e2090615351565b8015610e6d5780601f10610e4257610100808354040283529160200191610e6d565b820191906000526020600020905b815481529060010190602001808311610e5057829003601f168201915b50505050508152602001600382015481526020016004820160009054906101000a900460ff166003811115610ecb577f4e487b7100000000000000000000000000000000000000000000000000000000600052602160045260246000fd5b6003811115610f03577f4e487b7100000000000000000000000000000000000000000000000000000000600052602160045260246000fd5b81526020016004820160019054906101000a900460ff166001811115610f52577f4e487b7100000000000000000000000000000000000000000000000000000000600052602160045260246000fd5b6001811115610f8a577f4e487b7100000000000000000000000000000000000000000000000000000000600052602160045260246000fd5b8152602001600582016040518060400160405290816000820160009054906101000a900473ffffffffffffffffffffffffffffffffffffffff1673ffffffffffffffffffffffffffffffffffffffff1673ffffffffffffffffffffffffffffffffffffffff1681526020016000820160149054906101000a900460ff16600281111561103f577f4e487b7100000000000000000000000000000000000000000000000000000000600052602160045260246000fd5b6002811115611077577f4e487b7100000000000000000000000000000000000000000000000000000000600052602160045260246000fd5b815250508152602001600682015481526020016007820160009054906101000a900460ff1615151515815250509050919050565b823381600360009054906101000a900473ffffffffffffffffffffffffffffffffffffffff1673ffffffffffffffffffffffffffffffffffffffff166370a08231836040518263ffffffff1660e01b81526004016111099190614e45565b60206040518083038186803b15801561112157600080fd5b505afa158015611135573d6000803e3d6000fd5b505050506040513d601f19601f82011682018060405250810190611159919061463a565b101561119a576040517f08c379a000000000000000000000000000000000000000000000000000000000815260040161119190614f7d565b60405180910390fd5b8660008082815260200190815260200160002060070160009054906101000a900460ff16156111fe576040517f08c379a00000000000000000000000000000000000000000000000000000000081526004016111f590614f5d565b60405180910390fd5b8473ffffffffffffffffffffffffffffffffffffffff168473ffffffffffffffffffffffffffffffffffffffff161415801561126657503373ffffffffffffffffffffffffffffffffffffffff168473ffffffffffffffffffffffffffffffffffffffff1614155b6112a5576040517f08c379a000000000000000000000000000000000000000000000000000000000815260040161129c90614efd565b60405180910390fd5b600060405180604001604052808773ffffffffffffffffffffffffffffffffffffffff168152602001600280811115611307577f4e487b7100000000000000000000000000000000000000000000000000000000600052602160045260246000fd5b8152509050600060405180604001604052803373ffffffffffffffffffffffffffffffffffffffff16815260200160028081111561136e577f4e487b7100000000000000000000000000000000000000000000000000000000600052602160045260246000fd5b81525090506040518061012001604052808381526020018281526020018a8152602001898152602001600060038111156113d1577f4e487b7100000000000000000000000000000000000000000000000000000000600052602160045260246000fd5b815260200160018081111561140f577f4e487b7100000000000000000000000000000000000000000000000000000000600052602160045260246000fd5b815260200160405180604001604052808973ffffffffffffffffffffffffffffffffffffffff168152602001600280811115611474577f4e487b7100000000000000000000000000000000000000000000000000000000600052602160045260246000fd5b81525081526020018b8152602001600115158152506000808c815260200190815260200160002060008201518160000160008201518160000160006101000a81548173ffffffffffffffffffffffffffffffffffffffff021916908373ffffffffffffffffffffffffffffffffffffffff16021790555060208201518160000160146101000a81548160ff0219169083600281111561153c577f4e487b7100000000000000000000000000000000000000000000000000000000600052602160045260246000fd5b0217905550505060208201518160010160008201518160000160006101000a81548173ffffffffffffffffffffffffffffffffffffffff021916908373ffffffffffffffffffffffffffffffffffffffff16021790555060208201518160000160146101000a81548160ff021916908360028111156115e4577f4e487b7100000000000000000000000000000000000000000000000000000000600052602160045260246000fd5b0217905550505060408201518160020190805190602001906116079291906142c2565b506060820151816003015560808201518160040160006101000a81548160ff02191690836003811115611663577f4e487b7100000000000000000000000000000000000000000000000000000000600052602160045260246000fd5b021790555060a08201518160040160016101000a81548160ff021916908360018111156116b9577f4e487b7100000000000000000000000000000000000000000000000000000000600052602160045260246000fd5b021790555060c08201518160050160008201518160000160006101000a81548173ffffffffffffffffffffffffffffffffffffffff021916908373ffffffffffffffffffffffffffffffffffffffff16021790555060208201518160000160146101000a81548160ff0219169083600281111561175f577f4e487b7100000000000000000000000000000000000000000000000000000000600052602160045260246000fd5b0217905550505060e082015181600601556101008201518160070160006101000a81548160ff021916908315150217905550905050600160008873ffffffffffffffffffffffffffffffffffffffff1673ffffffffffffffffffffffffffffffffffffffff1681526020019081526020016000208a9080600181540180825580915050600190039060005260206000200160009091909190915055600260003373ffffffffffffffffffffffffffffffffffffffff1673ffffffffffffffffffffffffffffffffffffffff1681526020019081526020016000208a9080600181540180825580915050600190039060005260206000200160009091909190915055600360009054906101000a900473ffffffffffffffffffffffffffffffffffffffff1673ffffffffffffffffffffffffffffffffffffffff166323b872dd33308b6040518463ffffffff1660e01b81526004016118bf93929190614e89565b602060405180830381600087803b1580156118d957600080fd5b505af11580156118ed573d6000803e3d6000fd5b505050506040513d601f19601f8201168201806040525081019061191191906145e8565b507ff7d7e8d5c058cf59e0531caf95b6c75eb031314d5b1b0b2cc63aff507a71b2866000808c81526020019081526020016000206040516119529190615075565b60405180910390a150505050505050505050565b6000602052806000526040600020600091509050806000016040518060400160405290816000820160009054906101000a900473ffffffffffffffffffffffffffffffffffffffff1673ffffffffffffffffffffffffffffffffffffffff1673ffffffffffffffffffffffffffffffffffffffff1681526020016000820160149054906101000a900460ff166002811115611a2a577f4e487b7100000000000000000000000000000000000000000000000000000000600052602160045260246000fd5b6002811115611a62577f4e487b7100000000000000000000000000000000000000000000000000000000600052602160045260246000fd5b8152505090806001016040518060400160405290816000820160009054906101000a900473ffffffffffffffffffffffffffffffffffffffff1673ffffffffffffffffffffffffffffffffffffffff1673ffffffffffffffffffffffffffffffffffffffff1681526020016000820160149054906101000a900460ff166002811115611b17577f4e487b7100000000000000000000000000000000000000000000000000000000600052602160045260246000fd5b6002811115611b4f577f4e487b7100000000000000000000000000000000000000000000000000000000600052602160045260246000fd5b8152505090806002018054611b6390615351565b80601f0160208091040260200160405190810160405280929190818152602001828054611b8f90615351565b8015611bdc5780601f10611bb157610100808354040283529160200191611bdc565b820191906000526020600020905b815481529060010190602001808311611bbf57829003601f168201915b5050505050908060030154908060040160009054906101000a900460ff16908060040160019054906101000a900460ff1690806005016040518060400160405290816000820160009054906101000a900473ffffffffffffffffffffffffffffffffffffffff1673ffffffffffffffffffffffffffffffffffffffff1673ffffffffffffffffffffffffffffffffffffffff1681526020016000820160149054906101000a900460ff166002811115611cbe577f4e487b7100000000000000000000000000000000000000000000000000000000600052602160045260246000fd5b6002811115611cf6577f4e487b7100000000000000000000000000000000000000000000000000000000600052602160045260246000fd5b81525050908060060154908060070160009054906101000a900460ff16905089565b8160008082815260200190815260200160002060050160000160009054906101000a900473ffffffffffffffffffffffffffffffffffffffff1673ffffffffffffffffffffffffffffffffffffffff163373ffffffffffffffffffffffffffffffffffffffff1614611dbf576040517f08c379a0000000000000000000000000000000000000000000000000000000008152600401611db690614f9d565b60405180910390fd5b826000806003811115611dfb577f4e487b7100000000000000000000000000000000000000000000000000000000600052602160045260246000fd5b60008084815260200190815260200160002060040160009054906101000a900460ff166003811115611e56577f4e487b7100000000000000000000000000000000000000000000000000000000600052602160045260246000fd5b14611e6057600080fd5b846001806001811115611e9c577f4e487b7100000000000000000000000000000000000000000000000000000000600052602160045260246000fd5b60008084815260200190815260200160002060040160019054906101000a900460ff166001811115611ef7577f4e487b7100000000000000000000000000000000000000000000000000000000600052602160045260246000fd5b14611f0157600080fd5b8560008089815260200190815260200160002060050160000160146101000a81548160ff02191690836002811115611f62577f4e487b7100000000000000000000000000000000000000000000000000000000600052602160045260246000fd5b0217905550600080600089815260200190815260200160002060405180610120016040529081600082016040518060400160405290816000820160009054906101000a900473ffffffffffffffffffffffffffffffffffffffff1673ffffffffffffffffffffffffffffffffffffffff1673ffffffffffffffffffffffffffffffffffffffff1681526020016000820160149054906101000a900460ff166002811115612038577f4e487b7100000000000000000000000000000000000000000000000000000000600052602160045260246000fd5b6002811115612070577f4e487b7100000000000000000000000000000000000000000000000000000000600052602160045260246000fd5b815250508152602001600182016040518060400160405290816000820160009054906101000a900473ffffffffffffffffffffffffffffffffffffffff1673ffffffffffffffffffffffffffffffffffffffff1673ffffffffffffffffffffffffffffffffffffffff1681526020016000820160149054906101000a900460ff166002811115612129577f4e487b7100000000000000000000000000000000000000000000000000000000600052602160045260246000fd5b6002811115612161577f4e487b7100000000000000000000000000000000000000000000000000000000600052602160045260246000fd5b81525050815260200160028201805461217990615351565b80601f01602080910402602001604051908101604052809291908181526020018280546121a590615351565b80156121f25780601f106121c7576101008083540402835291602001916121f2565b820191906000526020600020905b8154815290600101906020018083116121d557829003601f168201915b50505050508152602001600382015481526020016004820160009054906101000a900460ff166003811115612250577f4e487b7100000000000000000000000000000000000000000000000000000000600052602160045260246000fd5b6003811115612288577f4e487b7100000000000000000000000000000000000000000000000000000000600052602160045260246000fd5b81526020016004820160019054906101000a900460ff1660018111156122d7577f4e487b7100000000000000000000000000000000000000000000000000000000600052602160045260246000fd5b600181111561230f577f4e487b7100000000000000000000000000000000000000000000000000000000600052602160045260246000fd5b8152602001600582016040518060400160405290816000820160009054906101000a900473ffffffffffffffffffffffffffffffffffffffff1673ffffffffffffffffffffffffffffffffffffffff1673ffffffffffffffffffffffffffffffffffffffff1681526020016000820160149054906101000a900460ff1660028111156123c4577f4e487b7100000000000000000000000000000000000000000000000000000000600052602160045260246000fd5b60028111156123fc577f4e487b7100000000000000000000000000000000000000000000000000000000600052602160045260246000fd5b815250508152602001600682015481526020016007820160009054906101000a900460ff161515151581525050905060006002811115612465577f4e487b7100000000000000000000000000000000000000000000000000000000600052602160045260246000fd5b87600281111561249e577f4e487b7100000000000000000000000000000000000000000000000000000000600052602160045260246000fd5b141561258c5780600001516000015173ffffffffffffffffffffffffffffffffffffffff166108fc82606001519081150290604051600060405180830381858888f193505050501580156124f6573d6000803e3d6000fd5b5060016000808a815260200190815260200160002060040160006101000a81548160ff02191690836003811115612556577f4e487b7100000000000000000000000000000000000000000000000000000000600052602160045260246000fd5b02179055507f3c68eb814466095d6413c3d54053314f3612010356401ad9ab12567846d9625460405160405180910390a16126ea565b600160028111156125c6577f4e487b7100000000000000000000000000000000000000000000000000000000600052602160045260246000fd5b8760028111156125ff577f4e487b7100000000000000000000000000000000000000000000000000000000600052602160045260246000fd5b14156126e95780602001516000015173ffffffffffffffffffffffffffffffffffffffff166108fc82606001519081150290604051600060405180830381858888f19350505050158015612657573d6000803e3d6000fd5b5060026000808a815260200190815260200160002060040160006101000a81548160ff021916908360038111156126b7577f4e487b7100000000000000000000000000000000000000000000000000000000600052602160045260246000fd5b02179055507f3c68eb814466095d6413c3d54053314f3612010356401ad9ab12567846d9625460405160405180910390a15b5b5050505050505050565b8160008082815260200190815260200160002060010160000160009054906101000a900473ffffffffffffffffffffffffffffffffffffffff1673ffffffffffffffffffffffffffffffffffffffff163373ffffffffffffffffffffffffffffffffffffffff161461279b576040517f08c379a000000000000000000000000000000000000000000000000000000000815260040161279290614f1d565b60405180910390fd5b8260008060038111156127d7577f4e487b7100000000000000000000000000000000000000000000000000000000600052602160045260246000fd5b60008084815260200190815260200160002060040160009054906101000a900460ff166003811115612832577f4e487b7100000000000000000000000000000000000000000000000000000000600052602160045260246000fd5b1461283c57600080fd5b846000806001811115612878577f4e487b7100000000000000000000000000000000000000000000000000000000600052602160045260246000fd5b60008084815260200190815260200160002060040160019054906101000a900460ff1660018111156128d3577f4e487b7100000000000000000000000000000000000000000000000000000000600052602160045260246000fd5b146128dd57600080fd5b8560008089815260200190815260200160002060010160000160146101000a81548160ff0219169083600281111561293e577f4e487b7100000000000000000000000000000000000000000000000000000000600052602160045260246000fd5b0217905550600080600089815260200190815260200160002060405180610120016040529081600082016040518060400160405290816000820160009054906101000a900473ffffffffffffffffffffffffffffffffffffffff1673ffffffffffffffffffffffffffffffffffffffff1673ffffffffffffffffffffffffffffffffffffffff1681526020016000820160149054906101000a900460ff166002811115612a14577f4e487b7100000000000000000000000000000000000000000000000000000000600052602160045260246000fd5b6002811115612a4c577f4e487b7100000000000000000000000000000000000000000000000000000000600052602160045260246000fd5b815250508152602001600182016040518060400160405290816000820160009054906101000a900473ffffffffffffffffffffffffffffffffffffffff1673ffffffffffffffffffffffffffffffffffffffff1673ffffffffffffffffffffffffffffffffffffffff1681526020016000820160149054906101000a900460ff166002811115612b05577f4e487b7100000000000000000000000000000000000000000000000000000000600052602160045260246000fd5b6002811115612b3d577f4e487b7100000000000000000000000000000000000000000000000000000000600052602160045260246000fd5b815250508152602001600282018054612b5590615351565b80601f0160208091040260200160405190810160405280929190818152602001828054612b8190615351565b8015612bce5780601f10612ba357610100808354040283529160200191612bce565b820191906000526020600020905b815481529060010190602001808311612bb157829003601f168201915b50505050508152602001600382015481526020016004820160009054906101000a900460ff166003811115612c2c577f4e487b7100000000000000000000000000000000000000000000000000000000600052602160045260246000fd5b6003811115612c64577f4e487b7100000000000000000000000000000000000000000000000000000000600052602160045260246000fd5b81526020016004820160019054906101000a900460ff166001811115612cb3577f4e487b7100000000000000000000000000000000000000000000000000000000600052602160045260246000fd5b6001811115612ceb577f4e487b7100000000000000000000000000000000000000000000000000000000600052602160045260246000fd5b8152602001600582016040518060400160405290816000820160009054906101000a900473ffffffffffffffffffffffffffffffffffffffff1673ffffffffffffffffffffffffffffffffffffffff1673ffffffffffffffffffffffffffffffffffffffff1681526020016000820160149054906101000a900460ff166002811115612da0577f4e487b7100000000000000000000000000000000000000000000000000000000600052602160045260246000fd5b6002811115612dd8577f4e487b7100000000000000000000000000000000000000000000000000000000600052602160045260246000fd5b815250508152602001600682015481526020016007820160009054906101000a900460ff161515151581525050905060006002811115612e41577f4e487b7100000000000000000000000000000000000000000000000000000000600052602160045260246000fd5b8160200151602001516002811115612e82577f4e487b7100000000000000000000000000000000000000000000000000000000600052602160045260246000fd5b1415612fd95760016000808a815260200190815260200160002060040160006101000a81548160ff02191690836003811115612ee7577f4e487b7100000000000000000000000000000000000000000000000000000000600052602160045260246000fd5b0217905550600360009054906101000a900473ffffffffffffffffffffffffffffffffffffffff1673ffffffffffffffffffffffffffffffffffffffff1663a9059cbb82600001516000015183606001516040518363ffffffff1660e01b8152600401612f55929190614e60565b602060405180830381600087803b158015612f6f57600080fd5b505af1158015612f83573d6000803e3d6000fd5b505050506040513d601f19601f82011682018060405250810190612fa791906145e8565b507f3c68eb814466095d6413c3d54053314f3612010356401ad9ab12567846d9625460405160405180910390a1613427565b60016002811115613013577f4e487b7100000000000000000000000000000000000000000000000000000000600052602160045260246000fd5b8160200151602001516002811115613054577f4e487b7100000000000000000000000000000000000000000000000000000000600052602160045260246000fd5b1480156130d9575060016002811115613096577f4e487b7100000000000000000000000000000000000000000000000000000000600052602160045260246000fd5b81600001516020015160028111156130d7577f4e487b7100000000000000000000000000000000000000000000000000000000600052602160045260246000fd5b145b1561322f5760026000808a815260200190815260200160002060040160006101000a81548160ff0219169083600381111561313d577f4e487b7100000000000000000000000000000000000000000000000000000000600052602160045260246000fd5b0217905550600360009054906101000a900473ffffffffffffffffffffffffffffffffffffffff1673ffffffffffffffffffffffffffffffffffffffff1663a9059cbb82602001516000015183606001516040518363ffffffff1660e01b81526004016131ab929190614e60565b602060405180830381600087803b1580156131c557600080fd5b505af11580156131d9573d6000803e3d6000fd5b505050506040513d601f19601f820116820180604052508101906131fd91906145e8565b507f3c68eb814466095d6413c3d54053314f3612010356401ad9ab12567846d9625460405160405180910390a1613426565b600280811115613268577f4e487b7100000000000000000000000000000000000000000000000000000000600052602160045260246000fd5b81602001516020015160028111156132a9577f4e487b7100000000000000000000000000000000000000000000000000000000600052602160045260246000fd5b1415801561332f57506002808111156132eb577f4e487b7100000000000000000000000000000000000000000000000000000000600052602160045260246000fd5b816000015160200151600281111561332c577f4e487b7100000000000000000000000000000000000000000000000000000000600052602160045260246000fd5b14155b80156133bb57508060000151602001516002811115613377577f4e487b7100000000000000000000000000000000000000000000000000000000600052602160045260246000fd5b81602001516020015160028111156133b8577f4e487b7100000000000000000000000000000000000000000000000000000000600052602160045260246000fd5b14155b156134255760036000808a815260200190815260200160002060040160006101000a81548160ff0219169083600381111561341f577f4e487b7100000000000000000000000000000000000000000000000000000000600052602160045260246000fd5b02179055505b5b5b5050505050505050565b600360009054906101000a900473ffffffffffffffffffffffffffffffffffffffff1681565b8160008082815260200190815260200160002060000160000160009054906101000a900473ffffffffffffffffffffffffffffffffffffffff1673ffffffffffffffffffffffffffffffffffffffff163373ffffffffffffffffffffffffffffffffffffffff16146134fe576040517f08c379a00000000000000000000000000000000000000000000000000000000081526004016134f590614f3d565b60405180910390fd5b82600080600381111561353a577f4e487b7100000000000000000000000000000000000000000000000000000000600052602160045260246000fd5b60008084815260200190815260200160002060040160009054906101000a900460ff166003811115613595577f4e487b7100000000000000000000000000000000000000000000000000000000600052602160045260246000fd5b1461359f57600080fd5b8460008060018111156135db577f4e487b7100000000000000000000000000000000000000000000000000000000600052602160045260246000fd5b60008084815260200190815260200160002060040160019054906101000a900460ff166001811115613636577f4e487b7100000000000000000000000000000000000000000000000000000000600052602160045260246000fd5b1461364057600080fd5b8560008089815260200190815260200160002060000160000160146101000a81548160ff021916908360028111156136a1577f4e487b7100000000000000000000000000000000000000000000000000000000600052602160045260246000fd5b0217905550600080600089815260200190815260200160002060405180610120016040529081600082016040518060400160405290816000820160009054906101000a900473ffffffffffffffffffffffffffffffffffffffff1673ffffffffffffffffffffffffffffffffffffffff1673ffffffffffffffffffffffffffffffffffffffff1681526020016000820160149054906101000a900460ff166002811115613777577f4e487b7100000000000000000000000000000000000000000000000000000000600052602160045260246000fd5b60028111156137af577f4e487b7100000000000000000000000000000000000000000000000000000000600052602160045260246000fd5b815250508152602001600182016040518060400160405290816000820160009054906101000a900473ffffffffffffffffffffffffffffffffffffffff1673ffffffffffffffffffffffffffffffffffffffff1673ffffffffffffffffffffffffffffffffffffffff1681526020016000820160149054906101000a900460ff166002811115613868577f4e487b7100000000000000000000000000000000000000000000000000000000600052602160045260246000fd5b60028111156138a0577f4e487b7100000000000000000000000000000000000000000000000000000000600052602160045260246000fd5b8152505081526020016002820180546138b890615351565b80601f01602080910402602001604051908101604052809291908181526020018280546138e490615351565b80156139315780601f1061390657610100808354040283529160200191613931565b820191906000526020600020905b81548152906001019060200180831161391457829003601f168201915b50505050508152602001600382015481526020016004820160009054906101000a900460ff16600381111561398f577f4e487b7100000000000000000000000000000000000000000000000000000000600052602160045260246000fd5b60038111156139c7577f4e487b7100000000000000000000000000000000000000000000000000000000600052602160045260246000fd5b81526020016004820160019054906101000a900460ff166001811115613a16577f4e487b7100000000000000000000000000000000000000000000000000000000600052602160045260246000fd5b6001811115613a4e577f4e487b7100000000000000000000000000000000000000000000000000000000600052602160045260246000fd5b8152602001600582016040518060400160405290816000820160009054906101000a900473ffffffffffffffffffffffffffffffffffffffff1673ffffffffffffffffffffffffffffffffffffffff1673ffffffffffffffffffffffffffffffffffffffff1681526020016000820160149054906101000a900460ff166002811115613b03577f4e487b7100000000000000000000000000000000000000000000000000000000600052602160045260246000fd5b6002811115613b3b577f4e487b7100000000000000000000000000000000000000000000000000000000600052602160045260246000fd5b815250508152602001600682015481526020016007820160009054906101000a900460ff161515151581525050905060006002811115613ba4577f4e487b7100000000000000000000000000000000000000000000000000000000600052602160045260246000fd5b8160200151602001516002811115613be5577f4e487b7100000000000000000000000000000000000000000000000000000000600052602160045260246000fd5b148015613c6a575060006002811115613c27577f4e487b7100000000000000000000000000000000000000000000000000000000600052602160045260246000fd5b8160000151602001516002811115613c68577f4e487b7100000000000000000000000000000000000000000000000000000000600052602160045260246000fd5b145b15613dc05760016000808a815260200190815260200160002060040160006101000a81548160ff02191690836003811115613cce577f4e487b7100000000000000000000000000000000000000000000000000000000600052602160045260246000fd5b0217905550600360009054906101000a900473ffffffffffffffffffffffffffffffffffffffff1673ffffffffffffffffffffffffffffffffffffffff1663a9059cbb82600001516000015183606001516040518363ffffffff1660e01b8152600401613d3c929190614e60565b602060405180830381600087803b158015613d5657600080fd5b505af1158015613d6a573d6000803e3d6000fd5b505050506040513d601f19601f82011682018060405250810190613d8e91906145e8565b507f3c68eb814466095d6413c3d54053314f3612010356401ad9ab12567846d9625460405160405180910390a161418a565b60016002811115613dfa577f4e487b7100000000000000000000000000000000000000000000000000000000600052602160045260246000fd5b8160000151602001516002811115613e3b577f4e487b7100000000000000000000000000000000000000000000000000000000600052602160045260246000fd5b1415613f925760026000808a815260200190815260200160002060040160006101000a81548160ff02191690836003811115613ea0577f4e487b7100000000000000000000000000000000000000000000000000000000600052602160045260246000fd5b0217905550600360009054906101000a900473ffffffffffffffffffffffffffffffffffffffff1673ffffffffffffffffffffffffffffffffffffffff1663a9059cbb82602001516000015183606001516040518363ffffffff1660e01b8152600401613f0e929190614e60565b602060405180830381600087803b158015613f2857600080fd5b505af1158015613f3c573d6000803e3d6000fd5b505050506040513d601f19601f82011682018060405250810190613f6091906145e8565b507f3c68eb814466095d6413c3d54053314f3612010356401ad9ab12567846d9625460405160405180910390a1614189565b600280811115613fcb577f4e487b7100000000000000000000000000000000000000000000000000000000600052602160045260246000fd5b816020015160200151600281111561400c577f4e487b7100000000000000000000000000000000000000000000000000000000600052602160045260246000fd5b14158015614092575060028081111561404e577f4e487b7100000000000000000000000000000000000000000000000000000000600052602160045260246000fd5b816000015160200151600281111561408f577f4e487b7100000000000000000000000000000000000000000000000000000000600052602160045260246000fd5b14155b801561411e575080600001516020015160028111156140da577f4e487b7100000000000000000000000000000000000000000000000000000000600052602160045260246000fd5b816020015160200151600281111561411b577f4e487b7100000000000000000000000000000000000000000000000000000000600052602160045260246000fd5b14155b156141885760036000808a815260200190815260200160002060040160006101000a81548160ff02191690836003811115614182577f4e487b7100000000000000000000000000000000000000000000000000000000600052602160045260246000fd5b02179055505b5b5b5050505050505050565b6060600160008373ffffffffffffffffffffffffffffffffffffffff1673ffffffffffffffffffffffffffffffffffffffff16815260200190815260200160002080548060200260200160405190810160405280929190818152602001828054801561421f57602002820191906000526020600020905b81548152602001906001019080831161420b575b50505050509050919050565b6060600260008373ffffffffffffffffffffffffffffffffffffffff1673ffffffffffffffffffffffffffffffffffffffff1681526020019081526020016000208054806020026020016040519081016040528092919081815260200182805480156142b657602002820191906000526020600020905b8154815260200190600101908083116142a2575b50505050509050919050565b8280546142ce90615351565b90600052602060002090601f0160209004810192826142f05760008555614337565b82601f1061430957805160ff1916838001178555614337565b82800160010185558215614337579182015b8281111561433657825182559160200191906001019061431b565b5b5090506143449190614418565b5090565b60405180610120016040528061435c614435565b8152602001614369614435565b81526020016060815260200160008152602001600060038111156143b6577f4e487b7100000000000000000000000000000000000000000000000000000000600052602160045260246000fd5b8152602001600060018111156143f5577f4e487b7100000000000000000000000000000000000000000000000000000000600052602160045260246000fd5b8152602001614402614435565b8152602001600081526020016000151581525090565b5b80821115614431576000816000905550600101614419565b5090565b6040518060400160405280600073ffffffffffffffffffffffffffffffffffffffff16815260200160006002811115614497577f4e487b7100000000000000000000000000000000000000000000000000000000600052602160045260246000fd5b81525090565b60006144b06144ab846150e3565b6150b2565b9050828152602081018484840111156144c857600080fd5b6144d384828561530f565b509392505050565b6000813590506144ea81615520565b92915050565b6000813590506144ff81615537565b92915050565b6000815190506145148161554e565b92915050565b60008135905061452981615565565b92915050565b600082601f83011261454057600080fd5b813561455084826020860161449d565b91505092915050565b60008135905061456881615575565b92915050565b60008151905061457d81615575565b92915050565b60006020828403121561459557600080fd5b60006145a3848285016144db565b91505092915050565b600080604083850312156145bf57600080fd5b60006145cd858286016144db565b92505060206145de85828601614559565b9150509250929050565b6000602082840312156145fa57600080fd5b600061460884828501614505565b91505092915050565b60006020828403121561462357600080fd5b600061463184828501614559565b91505092915050565b60006020828403121561464c57600080fd5b600061465a8482850161456e565b91505092915050565b6000806040838503121561467657600080fd5b600061468485828601614559565b92505060206146958582860161451a565b9150509250929050565b600080600080608085870312156146b557600080fd5b60006146c387828801614559565b945050602085013567ffffffffffffffff8111156146e057600080fd5b6146ec8782880161452f565b93505060406146fd87828801614559565b925050606061470e878288016144f0565b91505092959194509250565b600080600080600060a0868803121561473257600080fd5b600061474088828901614559565b955050602086013567ffffffffffffffff81111561475d57600080fd5b6147698882890161452f565b945050604061477a88828901614559565b935050606061478b888289016144f0565b925050608061479c888289016144f0565b9150509295509295909350565b60006147b58383614e27565b60208301905092915050565b6147ca8161527f565b82525050565b6147d9816151fe565b82525050565b6147e8816151ec565b82525050565b60006147f982615138565b614803818561515b565b935061480e83615113565b8060005b8381101561483f57815161482688826147a9565b97506148318361514e565b925050600181019050614812565b5085935050505092915050565b61485581615210565b82525050565b61486481615210565b82525050565b61487381615291565b82525050565b614882816152b5565b82525050565b614891816152b5565b82525050565b6148a0816152c7565b82525050565b6148af816152c7565b82525050565b6148be816152d9565b82525050565b60006148cf82615143565b6148d9818561516c565b93506148e981856020860161531e565b6148f2816154ac565b840191505092915050565b600061490882615143565b614912818561517d565b935061492281856020860161531e565b61492b816154ac565b840191505092915050565b6000815461494381615351565b61494d818661516c565b94506001821660008114614968576001811461497a576149ad565b60ff19831686526020860193506149ad565b61498385615123565b60005b838110156149a557815481890152600182019150602081019050614986565b808801955050505b50505092915050565b60006149c360328361517d565b91507f54686520636c69656e74206f7220667265656c616e6365722063616e6e6f742060008301527f62652074686520746869726420706172747900000000000000000000000000006020830152604082019050919050565b6000614a29601e8361517d565b91507f4f6e6c7920636c69656e742063616e2063616c6c207468697320666c6f7700006000830152602082019050919050565b6000614a6960238361517d565b91507f4f6e6c7920667265656c616e6365722063616e2063616c6c207468697320666c60008301527f6f772e00000000000000000000000000000000000000000000000000000000006020830152604082019050919050565b6000614acf601d8361517d565b91507f5461736b2069642068617320616c7265616479206265656e20757365640000006000830152602082019050919050565b6000614b0f60278361517d565b91507f46756e647320617265206e6f7420657175616c20746f20617070726f7665642060008301527f616d6f756e742e000000000000000000000000000000000000000000000000006020830152604082019050919050565b6000614b75602d8361517d565b91507f4f6e6c79206170706f696e7465642074686972642070617274792063616e206360008301527f616c6c207468697320666c6f77000000000000000000000000000000000000006020830152604082019050919050565b604082016000820151614be460008501826147d0565b506020820151614bf760208501826148b5565b50505050565b604082016000820151614c1360008501826147d0565b506020820151614c2660208501826148b5565b50505050565b604082016000808301549050614c4181615383565b614c4e60008601826147d0565b50614c5881615405565b614c6560208601826148b5565b5050505050565b600061018083016000830151614c856000860182614bce565b506020830151614c986040860182614bce565b5060408301518482036080860152614cb082826148c4565b9150506060830151614cc560a0860182614e27565b506080830151614cd860c0860182614897565b5060a0830151614ceb60e0860182614879565b5060c0830151614cff610100860182614bce565b5060e0830151614d13610140860182614e27565b50610100830151614d2861016086018261484c565b508091505092915050565b600061018083016000808401614d4c6000870182614c2c565b5060018401614d5e6040870182614c2c565b50600284018583036080870152614d758382614936565b92505060038401549050614d88816153d1565b614d9560a0870182614e27565b5060048401549050614da6816153b7565b614db360c0870182614897565b50614dbd816153eb565b614dca60e0870182614879565b5060058401614ddd610100870182614c2c565b5060068401549050614dee816153d1565b614dfc610140870182614e27565b5060078401549050614e0d8161539d565b614e1b61016087018261484c565b50819250505092915050565b614e3081615275565b82525050565b614e3f81615275565b82525050565b6000602082019050614e5a60008301846147df565b92915050565b6000604082019050614e7560008301856147c1565b614e826020830184614e36565b9392505050565b6000606082019050614e9e60008301866147df565b614eab60208301856147df565b614eb86040830184614e36565b949350505050565b60006020820190508181036000830152614eda81846147ee565b905092915050565b6000602082019050614ef7600083018461486a565b92915050565b60006020820190508181036000830152614f16816149b6565b9050919050565b60006020820190508181036000830152614f3681614a1c565b9050919050565b60006020820190508181036000830152614f5681614a5c565b9050919050565b60006020820190508181036000830152614f7681614ac2565b9050919050565b60006020820190508181036000830152614f9681614b02565b9050919050565b60006020820190508181036000830152614fb681614b68565b9050919050565b600061018082019050614fd3600083018c614bfd565b614fe0604083018b614bfd565b8181036080830152614ff2818a6148fd565b905061500160a0830189614e36565b61500e60c08301886148a6565b61501b60e0830187614888565b615029610100830186614bfd565b615037610140830185614e36565b61504561016083018461485b565b9a9950505050505050505050565b6000602082019050818103600083015261506d8184614c6c565b905092915050565b6000602082019050818103600083015261508f8184614d33565b905092915050565b60006020820190506150ac6000830184614e36565b92915050565b6000604051905081810181811067ffffffffffffffff821117156150d9576150d861547d565b5b8060405250919050565b600067ffffffffffffffff8211156150fe576150fd61547d565b5b601f19601f8301169050602081019050919050565b6000819050602082019050919050565b60008190508160005260206000209050919050565b600081519050919050565b600081519050919050565b6000602082019050919050565b600082825260208201905092915050565b600082825260208201905092915050565b600082825260208201905092915050565b600073ffffffffffffffffffffffffffffffffffffffff82169050919050565b600060ff82169050919050565b600060ff82169050919050565b600060ff82169050919050565b600060ff82169050919050565b6000819050919050565b60006151f782615255565b9050919050565b600061520982615255565b9050919050565b60008115159050919050565b600081905061522a826154e4565b919050565b600081905061523d826154f8565b919050565b60008190506152508261550c565b919050565b600073ffffffffffffffffffffffffffffffffffffffff82169050919050565b6000819050919050565b600061528a826152eb565b9050919050565b600061529c826152a3565b9050919050565b60006152ae82615255565b9050919050565b60006152c08261521c565b9050919050565b60006152d28261522f565b9050919050565b60006152e482615242565b9050919050565b60006152f6826152fd565b9050919050565b600061530882615255565b9050919050565b82818337600083830152505050565b60005b8381101561533c578082015181840152602081019050615321565b8381111561534b576000848401525b50505050565b6000600282049050600182168061536957607f821691505b6020821081141561537d5761537c61544e565b5b50919050565b6000615396615391836154bd565b61518e565b9050919050565b60006153b06153ab836154bd565b6151ae565b9050919050565b60006153ca6153c5836154bd565b6151c8565b9050919050565b60006153e46153df836154bd565b6151e2565b9050919050565b60006153fe6153f9836154d7565b6151bb565b9050919050565b6000615418615413836154ca565b6151d5565b9050919050565b7f4e487b7100000000000000000000000000000000000000000000000000000000600052602160045260246000fd5b7f4e487b7100000000000000000000000000000000000000000000000000000000600052602260045260246000fd5b7f4e487b7100000000000000000000000000000000000000000000000000000000600052604160045260246000fd5b6000601f19601f8301169050919050565b60008160001c9050919050565b60008160a01c9050919050565b60008160081c9050919050565b600281106154f5576154f461541f565b5b50565b600481106155095761550861541f565b5b50565b6003811061551d5761551c61541f565b5b50565b615529816151ec565b811461553457600080fd5b50565b615540816151fe565b811461554b57600080fd5b50565b61555781615210565b811461556257600080fd5b50565b6003811061557257600080fd5b50565b61557e81615275565b811461558957600080fd5b5056fea2646970667358221220a1b3c725e18b846b05fa091876252ba3680cd375f104c3f674f331cc0a557a6764736f6c63430008000033",
    "linkReferences": {},
    "deployedLinkReferences": {}
}