{
    "contractName": "Freelancer",
    "abi": [
        {
            "inputs": [],
            "stateMutability": "nonpayable",
            "type": "constructor"
        },
        {
            "anonymous": false,
            "inputs": [],
            "name": "transferFunds",
            "type": "event"
        },
        {
            "anonymous": false,
            "inputs": [
                {
                    "components": [
                        {
                            "components": [
                                {
                                    "internalType": "address payable",
                                    "name": "addr",
                                    "type": "address"
                                },
                                {
                                    "internalType": "enum Freelancer.Vote",
                                    "name": "vote",
                                    "type": "uint8"
                                }
                            ],
                            "internalType": "struct Freelancer.Entity",
                            "name": "freelancer",
                            "type": "tuple"
                        },
                        {
                            "components": [
                                {
                                    "internalType": "address payable",
                                    "name": "addr",
                                    "type": "address"
                                },
                                {
                                    "internalType": "enum Freelancer.Vote",
                                    "name": "vote",
                                    "type": "uint8"
                                }
                            ],
                            "internalType": "struct Freelancer.Entity",
                            "name": "client",
                            "type": "tuple"
                        },
                        {
                            "internalType": "string",
                            "name": "description",
                            "type": "string"
                        },
                        {
                            "internalType": "uint256",
                            "name": "value",
                            "type": "uint256"
                        },
                        {
                            "internalType": "enum Freelancer.Status",
                            "name": "status",
                            "type": "uint8"
                        },
                        {
                            "internalType": "enum Freelancer.ConsensusType",
                            "name": "consensusType",
                            "type": "uint8"
                        },
                        {
                            "components": [
                                {
                                    "internalType": "address payable",
                                    "name": "addr",
                                    "type": "address"
                                },
                                {
                                    "internalType": "enum Freelancer.Vote",
                                    "name": "vote",
                                    "type": "uint8"
                                }
                            ],
                            "internalType": "struct Freelancer.Entity",
                            "name": "thirdParty",
                            "type": "tuple"
                        }
                    ],
                    "indexed": false,
                    "internalType": "struct Freelancer.Work",
                    "name": "work",
                    "type": "tuple"
                }
            ],
            "name": "workFunded",
            "type": "event"
        },
        {
            "inputs": [
                {
                    "internalType": "address",
                    "name": "",
                    "type": "address"
                }
            ],
            "name": "clientToContractId",
            "outputs": [
                {
                    "internalType": "uint256",
                    "name": "",
                    "type": "uint256"
                }
            ],
            "stateMutability": "view",
            "type": "function"
        },
        {
            "inputs": [
                {
                    "internalType": "uint256",
                    "name": "_id",
                    "type": "uint256"
                },
                {
                    "internalType": "enum Freelancer.Vote",
                    "name": "vote",
                    "type": "uint8"
                }
            ],
            "name": "clientVote",
            "outputs": [],
            "stateMutability": "nonpayable",
            "type": "function"
        },
        {
            "inputs": [
                {
                    "internalType": "uint256",
                    "name": "",
                    "type": "uint256"
                }
            ],
            "name": "contracts",
            "outputs": [
                {
                    "components": [
                        {
                            "internalType": "address payable",
                            "name": "addr",
                            "type": "address"
                        },
                        {
                            "internalType": "enum Freelancer.Vote",
                            "name": "vote",
                            "type": "uint8"
                        }
                    ],
                    "internalType": "struct Freelancer.Entity",
                    "name": "freelancer",
                    "type": "tuple"
                },
                {
                    "components": [
                        {
                            "internalType": "address payable",
                            "name": "addr",
                            "type": "address"
                        },
                        {
                            "internalType": "enum Freelancer.Vote",
                            "name": "vote",
                            "type": "uint8"
                        }
                    ],
                    "internalType": "struct Freelancer.Entity",
                    "name": "client",
                    "type": "tuple"
                },
                {
                    "internalType": "string",
                    "name": "description",
                    "type": "string"
                },
                {
                    "internalType": "uint256",
                    "name": "value",
                    "type": "uint256"
                },
                {
                    "internalType": "enum Freelancer.Status",
                    "name": "status",
                    "type": "uint8"
                },
                {
                    "internalType": "enum Freelancer.ConsensusType",
                    "name": "consensusType",
                    "type": "uint8"
                },
                {
                    "components": [
                        {
                            "internalType": "address payable",
                            "name": "addr",
                            "type": "address"
                        },
                        {
                            "internalType": "enum Freelancer.Vote",
                            "name": "vote",
                            "type": "uint8"
                        }
                    ],
                    "internalType": "struct Freelancer.Entity",
                    "name": "thirdParty",
                    "type": "tuple"
                }
            ],
            "stateMutability": "view",
            "type": "function"
        },
        {
            "inputs": [
                {
                    "internalType": "uint256",
                    "name": "_id",
                    "type": "uint256"
                },
                {
                    "internalType": "enum Freelancer.Vote",
                    "name": "vote",
                    "type": "uint8"
                }
            ],
            "name": "freelancerVote",
            "outputs": [],
            "stateMutability": "nonpayable",
            "type": "function"
        },
        {
            "inputs": [
                {
                    "internalType": "address",
                    "name": "",
                    "type": "address"
                }
            ],
            "name": "freelanderToContractId",
            "outputs": [
                {
                    "internalType": "uint256",
                    "name": "",
                    "type": "uint256"
                }
            ],
            "stateMutability": "view",
            "type": "function"
        },
        {
            "inputs": [
                {
                    "internalType": "string",
                    "name": "_description",
                    "type": "string"
                },
                {
                    "internalType": "uint256",
                    "name": "_value",
                    "type": "uint256"
                },
                {
                    "internalType": "address payable",
                    "name": "_freelancer",
                    "type": "address"
                }
            ],
            "name": "fundWork",
            "outputs": [],
            "stateMutability": "payable",
            "type": "function"
        },
        {
            "inputs": [
                {
                    "internalType": "string",
                    "name": "_description",
                    "type": "string"
                },
                {
                    "internalType": "uint256",
                    "name": "_value",
                    "type": "uint256"
                },
                {
                    "internalType": "address payable",
                    "name": "_freelancer",
                    "type": "address"
                },
                {
                    "internalType": "address payable",
                    "name": "_thirdParty",
                    "type": "address"
                }
            ],
            "name": "fundWorkWithThirdParty",
            "outputs": [],
            "stateMutability": "payable",
            "type": "function"
        },
        {
            "inputs": [
                {
                    "internalType": "uint256",
                    "name": "_id",
                    "type": "uint256"
                }
            ],
            "name": "getTask",
            "outputs": [
                {
                    "components": [
                        {
                            "components": [
                                {
                                    "internalType": "address payable",
                                    "name": "addr",
                                    "type": "address"
                                },
                                {
                                    "internalType": "enum Freelancer.Vote",
                                    "name": "vote",
                                    "type": "uint8"
                                }
                            ],
                            "internalType": "struct Freelancer.Entity",
                            "name": "freelancer",
                            "type": "tuple"
                        },
                        {
                            "components": [
                                {
                                    "internalType": "address payable",
                                    "name": "addr",
                                    "type": "address"
                                },
                                {
                                    "internalType": "enum Freelancer.Vote",
                                    "name": "vote",
                                    "type": "uint8"
                                }
                            ],
                            "internalType": "struct Freelancer.Entity",
                            "name": "client",
                            "type": "tuple"
                        },
                        {
                            "internalType": "string",
                            "name": "description",
                            "type": "string"
                        },
                        {
                            "internalType": "uint256",
                            "name": "value",
                            "type": "uint256"
                        },
                        {
                            "internalType": "enum Freelancer.Status",
                            "name": "status",
                            "type": "uint8"
                        },
                        {
                            "internalType": "enum Freelancer.ConsensusType",
                            "name": "consensusType",
                            "type": "uint8"
                        },
                        {
                            "components": [
                                {
                                    "internalType": "address payable",
                                    "name": "addr",
                                    "type": "address"
                                },
                                {
                                    "internalType": "enum Freelancer.Vote",
                                    "name": "vote",
                                    "type": "uint8"
                                }
                            ],
                            "internalType": "struct Freelancer.Entity",
                            "name": "thirdParty",
                            "type": "tuple"
                        }
                    ],
                    "internalType": "struct Freelancer.Work",
                    "name": "",
                    "type": "tuple"
                }
            ],
            "stateMutability": "view",
            "type": "function"
        },
        {
            "inputs": [
                {
                    "internalType": "address",
                    "name": "_address",
                    "type": "address"
                }
            ],
            "name": "getTaskForContractor",
            "outputs": [
                {
                    "internalType": "uint256",
                    "name": "",
                    "type": "uint256"
                }
            ],
            "stateMutability": "view",
            "type": "function"
        },
        {
            "inputs": [
                {
                    "internalType": "address",
                    "name": "_address",
                    "type": "address"
                }
            ],
            "name": "getTaskForFreelancer",
            "outputs": [
                {
                    "internalType": "uint256",
                    "name": "",
                    "type": "uint256"
                }
            ],
            "stateMutability": "view",
            "type": "function"
        },
        {
            "inputs": [
                {
                    "internalType": "uint256",
                    "name": "_id",
                    "type": "uint256"
                },
                {
                    "internalType": "enum Freelancer.Vote",
                    "name": "vote",
                    "type": "uint8"
                }
            ],
            "name": "thirdPartyVote",
            "outputs": [],
            "stateMutability": "nonpayable",
            "type": "function"
        }
    ],
    "bytecode": "608060405234801561001057600080fd5b5060008055611e03806100246000396000f3fe60806040526004361061009c5760003560e01c806368886a2a1161006457806368886a2a1461017f578063a3aa010d1461019f578063b3d8487d146101cc578063c64e9480146101f9578063caac51ba14610219578063cd62a1ae1461022c57600080fd5b80631a2fe137146100a15780631d65e77e146100ea578063474da79a1461011757806350a747381461014a578063558955fb1461015f575b600080fd5b3480156100ad57600080fd5b506100d76100bc366004611916565b6001600160a01b031660009081526003602052604090205490565b6040519081526020015b60405180910390f35b3480156100f657600080fd5b5061010a610105366004611a01565b610262565b6040516100e19190611b6e565b34801561012357600080fd5b50610137610132366004611a01565b61048e565b6040516100e19796959493929190611aff565b61015d610158366004611995565b610641565b005b34801561016b57600080fd5b5061015d61017a366004611a1a565b610982565b34801561018b57600080fd5b5061015d61019a366004611a1a565b610d51565b3480156101ab57600080fd5b506100d76101ba366004611916565b60026020526000908152604090205481565b3480156101d857600080fd5b506100d76101e7366004611916565b60036020526000908152604090205481565b34801561020557600080fd5b5061015d610214366004611a1a565b61111e565b61015d61022736600461193a565b6114b9565b34801561023857600080fd5b506100d7610247366004611916565b6001600160a01b031660009081526002602052604090205490565b61026a611760565b600082815260016020526040908190208151610120810190925280546001600160a01b03811660e0840190815283918390610100840190600160a01b900460ff1660028111156102bc576102bc611d79565b60028111156102cd576102cd611d79565b9052508152604080518082019091526001830180546001600160a01b0381168352602093840193830190600160a01b900460ff16600281111561031257610312611d79565b600281111561032357610323611d79565b81525050815260200160028201805461033b90611d15565b80601f016020809104026020016040519081016040528092919081815260200182805461036790611d15565b80156103b45780601f10610389576101008083540402835291602001916103b4565b820191906000526020600020905b81548152906001019060200180831161039757829003601f168201915b505050918352505060038201546020820152600482015460409091019060ff1660018111156103e5576103e5611d79565b60018111156103f6576103f6611d79565b81526020016004820160019054906101000a900460ff16600181111561041e5761041e611d79565b600181111561042f5761042f611d79565b8152604080518082019091526005830180546001600160a01b0381168352602093840193830190600160a01b900460ff16600281111561047157610471611d79565b600281111561048257610482611d79565b90525090525092915050565b600160209081526000918252604091829020825180840190935280546001600160a01b0381168452909291839190830190600160a01b900460ff1660028111156104da576104da611d79565b60028111156104eb576104eb611d79565b905250604080518082019091526001830180546001600160a01b03811683529293926020830190600160a01b900460ff16600281111561052d5761052d611d79565b600281111561053e5761053e611d79565b815250509080600201805461055290611d15565b80601f016020809104026020016040519081016040528092919081815260200182805461057e90611d15565b80156105cb5780601f106105a0576101008083540402835291602001916105cb565b820191906000526020600020905b8154815290600101906020018083116105ae57829003601f168201915b5050505060038301546004840154604080518082019091526005860180546001600160a01b03811683529596939560ff8085169650610100909404841694936020840191600160a01b900416600281111561062857610628611d79565b600281111561063957610639611d79565b905250905087565b823481811461064f57600080fd5b836001600160a01b0316836001600160a01b03161415801561067a57506001600160a01b0383163314155b6106e55760405162461bcd60e51b815260206004820152603260248201527f54686520636c69656e74206f7220667265656c616e6365722063616e6e6f742060448201527162652074686520746869726420706172747960701b606482015260840160405180910390fd5b6040805180820182526001600160a01b0386811682526002602080840182905284518086018652338152808201839052855160e0810187528581528083018290528087018d9052606081018c905260006080820152600160a082015286518088019097529389168652939460c0840192909182015290526000805481526001602090815260409091208251805182546001600160a01b031981166001600160a01b03909216918217845593820151929391928492909183916001600160a81b03191617600160a01b8360028111156107bf576107bf611d79565b0217905550505060208281015180516001840180546001600160a01b031981166001600160a01b03909316928317825593830151929390929183916001600160a81b03191617600160a01b83600281111561081c5761081c611d79565b021790555050506040820151805161083e9160028401916020909101906117f0565b5060608201516003820155608082015160048201805460ff19166001838181111561086b5761086b611d79565b021790555060a082015160048201805461ff00191661010083600181111561089557610895611d79565b021790555060c082015180516005830180546001600160a01b031981166001600160a01b0390931692831782556020840151919283916001600160a81b03191617600160a01b8360028111156108ed576108ed611d79565b021790555050600080546001600160a01b038b16825260026020908152604080842083905533845260038252808420839055918352600190529081902090517f1b8ca9d6d6a53ae2ccaea11da256089d3ffa1b5c99331355e14022637ed7afb4945061095c9350909150611bfe565b60405180910390a160008054908061097383611d50565b91905055505050505050505050565b60008281526001602052604090206005015482906001600160a01b031633146109aa57600080fd5b8260008060008381526001602081905260409091206004015460ff16908111156109d6576109d6611d79565b146109e057600080fd5b84600180600083815260016020819052604090912060040154610100900460ff1690811115610a1157610a11611d79565b14610a1b57600080fd5b6000878152600160205260408082208151610120810190925280546001600160a01b03811660e0840190815283918390610100840190600160a01b900460ff166002811115610a6c57610a6c611d79565b6002811115610a7d57610a7d611d79565b9052508152604080518082019091526001830180546001600160a01b0381168352602093840193830190600160a01b900460ff166002811115610ac257610ac2611d79565b6002811115610ad357610ad3611d79565b815250508152602001600282018054610aeb90611d15565b80601f0160208091040260200160405190810160405280929190818152602001828054610b1790611d15565b8015610b645780601f10610b3957610100808354040283529160200191610b64565b820191906000526020600020905b815481529060010190602001808311610b4757829003601f168201915b505050918352505060038201546020820152600482015460409091019060ff166001811115610b9557610b95611d79565b6001811115610ba657610ba6611d79565b81526020016004820160019054906101000a900460ff166001811115610bce57610bce611d79565b6001811115610bdf57610bdf611d79565b8152604080518082019091526005830180546001600160a01b0381168352602093840193830190600160a01b900460ff166002811115610c2157610c21611d79565b6002811115610c3257610c32611d79565b90525090525090506000876002811115610c4e57610c4e611d79565b1415610cc15780515160608201516040516001600160a01b039092169181156108fc0291906000818181858888f19350505050158015610c92573d6000803e3d6000fd5b506040517f3c68eb814466095d6413c3d54053314f3612010356401ad9ab12567846d9625490600090a1610d47565b6001876002811115610cd557610cd5611d79565b1415610d475760208101515160608201516040516001600160a01b039092169181156108fc0291906000818181858888f19350505050158015610d1c573d6000803e3d6000fd5b506040517f3c68eb814466095d6413c3d54053314f3612010356401ad9ab12567846d9625490600090a15b5050505050505050565b6000828152600160208190526040909120015482906001600160a01b03163314610d7a57600080fd5b8260008060008381526001602081905260409091206004015460ff1690811115610da657610da6611d79565b14610db057600080fd5b84600080600083815260016020819052604090912060040154610100900460ff1690811115610de157610de1611d79565b14610deb57600080fd5b6000878152600160205260408082208151610120810190925280546001600160a01b03811660e0840190815283918390610100840190600160a01b900460ff166002811115610e3c57610e3c611d79565b6002811115610e4d57610e4d611d79565b9052508152604080518082019091526001830180546001600160a01b0381168352602093840193830190600160a01b900460ff166002811115610e9257610e92611d79565b6002811115610ea357610ea3611d79565b815250508152602001600282018054610ebb90611d15565b80601f0160208091040260200160405190810160405280929190818152602001828054610ee790611d15565b8015610f345780601f10610f0957610100808354040283529160200191610f34565b820191906000526020600020905b815481529060010190602001808311610f1757829003601f168201915b505050918352505060038201546020820152600482015460409091019060ff166001811115610f6557610f65611d79565b6001811115610f7657610f76611d79565b81526020016004820160019054906101000a900460ff166001811115610f9e57610f9e611d79565b6001811115610faf57610faf611d79565b8152604080518082019091526005830180546001600160a01b0381168352602093840193830190600160a01b900460ff166002811115610ff157610ff1611d79565b600281111561100257611002611d79565b9052509052506020808201519192500187600281111561102457611024611d79565b9081600281111561103757611037611d79565b9052506000816020015160200151600281111561105657611056611d79565b141561109a5780515160608201516040516001600160a01b039092169181156108fc0291906000818181858888f19350505050158015610c92573d6000803e3d6000fd5b600181602001516020015160028111156110b6576110b6611d79565b1480156110d8575060015b8151602001516002811115610cd557610cd5611d79565b15610d475760208101515160608201516040516001600160a01b039092169181156108fc0291906000818181858888f19350505050158015610d1c573d6000803e3d6000fd5b60008281526001602052604090205482906001600160a01b0316331461114357600080fd5b8260008060008381526001602081905260409091206004015460ff169081111561116f5761116f611d79565b1461117957600080fd5b84600080600083815260016020819052604090912060040154610100900460ff16908111156111aa576111aa611d79565b146111b457600080fd5b6000878152600160205260408082208151610120810190925280546001600160a01b03811660e0840190815283918390610100840190600160a01b900460ff16600281111561120557611205611d79565b600281111561121657611216611d79565b9052508152604080518082019091526001830180546001600160a01b0381168352602093840193830190600160a01b900460ff16600281111561125b5761125b611d79565b600281111561126c5761126c611d79565b81525050815260200160028201805461128490611d15565b80601f01602080910402602001604051908101604052809291908181526020018280546112b090611d15565b80156112fd5780601f106112d2576101008083540402835291602001916112fd565b820191906000526020600020905b8154815290600101906020018083116112e057829003601f168201915b505050918352505060038201546020820152600482015460409091019060ff16600181111561132e5761132e611d79565b600181111561133f5761133f611d79565b81526020016004820160019054906101000a900460ff16600181111561136757611367611d79565b600181111561137857611378611d79565b8152604080518082019091526005830180546001600160a01b0381168352602093840193830190600160a01b900460ff1660028111156113ba576113ba611d79565b60028111156113cb576113cb611d79565b905250905250602080820151919250018760028111156113ed576113ed611d79565b9081600281111561140057611400611d79565b905250805160200187600281111561141a5761141a611d79565b9081600281111561142d5761142d611d79565b9052506000816020015160200151600281111561144c5761144c611d79565b14801561146f57506000815160200151600281111561146d5761146d611d79565b145b156114b25780515160608201516040516001600160a01b039092169181156108fc0291906000818181858888f19350505050158015610c92573d6000803e3d6000fd5b60016110c1565b81348181146114c757600080fd5b6040805180820182526001600160a01b0385168152600260208083018290528351808501855233815280820192909252835160e08101855283815290810182905292830188905260608301879052909160808101600081526000602080830182905260408051808201825283815260028184018190529482015282548352600182529091208351805182546001600160a01b039091166001600160a01b0319821681178455938201519294919385939284926001600160a81b03191690911790600160a01b90849081111561159e5761159e611d79565b0217905550505060208281015180516001840180546001600160a01b031981166001600160a01b03909316928317825593830151929390929183916001600160a81b03191617600160a01b8360028111156115fb576115fb611d79565b021790555050506040820151805161161d9160028401916020909101906117f0565b5060608201516003820155608082015160048201805460ff19166001838181111561164a5761164a611d79565b021790555060a082015160048201805461ff00191661010083600181111561167457611674611d79565b021790555060c082015180516005830180546001600160a01b031981166001600160a01b0390931692831782556020840151919283916001600160a81b03191617600160a01b8360028111156116cc576116cc611d79565b021790555050600080546001600160a01b038a16825260026020908152604080842083905533845260038252808420839055918352600190529081902090517f1b8ca9d6d6a53ae2ccaea11da256089d3ffa1b5c99331355e14022637ed7afb4945061173b9350909150611bfe565b60405180910390a160008054908061175283611d50565b919050555050505050505050565b604080516101208101909152600060e082018181526101008301919091528190815260200161179f604080518082019091526000808252602082015290565b81526020016060815260200160008152602001600060018111156117c5576117c5611d79565b8152602001600081526020016117eb604080518082019091526000808252602082015290565b905290565b8280546117fc90611d15565b90600052602060002090601f01602090048101928261181e5760008555611864565b82601f1061183757805160ff1916838001178555611864565b82800160010185558215611864579182015b82811115611864578251825591602001919060010190611849565b50611870929150611874565b5090565b5b808211156118705760008155600101611875565b600082601f83011261189a57600080fd5b813567ffffffffffffffff808211156118b5576118b5611d8f565b604051601f8301601f19908116603f011681019082821181831017156118dd576118dd611d8f565b816040528381528660208588010111156118f657600080fd5b836020870160208301376000602085830101528094505050505092915050565b60006020828403121561192857600080fd5b813561193381611db8565b9392505050565b60008060006060848603121561194f57600080fd5b833567ffffffffffffffff81111561196657600080fd5b61197286828701611889565b93505060208401359150604084013561198a81611db8565b809150509250925092565b600080600080608085870312156119ab57600080fd5b843567ffffffffffffffff8111156119c257600080fd5b6119ce87828801611889565b9450506020850135925060408501356119e681611db8565b915060608501356119f681611db8565b939692955090935050565b600060208284031215611a1357600080fd5b5035919050565b60008060408385031215611a2d57600080fd5b82359150602083013560038110611a4357600080fd5b809150509250929050565b611a5781611da5565b9052565b60038110611a5757611a57611d79565b6000815180845260005b81811015611a9157602081850181015186830182015201611a75565b81811115611aa3576000602083870101525b50601f01601f19169290920160200192915050565b80516001600160a01b0316825260208082015190611ad890840182611a5b565b505050565b80546001600160a01b0381168352611ad86020840160a083901c60ff16611a5b565b6000610140611b0e838b611ab8565b611b1b604084018a611ab8565b806080840152611b2d81840189611a6b565b9150508560a0830152611b3f85611da5565b8460c0830152611b4e84611da5565b8360e0830152611b62610100830184611ab8565b98975050505050505050565b60208152611b80602082018351611ab8565b60006020830151611b946060840182611ab8565b50604083015161014060a0840152611bb0610160840182611a6b565b9050606084015160c08401526080840151611bca81611da5565b60e084015260a0840151611bdd81611da5565b61010084015260c0840151611bf6610120850182611ab8565b509392505050565b60006020808352611c1181840185611add565b6001611c2260608501828701611add565b61014060a085015260028501805460009080841c84821680611c4557607f821691505b868210811415611c6357634e487b7160e01b84526022600452602484fd5b61016089018290526101808901818015611c845760018114611c9557611cc0565b60ff19851682528882019550611cc0565b60008781526020902060005b85811015611cba57815484820152908901908a01611ca1565b83019650505b5050505050600387015460c087015260048701549350611ce660e0870160ff8616611a4e565b611cfa610100870160ff8660081c16611a4e565b611d0b610120870160058901611add565b9695505050505050565b600181811c90821680611d2957607f821691505b60208210811415611d4a57634e487b7160e01b600052602260045260246000fd5b50919050565b6000600019821415611d7257634e487b7160e01b600052601160045260246000fd5b5060010190565b634e487b7160e01b600052602160045260246000fd5b634e487b7160e01b600052604160045260246000fd5b60028110611db557611db5611d79565b50565b6001600160a01b0381168114611db557600080fdfea26469706673582212201fd24a925f98ddb39f68edccb560ff180d4bfdfb31ce7de1fe8617d91df731dd64736f6c63430008070033",
    "sourcePath": "/Users/dsinghvi/Documents/faucet-Dapp/contracts/Freelancer.sol",
    "compiler": {
        "name": "solc",
        "version": "0.8.7+commit.e28d00a7"
    },
    "functionHashes": {
        "clientToContractId(address)": "b3d8487d",
        "clientVote(uint256,uint8)": "68886a2a",
        "contracts(uint256)": "474da79a",
        "freelancerVote(uint256,uint8)": "c64e9480",
        "freelanderToContractId(address)": "a3aa010d",
        "fundWork(string,uint256,address)": "caac51ba",
        "fundWorkWithThirdParty(string,uint256,address,address)": "50a74738",
        "getTask(uint256)": "1d65e77e",
        "getTaskForContractor(address)": "1a2fe137",
        "getTaskForFreelancer(address)": "cd62a1ae",
        "thirdPartyVote(uint256,uint8)": "558955fb"
    },
    "gasEstimates": {
        "creation": {
            "codeDepositCost": "1536600",
            "executionCost": "6616",
            "totalCost": "1543216"
        },
        "external": {
            "clientToContractId(address)": "2546",
            "clientVote(uint256,uint8)": "infinite",
            "contracts(uint256)": "infinite",
            "freelancerVote(uint256,uint8)": "infinite",
            "freelanderToContractId(address)": "2524",
            "fundWork(string,uint256,address)": "infinite",
            "fundWorkWithThirdParty(string,uint256,address,address)": "infinite",
            "getTask(uint256)": "infinite",
            "getTaskForContractor(address)": "2521",
            "getTaskForFreelancer(address)": "2630",
            "thirdPartyVote(uint256,uint8)": "infinite"
        }
    }
}