{
    "contractName": "Freelancer",
    "abi": [
        {
            "inputs": [],
            "stateMutability": "nonpayable",
            "type": "constructor"
        },
        {
            "anonymous": false,
            "inputs": [],
            "name": "transferFunds",
            "type": "event"
        },
        {
            "anonymous": false,
            "inputs": [
                {
                    "components": [
                        {
                            "components": [
                                {
                                    "internalType": "address payable",
                                    "name": "addr",
                                    "type": "address"
                                },
                                {
                                    "internalType": "enum Freelancer.Vote",
                                    "name": "vote",
                                    "type": "uint8"
                                }
                            ],
                            "internalType": "struct Freelancer.Entity",
                            "name": "freelancer",
                            "type": "tuple"
                        },
                        {
                            "components": [
                                {
                                    "internalType": "address payable",
                                    "name": "addr",
                                    "type": "address"
                                },
                                {
                                    "internalType": "enum Freelancer.Vote",
                                    "name": "vote",
                                    "type": "uint8"
                                }
                            ],
                            "internalType": "struct Freelancer.Entity",
                            "name": "client",
                            "type": "tuple"
                        },
                        {
                            "internalType": "string",
                            "name": "description",
                            "type": "string"
                        },
                        {
                            "internalType": "uint256",
                            "name": "value",
                            "type": "uint256"
                        },
                        {
                            "internalType": "enum Freelancer.Status",
                            "name": "status",
                            "type": "uint8"
                        },
                        {
                            "internalType": "enum Freelancer.ConsensusType",
                            "name": "consensusType",
                            "type": "uint8"
                        },
                        {
                            "components": [
                                {
                                    "internalType": "address payable",
                                    "name": "addr",
                                    "type": "address"
                                },
                                {
                                    "internalType": "enum Freelancer.Vote",
                                    "name": "vote",
                                    "type": "uint8"
                                }
                            ],
                            "internalType": "struct Freelancer.Entity",
                            "name": "thirdParty",
                            "type": "tuple"
                        },
                        {
                            "internalType": "uint256",
                            "name": "id",
                            "type": "uint256"
                        },
                        {
                            "internalType": "bool",
                            "name": "isPopulated",
                            "type": "bool"
                        }
                    ],
                    "indexed": false,
                    "internalType": "struct Freelancer.Work",
                    "name": "work",
                    "type": "tuple"
                }
            ],
            "name": "workFunded",
            "type": "event"
        },
        {
            "inputs": [
                {
                    "internalType": "address",
                    "name": "",
                    "type": "address"
                },
                {
                    "internalType": "uint256",
                    "name": "",
                    "type": "uint256"
                }
            ],
            "name": "clientToContractId",
            "outputs": [
                {
                    "internalType": "uint256",
                    "name": "",
                    "type": "uint256"
                }
            ],
            "stateMutability": "view",
            "type": "function"
        },
        {
            "inputs": [
                {
                    "internalType": "uint256",
                    "name": "_id",
                    "type": "uint256"
                },
                {
                    "internalType": "enum Freelancer.Vote",
                    "name": "vote",
                    "type": "uint8"
                }
            ],
            "name": "clientVote",
            "outputs": [],
            "stateMutability": "nonpayable",
            "type": "function"
        },
        {
            "inputs": [
                {
                    "internalType": "uint256",
                    "name": "",
                    "type": "uint256"
                }
            ],
            "name": "contracts",
            "outputs": [
                {
                    "components": [
                        {
                            "internalType": "address payable",
                            "name": "addr",
                            "type": "address"
                        },
                        {
                            "internalType": "enum Freelancer.Vote",
                            "name": "vote",
                            "type": "uint8"
                        }
                    ],
                    "internalType": "struct Freelancer.Entity",
                    "name": "freelancer",
                    "type": "tuple"
                },
                {
                    "components": [
                        {
                            "internalType": "address payable",
                            "name": "addr",
                            "type": "address"
                        },
                        {
                            "internalType": "enum Freelancer.Vote",
                            "name": "vote",
                            "type": "uint8"
                        }
                    ],
                    "internalType": "struct Freelancer.Entity",
                    "name": "client",
                    "type": "tuple"
                },
                {
                    "internalType": "string",
                    "name": "description",
                    "type": "string"
                },
                {
                    "internalType": "uint256",
                    "name": "value",
                    "type": "uint256"
                },
                {
                    "internalType": "enum Freelancer.Status",
                    "name": "status",
                    "type": "uint8"
                },
                {
                    "internalType": "enum Freelancer.ConsensusType",
                    "name": "consensusType",
                    "type": "uint8"
                },
                {
                    "components": [
                        {
                            "internalType": "address payable",
                            "name": "addr",
                            "type": "address"
                        },
                        {
                            "internalType": "enum Freelancer.Vote",
                            "name": "vote",
                            "type": "uint8"
                        }
                    ],
                    "internalType": "struct Freelancer.Entity",
                    "name": "thirdParty",
                    "type": "tuple"
                },
                {
                    "internalType": "uint256",
                    "name": "id",
                    "type": "uint256"
                },
                {
                    "internalType": "bool",
                    "name": "isPopulated",
                    "type": "bool"
                }
            ],
            "stateMutability": "view",
            "type": "function"
        },
        {
            "inputs": [
                {
                    "internalType": "address",
                    "name": "",
                    "type": "address"
                },
                {
                    "internalType": "uint256",
                    "name": "",
                    "type": "uint256"
                }
            ],
            "name": "freelancerToContractId",
            "outputs": [
                {
                    "internalType": "uint256",
                    "name": "",
                    "type": "uint256"
                }
            ],
            "stateMutability": "view",
            "type": "function"
        },
        {
            "inputs": [
                {
                    "internalType": "uint256",
                    "name": "_id",
                    "type": "uint256"
                },
                {
                    "internalType": "enum Freelancer.Vote",
                    "name": "vote",
                    "type": "uint8"
                }
            ],
            "name": "freelancerVote",
            "outputs": [],
            "stateMutability": "nonpayable",
            "type": "function"
        },
        {
            "inputs": [
                {
                    "internalType": "uint256",
                    "name": "_id",
                    "type": "uint256"
                },
                {
                    "internalType": "string",
                    "name": "_description",
                    "type": "string"
                },
                {
                    "internalType": "uint256",
                    "name": "_value",
                    "type": "uint256"
                },
                {
                    "internalType": "address payable",
                    "name": "_freelancer",
                    "type": "address"
                }
            ],
            "name": "fundWork",
            "outputs": [],
            "stateMutability": "payable",
            "type": "function"
        },
        {
            "inputs": [
                {
                    "internalType": "uint256",
                    "name": "_id",
                    "type": "uint256"
                },
                {
                    "internalType": "string",
                    "name": "_description",
                    "type": "string"
                },
                {
                    "internalType": "uint256",
                    "name": "_value",
                    "type": "uint256"
                },
                {
                    "internalType": "address payable",
                    "name": "_freelancer",
                    "type": "address"
                },
                {
                    "internalType": "address payable",
                    "name": "_thirdParty",
                    "type": "address"
                }
            ],
            "name": "fundWorkWithThirdParty",
            "outputs": [],
            "stateMutability": "payable",
            "type": "function"
        },
        {
            "inputs": [
                {
                    "internalType": "uint256",
                    "name": "_id",
                    "type": "uint256"
                }
            ],
            "name": "getTask",
            "outputs": [
                {
                    "components": [
                        {
                            "components": [
                                {
                                    "internalType": "address payable",
                                    "name": "addr",
                                    "type": "address"
                                },
                                {
                                    "internalType": "enum Freelancer.Vote",
                                    "name": "vote",
                                    "type": "uint8"
                                }
                            ],
                            "internalType": "struct Freelancer.Entity",
                            "name": "freelancer",
                            "type": "tuple"
                        },
                        {
                            "components": [
                                {
                                    "internalType": "address payable",
                                    "name": "addr",
                                    "type": "address"
                                },
                                {
                                    "internalType": "enum Freelancer.Vote",
                                    "name": "vote",
                                    "type": "uint8"
                                }
                            ],
                            "internalType": "struct Freelancer.Entity",
                            "name": "client",
                            "type": "tuple"
                        },
                        {
                            "internalType": "string",
                            "name": "description",
                            "type": "string"
                        },
                        {
                            "internalType": "uint256",
                            "name": "value",
                            "type": "uint256"
                        },
                        {
                            "internalType": "enum Freelancer.Status",
                            "name": "status",
                            "type": "uint8"
                        },
                        {
                            "internalType": "enum Freelancer.ConsensusType",
                            "name": "consensusType",
                            "type": "uint8"
                        },
                        {
                            "components": [
                                {
                                    "internalType": "address payable",
                                    "name": "addr",
                                    "type": "address"
                                },
                                {
                                    "internalType": "enum Freelancer.Vote",
                                    "name": "vote",
                                    "type": "uint8"
                                }
                            ],
                            "internalType": "struct Freelancer.Entity",
                            "name": "thirdParty",
                            "type": "tuple"
                        },
                        {
                            "internalType": "uint256",
                            "name": "id",
                            "type": "uint256"
                        },
                        {
                            "internalType": "bool",
                            "name": "isPopulated",
                            "type": "bool"
                        }
                    ],
                    "internalType": "struct Freelancer.Work",
                    "name": "",
                    "type": "tuple"
                }
            ],
            "stateMutability": "view",
            "type": "function"
        },
        {
            "inputs": [
                {
                    "internalType": "address",
                    "name": "_address",
                    "type": "address"
                }
            ],
            "name": "getTaskForClient",
            "outputs": [
                {
                    "internalType": "uint256[]",
                    "name": "",
                    "type": "uint256[]"
                }
            ],
            "stateMutability": "view",
            "type": "function"
        },
        {
            "inputs": [
                {
                    "internalType": "address",
                    "name": "_address",
                    "type": "address"
                }
            ],
            "name": "getTaskForFreelancer",
            "outputs": [
                {
                    "internalType": "uint256[]",
                    "name": "",
                    "type": "uint256[]"
                }
            ],
            "stateMutability": "view",
            "type": "function"
        },
        {
            "inputs": [
                {
                    "internalType": "uint256",
                    "name": "_id",
                    "type": "uint256"
                },
                {
                    "internalType": "enum Freelancer.Vote",
                    "name": "vote",
                    "type": "uint8"
                }
            ],
            "name": "thirdPartyVote",
            "outputs": [],
            "stateMutability": "nonpayable",
            "type": "function"
        }
    ],
    "bytecode": "608060405234801561001057600080fd5b506122cb806100206000396000f3fe60806040526004361061009c5760003560e01c8063474da79a11610064578063474da79a14610149578063558955fb1461017e57806368886a2a1461019e578063c64e9480146101be578063cd62a1ae146101de578063e670ec3c1461020b57600080fd5b806304c8db5c146100a15780630fec528b146100d457806319597425146100f45780631d65e77e14610109578063323dd29e14610136575b600080fd5b3480156100ad57600080fd5b506100c16100bc366004611d0b565b61022b565b6040519081526020015b60405180910390f35b3480156100e057600080fd5b506100c16100ef366004611d0b565b61025c565b610107610102366004611d84565b610278565b005b34801561011557600080fd5b50610129610124366004611d37565b6105db565b6040516100cb91906120bc565b610107610144366004611de7565b610822565b34801561015557600080fd5b50610169610164366004611d37565b610c0b565b6040516100cb9998979695949392919061203b565b34801561018a57600080fd5b50610107610199366004611d50565b610dca565b3480156101aa57600080fd5b506101076101b9366004611d50565b611242565b3480156101ca57600080fd5b506101076101d9366004611d50565b611671565b3480156101ea57600080fd5b506101fe6101f9366004611ce7565b611a4b565b6040516100cb9190611fb0565b34801561021757600080fd5b506101fe610226366004611ce7565b611ab7565b6002602052816000526040600020818154811061024757600080fd5b90600052602060002001600091509150505481565b6001602052816000526040600020818154811061024757600080fd5b81348181146102a25760405162461bcd60e51b815260040161029990611ff4565b60405180910390fd5b600086815260208190526040902060070154869060ff16156103065760405162461bcd60e51b815260206004820152601d60248201527f5461736b2069642068617320616c7265616479206265656e20757365640000006044820152606401610299565b6040805180820182526001600160a01b03861681526002602080830182905283518085018552338152808201929092528351610120810185528381529081018290529283018990526060830188905290916080810160008152602001600081526040805180820190915260008152602091820191810160029052815260208082018c9052600160409283015260008c8152808252919091208251805182546001600160a01b031981166001600160a01b03909216918217845593820151929391928492909183916001600160a81b03191617600160a01b8360028111156103ef576103ef612241565b0217905550505060208281015180516001840180546001600160a01b031981166001600160a01b03909316928317825593830151929390929183916001600160a81b03191617600160a01b83600281111561044c5761044c612241565b021790555050506040820151805161046e916002840191602090910190611b21565b5060608201516003820155608082015160048201805460ff19166001838181111561049b5761049b612241565b021790555060a082015160048201805461ff0019166101008360018111156104c5576104c5612241565b021790555060c082015180516005830180546001600160a01b031981166001600160a01b0390931692831782556020840151919283916001600160a81b03191617600160a01b83600281111561051d5761051d612241565b0217905550505060e08201516006820155610100909101516007909101805460ff19169115159190911790556001600160a01b038616600090815260016020818152604080842080548085018255908552828520018d9055338452600282528084208054938401815584528184209092018c90558b83528290529081902090517ff7d7e8d5c058cf59e0531caf95b6c75eb031314d5b1b0b2cc63aff507a71b286916105c891612164565b60405180910390a1505050505050505050565b6105e3611ba5565b600082815260208190526040908190208151610160810190925280546001600160a01b038116610120840190815283918390610140840190600160a01b900460ff16600281111561063657610636612241565b600281111561064757610647612241565b9052508152604080518082019091526001830180546001600160a01b0381168352602093840193830190600160a01b900460ff16600281111561068c5761068c612241565b600281111561069d5761069d612241565b8152505081526020016002820180546106b590612206565b80601f01602080910402602001604051908101604052809291908181526020018280546106e190612206565b801561072e5780601f106107035761010080835404028352916020019161072e565b820191906000526020600020905b81548152906001019060200180831161071157829003601f168201915b505050918352505060038201546020820152600482015460409091019060ff16600181111561075f5761075f612241565b600181111561077057610770612241565b81526020016004820160019054906101000a900460ff16600181111561079857610798612241565b60018111156107a9576107a9612241565b8152604080518082019091526005830180546001600160a01b0381168352602093840193830190600160a01b900460ff1660028111156107eb576107eb612241565b60028111156107fc576107fc612241565b90525081526006820154602082015260079091015460ff16151560409091015292915050565b82348181146108435760405162461bcd60e51b815260040161029990611ff4565b600087815260208190526040902060070154879060ff16156108a75760405162461bcd60e51b815260206004820152601d60248201527f5461736b2069642068617320616c7265616479206265656e20757365640000006044820152606401610299565b846001600160a01b0316846001600160a01b0316141580156108d257506001600160a01b0384163314155b6109395760405162461bcd60e51b815260206004820152603260248201527f54686520636c69656e74206f7220667265656c616e6365722063616e6e6f742060448201527162652074686520746869726420706172747960701b6064820152608401610299565b6040805180820182526001600160a01b03878116825260026020808401829052845180860186523381528082018390528551610120810187528581528083018290528087018e9052606081018d905260006080820152600160a08201528651808801909752938a168652939460c08401929091820152815260208082018d9052600160409283015260008d8152808252919091208251805182546001600160a01b031981166001600160a01b03909216918217845593820151929391928492909183916001600160a81b03191617600160a01b836002811115610a1e57610a1e612241565b0217905550505060208281015180516001840180546001600160a01b031981166001600160a01b03909316928317825593830151929390929183916001600160a81b03191617600160a01b836002811115610a7b57610a7b612241565b0217905550505060408201518051610a9d916002840191602090910190611b21565b5060608201516003820155608082015160048201805460ff191660018381811115610aca57610aca612241565b021790555060a082015160048201805461ff001916610100836001811115610af457610af4612241565b021790555060c082015180516005830180546001600160a01b031981166001600160a01b0390931692831782556020840151919283916001600160a81b03191617600160a01b836002811115610b4c57610b4c612241565b0217905550505060e08201516006820155610100909101516007909101805460ff19169115159190911790556001600160a01b038716600090815260016020818152604080842080548085018255908552828520018e9055338452600282528084208054938401815584528184209092018d90558c83528290529081902090517ff7d7e8d5c058cf59e0531caf95b6c75eb031314d5b1b0b2cc63aff507a71b28691610bf791612164565b60405180910390a150505050505050505050565b60006020818152918152604090819020815180830190925280546001600160a01b03811683529092839190830190600160a01b900460ff166002811115610c5457610c54612241565b6002811115610c6557610c65612241565b905250604080518082019091526001830180546001600160a01b03811683529293926020830190600160a01b900460ff166002811115610ca757610ca7612241565b6002811115610cb857610cb8612241565b8152505090806002018054610ccc90612206565b80601f0160208091040260200160405190810160405280929190818152602001828054610cf890612206565b8015610d455780601f10610d1a57610100808354040283529160200191610d45565b820191906000526020600020905b815481529060010190602001808311610d2857829003601f168201915b5050505060038301546004840154604080518082019091526005860180546001600160a01b03811683529596939560ff8085169650610100909404841694936020840191600160a01b9004166002811115610da257610da2612241565b6002811115610db357610db3612241565b905250600682015460079092015490919060ff1689565b60008281526020819052604090206005015482906001600160a01b03163314610e4b5760405162461bcd60e51b815260206004820152602d60248201527f4f6e6c79206170706f696e7465642074686972642070617274792063616e206360448201526c616c6c207468697320666c6f7760981b6064820152608401610299565b8260008060008381526020819052604090206004015460ff166001811115610e7557610e75612241565b14610e7f57600080fd5b84600180600083815260208190526040902060040154610100900460ff166001811115610eae57610eae612241565b14610eb857600080fd5b6000878152602081905260409020600501805487919060ff60a01b1916600160a01b836002811115610eec57610eec612241565b02179055506000878152602081905260408082208151610160810190925280546001600160a01b038116610120840190815283918390610140840190600160a01b900460ff166002811115610f4357610f43612241565b6002811115610f5457610f54612241565b9052508152604080518082019091526001830180546001600160a01b0381168352602093840193830190600160a01b900460ff166002811115610f9957610f99612241565b6002811115610faa57610faa612241565b815250508152602001600282018054610fc290612206565b80601f0160208091040260200160405190810160405280929190818152602001828054610fee90612206565b801561103b5780601f106110105761010080835404028352916020019161103b565b820191906000526020600020905b81548152906001019060200180831161101e57829003601f168201915b505050918352505060038201546020820152600482015460409091019060ff16600181111561106c5761106c612241565b600181111561107d5761107d612241565b81526020016004820160019054906101000a900460ff1660018111156110a5576110a5612241565b60018111156110b6576110b6612241565b8152604080518082019091526005830180546001600160a01b0381168352602093840193830190600160a01b900460ff1660028111156110f8576110f8612241565b600281111561110957611109612241565b90525081526006820154602082015260079091015460ff1615156040909101529050600087600281111561113f5761113f612241565b14156111b25780515160608201516040516001600160a01b039092169181156108fc0291906000818181858888f19350505050158015611183573d6000803e3d6000fd5b506040517f3c68eb814466095d6413c3d54053314f3612010356401ad9ab12567846d9625490600090a1611238565b60018760028111156111c6576111c6612241565b14156112385760208101515160608201516040516001600160a01b039092169181156108fc0291906000818181858888f1935050505015801561120d573d6000803e3d6000fd5b506040517f3c68eb814466095d6413c3d54053314f3612010356401ad9ab12567846d9625490600090a15b5050505050505050565b60008281526020819052604090206001015482906001600160a01b031633146112ad5760405162461bcd60e51b815260206004820152601e60248201527f4f6e6c7920636c69656e742063616e2063616c6c207468697320666c6f7700006044820152606401610299565b8260008060008381526020819052604090206004015460ff1660018111156112d7576112d7612241565b146112e157600080fd5b84600080600083815260208190526040902060040154610100900460ff16600181111561131057611310612241565b1461131a57600080fd5b6000878152602081905260409020600101805487919060ff60a01b1916600160a01b83600281111561134e5761134e612241565b02179055506000878152602081905260408082208151610160810190925280546001600160a01b038116610120840190815283918390610140840190600160a01b900460ff1660028111156113a5576113a5612241565b60028111156113b6576113b6612241565b9052508152604080518082019091526001830180546001600160a01b0381168352602093840193830190600160a01b900460ff1660028111156113fb576113fb612241565b600281111561140c5761140c612241565b81525050815260200160028201805461142490612206565b80601f016020809104026020016040519081016040528092919081815260200182805461145090612206565b801561149d5780601f106114725761010080835404028352916020019161149d565b820191906000526020600020905b81548152906001019060200180831161148057829003601f168201915b505050918352505060038201546020820152600482015460409091019060ff1660018111156114ce576114ce612241565b60018111156114df576114df612241565b81526020016004820160019054906101000a900460ff16600181111561150757611507612241565b600181111561151857611518612241565b8152604080518082019091526005830180546001600160a01b0381168352602093840193830190600160a01b900460ff16600281111561155a5761155a612241565b600281111561156b5761156b612241565b90525081526006820154602082015260079091015460ff1615156040909101529050600081602001516020015160028111156115a9576115a9612241565b14156115ed5780515160608201516040516001600160a01b039092169181156108fc0291906000818181858888f19350505050158015611183573d6000803e3d6000fd5b6001816020015160200151600281111561160957611609612241565b14801561162b575060015b81516020015160028111156111c6576111c6612241565b156112385760208101515160608201516040516001600160a01b039092169181156108fc0291906000818181858888f1935050505015801561120d573d6000803e3d6000fd5b60008281526020819052604090205482906001600160a01b031633146116e55760405162461bcd60e51b815260206004820152602360248201527f4f6e6c7920667265656c616e6365722063616e2063616c6c207468697320666c60448201526237bb9760e91b6064820152608401610299565b8260008060008381526020819052604090206004015460ff16600181111561170f5761170f612241565b1461171957600080fd5b84600080600083815260208190526040902060040154610100900460ff16600181111561174857611748612241565b1461175257600080fd5b6000878152602081905260409020805487919060ff60a01b1916600160a01b83600281111561178357611783612241565b02179055506000878152602081905260408082208151610160810190925280546001600160a01b038116610120840190815283918390610140840190600160a01b900460ff1660028111156117da576117da612241565b60028111156117eb576117eb612241565b9052508152604080518082019091526001830180546001600160a01b0381168352602093840193830190600160a01b900460ff16600281111561183057611830612241565b600281111561184157611841612241565b81525050815260200160028201805461185990612206565b80601f016020809104026020016040519081016040528092919081815260200182805461188590612206565b80156118d25780601f106118a7576101008083540402835291602001916118d2565b820191906000526020600020905b8154815290600101906020018083116118b557829003601f168201915b505050918352505060038201546020820152600482015460409091019060ff16600181111561190357611903612241565b600181111561191457611914612241565b81526020016004820160019054906101000a900460ff16600181111561193c5761193c612241565b600181111561194d5761194d612241565b8152604080518082019091526005830180546001600160a01b0381168352602093840193830190600160a01b900460ff16600281111561198f5761198f612241565b60028111156119a0576119a0612241565b90525081526006820154602082015260079091015460ff1615156040909101529050600081602001516020015160028111156119de576119de612241565b148015611a015750600081516020015160028111156119ff576119ff612241565b145b15611a445780515160608201516040516001600160a01b039092169181156108fc0291906000818181858888f19350505050158015611183573d6000803e3d6000fd5b6001611614565b6001600160a01b038116600090815260016020908152604091829020805483518184028101840190945280845260609392830182828015611aab57602002820191906000526020600020905b815481526020019060010190808311611a97575b50505050509050919050565b6001600160a01b038116600090815260026020908152604091829020805483518184028101840190945280845260609392830182828015611aab5760200282019190600052602060002090815481526020019060010190808311611a975750505050509050919050565b828054611b2d90612206565b90600052602060002090601f016020900481019282611b4f5760008555611b95565b82601f10611b6857805160ff1916838001178555611b95565b82800160010185558215611b95579182015b82811115611b95578251825591602001919060010190611b7a565b50611ba1929150611c45565b5090565b6040805161016081019091526000610120820181815261014083019190915281908152602001611be5604080518082019091526000808252602082015290565b8152602001606081526020016000815260200160006001811115611c0b57611c0b612241565b815260200160008152602001611c31604080518082019091526000808252602082015290565b815260006020820181905260409091015290565b5b80821115611ba15760008155600101611c46565b600082601f830112611c6b57600080fd5b813567ffffffffffffffff80821115611c8657611c86612257565b604051601f8301601f19908116603f01168101908282118183101715611cae57611cae612257565b81604052838152866020858801011115611cc757600080fd5b836020870160208301376000602085830101528094505050505092915050565b600060208284031215611cf957600080fd5b8135611d0481612280565b9392505050565b60008060408385031215611d1e57600080fd5b8235611d2981612280565b946020939093013593505050565b600060208284031215611d4957600080fd5b5035919050565b60008060408385031215611d6357600080fd5b82359150602083013560038110611d7957600080fd5b809150509250929050565b60008060008060808587031215611d9a57600080fd5b84359350602085013567ffffffffffffffff811115611db857600080fd5b611dc487828801611c5a565b935050604085013591506060850135611ddc81612280565b939692955090935050565b600080600080600060a08688031215611dff57600080fd5b85359450602086013567ffffffffffffffff811115611e1d57600080fd5b611e2988828901611c5a565b945050604086013592506060860135611e4181612280565b91506080860135611e5181612280565b809150509295509295909350565b611e688161226d565b9052565b60038110611e6857611e68612241565b6000815180845260005b81811015611ea257602081850181015186830182015201611e86565b81811115611eb4576000602083870101525b50601f01601f19169290920160200192915050565b8054600090600181811c9080831680611ee357607f831692505b6020808410821415611f0557634e487b7160e01b600052602260045260246000fd5b83885260208801828015611f205760018114611f3157611f5c565b60ff19871682528282019750611f5c565b60008981526020902060005b87811015611f5657815484820152908601908401611f3d565b83019850505b5050505050505092915050565b80516001600160a01b0316825260208082015190611f8990840182611e6c565b505050565b80546001600160a01b0381168352611f896020840160a083901c60ff16611e6c565b6020808252825182820181905260009190848201906040850190845b81811015611fe857835183529284019291840191600101611fcc565b50909695505050505050565b60208082526027908201527f46756e647320617265206e6f7420657175616c20746f20617070726f7665642060408201526630b6b7bab73a1760c91b606082015260800190565b600061018061204a838d611f69565b612057604084018c611f69565b8060808401526120698184018b611e7c565b9150508760a083015261207b8761226d565b8660c083015261208a8661226d565b8560e083015261209e610100830186611f69565b836101408301528215156101608301529a9950505050505050505050565b602081526120ce602082018351611f69565b600060208301516120e26060840182611f69565b5060408301516101808060a08501526120ff6101a0850183611e7c565b9150606085015160c0850152608085015161211d60e0860182611e5f565b5060a085015161010061213281870183611e5f565b60c08701519150612147610120870183611f69565b60e087015161016087015290950151151593019290925250919050565b602081526121756020820183611f8e565b6121856060820160018401611f8e565b60006101808060a08401526121a16101a0840160028601611ec9565b600385015460c085015260048501546121c060e0860160ff8316611e5f565b6121d4610100860160ff8360081c16611e5f565b506121e6610120850160058701611f8e565b600685015461016085015260079094015460ff1615159201919091525090565b600181811c9082168061221a57607f821691505b6020821081141561223b57634e487b7160e01b600052602260045260246000fd5b50919050565b634e487b7160e01b600052602160045260246000fd5b634e487b7160e01b600052604160045260246000fd5b6002811061227d5761227d612241565b50565b6001600160a01b038116811461227d57600080fdfea2646970667358221220e0591f7e81ef1d505a1bd23d2c0284db37a353568ac7ec0986fc61be0722e0ba64736f6c63430008070033",
    "sourcePath": "/Users/dsinghvi/Documents/faucet-Dapp/contracts/Freelancer.sol",
    "compiler": {
        "name": "solc",
        "version": "0.8.7+commit.e28d00a7"
    },
    "functionHashes": {
        "clientToContractId(address,uint256)": "04c8db5c",
        "clientVote(uint256,uint8)": "68886a2a",
        "contracts(uint256)": "474da79a",
        "freelancerToContractId(address,uint256)": "0fec528b",
        "freelancerVote(uint256,uint8)": "c64e9480",
        "fundWork(uint256,string,uint256,address)": "19597425",
        "fundWorkWithThirdParty(uint256,string,uint256,address,address)": "323dd29e",
        "getTask(uint256)": "1d65e77e",
        "getTaskForClient(address)": "e670ec3c",
        "getTaskForFreelancer(address)": "cd62a1ae",
        "thirdPartyVote(uint256,uint8)": "558955fb"
    },
    "gasEstimates": {
        "creation": {
            "codeDepositCost": "1781400",
            "executionCost": "1877",
            "totalCost": "1783277"
        },
        "external": {
            "clientToContractId(address,uint256)": "4728",
            "clientVote(uint256,uint8)": "infinite",
            "contracts(uint256)": "infinite",
            "freelancerToContractId(address,uint256)": "4750",
            "freelancerVote(uint256,uint8)": "infinite",
            "fundWork(uint256,string,uint256,address)": "infinite",
            "fundWorkWithThirdParty(uint256,string,uint256,address,address)": "infinite",
            "getTask(uint256)": "infinite",
            "getTaskForClient(address)": "infinite",
            "getTaskForFreelancer(address)": "infinite",
            "thirdPartyVote(uint256,uint8)": "infinite"
        }
    }
}