{
    "contractName": "Freelancer",
    "abi": [
        {
            "inputs": [],
            "stateMutability": "nonpayable",
            "type": "constructor"
        },
        {
            "anonymous": false,
            "inputs": [],
            "name": "transferFunds",
            "type": "event"
        },
        {
            "anonymous": false,
            "inputs": [
                {
                    "components": [
                        {
                            "components": [
                                {
                                    "internalType": "address payable",
                                    "name": "addr",
                                    "type": "address"
                                },
                                {
                                    "internalType": "enum Freelancer.Vote",
                                    "name": "vote",
                                    "type": "uint8"
                                }
                            ],
                            "internalType": "struct Freelancer.Entity",
                            "name": "freelancer",
                            "type": "tuple"
                        },
                        {
                            "components": [
                                {
                                    "internalType": "address payable",
                                    "name": "addr",
                                    "type": "address"
                                },
                                {
                                    "internalType": "enum Freelancer.Vote",
                                    "name": "vote",
                                    "type": "uint8"
                                }
                            ],
                            "internalType": "struct Freelancer.Entity",
                            "name": "client",
                            "type": "tuple"
                        },
                        {
                            "internalType": "string",
                            "name": "description",
                            "type": "string"
                        },
                        {
                            "internalType": "uint256",
                            "name": "value",
                            "type": "uint256"
                        },
                        {
                            "internalType": "enum Freelancer.Status",
                            "name": "status",
                            "type": "uint8"
                        },
                        {
                            "internalType": "enum Freelancer.ConsensusType",
                            "name": "consensusType",
                            "type": "uint8"
                        },
                        {
                            "components": [
                                {
                                    "internalType": "address payable",
                                    "name": "addr",
                                    "type": "address"
                                },
                                {
                                    "internalType": "enum Freelancer.Vote",
                                    "name": "vote",
                                    "type": "uint8"
                                }
                            ],
                            "internalType": "struct Freelancer.Entity",
                            "name": "thirdParty",
                            "type": "tuple"
                        }
                    ],
                    "indexed": false,
                    "internalType": "struct Freelancer.Work",
                    "name": "work",
                    "type": "tuple"
                }
            ],
            "name": "workFunded",
            "type": "event"
        },
        {
            "inputs": [
                {
                    "internalType": "address",
                    "name": "",
                    "type": "address"
                }
            ],
            "name": "clientToContractId",
            "outputs": [
                {
                    "internalType": "uint256",
                    "name": "",
                    "type": "uint256"
                }
            ],
            "stateMutability": "view",
            "type": "function"
        },
        {
            "inputs": [
                {
                    "internalType": "uint256",
                    "name": "_id",
                    "type": "uint256"
                },
                {
                    "internalType": "enum Freelancer.Vote",
                    "name": "vote",
                    "type": "uint8"
                }
            ],
            "name": "clientVote",
            "outputs": [],
            "stateMutability": "nonpayable",
            "type": "function"
        },
        {
            "inputs": [
                {
                    "internalType": "uint256",
                    "name": "",
                    "type": "uint256"
                }
            ],
            "name": "contracts",
            "outputs": [
                {
                    "components": [
                        {
                            "internalType": "address payable",
                            "name": "addr",
                            "type": "address"
                        },
                        {
                            "internalType": "enum Freelancer.Vote",
                            "name": "vote",
                            "type": "uint8"
                        }
                    ],
                    "internalType": "struct Freelancer.Entity",
                    "name": "freelancer",
                    "type": "tuple"
                },
                {
                    "components": [
                        {
                            "internalType": "address payable",
                            "name": "addr",
                            "type": "address"
                        },
                        {
                            "internalType": "enum Freelancer.Vote",
                            "name": "vote",
                            "type": "uint8"
                        }
                    ],
                    "internalType": "struct Freelancer.Entity",
                    "name": "client",
                    "type": "tuple"
                },
                {
                    "internalType": "string",
                    "name": "description",
                    "type": "string"
                },
                {
                    "internalType": "uint256",
                    "name": "value",
                    "type": "uint256"
                },
                {
                    "internalType": "enum Freelancer.Status",
                    "name": "status",
                    "type": "uint8"
                },
                {
                    "internalType": "enum Freelancer.ConsensusType",
                    "name": "consensusType",
                    "type": "uint8"
                },
                {
                    "components": [
                        {
                            "internalType": "address payable",
                            "name": "addr",
                            "type": "address"
                        },
                        {
                            "internalType": "enum Freelancer.Vote",
                            "name": "vote",
                            "type": "uint8"
                        }
                    ],
                    "internalType": "struct Freelancer.Entity",
                    "name": "thirdParty",
                    "type": "tuple"
                }
            ],
            "stateMutability": "view",
            "type": "function"
        },
        {
            "inputs": [
                {
                    "internalType": "address",
                    "name": "",
                    "type": "address"
                }
            ],
            "name": "freelancerToContractId",
            "outputs": [
                {
                    "internalType": "uint256",
                    "name": "",
                    "type": "uint256"
                }
            ],
            "stateMutability": "view",
            "type": "function"
        },
        {
            "inputs": [
                {
                    "internalType": "uint256",
                    "name": "_id",
                    "type": "uint256"
                },
                {
                    "internalType": "enum Freelancer.Vote",
                    "name": "vote",
                    "type": "uint8"
                }
            ],
            "name": "freelancerVote",
            "outputs": [],
            "stateMutability": "nonpayable",
            "type": "function"
        },
        {
            "inputs": [
                {
                    "internalType": "string",
                    "name": "_description",
                    "type": "string"
                },
                {
                    "internalType": "uint256",
                    "name": "_value",
                    "type": "uint256"
                },
                {
                    "internalType": "address payable",
                    "name": "_freelancer",
                    "type": "address"
                }
            ],
            "name": "fundWork",
            "outputs": [],
            "stateMutability": "payable",
            "type": "function"
        },
        {
            "inputs": [
                {
                    "internalType": "string",
                    "name": "_description",
                    "type": "string"
                },
                {
                    "internalType": "uint256",
                    "name": "_value",
                    "type": "uint256"
                },
                {
                    "internalType": "address payable",
                    "name": "_freelancer",
                    "type": "address"
                },
                {
                    "internalType": "address payable",
                    "name": "_thirdParty",
                    "type": "address"
                }
            ],
            "name": "fundWorkWithThirdParty",
            "outputs": [],
            "stateMutability": "payable",
            "type": "function"
        },
        {
            "inputs": [
                {
                    "internalType": "uint256",
                    "name": "_id",
                    "type": "uint256"
                }
            ],
            "name": "getTask",
            "outputs": [
                {
                    "components": [
                        {
                            "components": [
                                {
                                    "internalType": "address payable",
                                    "name": "addr",
                                    "type": "address"
                                },
                                {
                                    "internalType": "enum Freelancer.Vote",
                                    "name": "vote",
                                    "type": "uint8"
                                }
                            ],
                            "internalType": "struct Freelancer.Entity",
                            "name": "freelancer",
                            "type": "tuple"
                        },
                        {
                            "components": [
                                {
                                    "internalType": "address payable",
                                    "name": "addr",
                                    "type": "address"
                                },
                                {
                                    "internalType": "enum Freelancer.Vote",
                                    "name": "vote",
                                    "type": "uint8"
                                }
                            ],
                            "internalType": "struct Freelancer.Entity",
                            "name": "client",
                            "type": "tuple"
                        },
                        {
                            "internalType": "string",
                            "name": "description",
                            "type": "string"
                        },
                        {
                            "internalType": "uint256",
                            "name": "value",
                            "type": "uint256"
                        },
                        {
                            "internalType": "enum Freelancer.Status",
                            "name": "status",
                            "type": "uint8"
                        },
                        {
                            "internalType": "enum Freelancer.ConsensusType",
                            "name": "consensusType",
                            "type": "uint8"
                        },
                        {
                            "components": [
                                {
                                    "internalType": "address payable",
                                    "name": "addr",
                                    "type": "address"
                                },
                                {
                                    "internalType": "enum Freelancer.Vote",
                                    "name": "vote",
                                    "type": "uint8"
                                }
                            ],
                            "internalType": "struct Freelancer.Entity",
                            "name": "thirdParty",
                            "type": "tuple"
                        }
                    ],
                    "internalType": "struct Freelancer.Work",
                    "name": "",
                    "type": "tuple"
                }
            ],
            "stateMutability": "view",
            "type": "function"
        },
        {
            "inputs": [
                {
                    "internalType": "address",
                    "name": "_address",
                    "type": "address"
                }
            ],
            "name": "getTaskForClient",
            "outputs": [
                {
                    "internalType": "uint256",
                    "name": "",
                    "type": "uint256"
                }
            ],
            "stateMutability": "view",
            "type": "function"
        },
        {
            "inputs": [
                {
                    "internalType": "address",
                    "name": "_address",
                    "type": "address"
                }
            ],
            "name": "getTaskForFreelancer",
            "outputs": [
                {
                    "internalType": "uint256",
                    "name": "",
                    "type": "uint256"
                }
            ],
            "stateMutability": "view",
            "type": "function"
        },
        {
            "inputs": [
                {
                    "internalType": "uint256",
                    "name": "_id",
                    "type": "uint256"
                },
                {
                    "internalType": "enum Freelancer.Vote",
                    "name": "vote",
                    "type": "uint8"
                }
            ],
            "name": "thirdPartyVote",
            "outputs": [],
            "stateMutability": "nonpayable",
            "type": "function"
        }
    ],
    "bytecode": "608060405234801561001057600080fd5b5060008055611e1f806100246000396000f3fe60806040526004361061009c5760003560e01c806368886a2a1161006457806368886a2a14610176578063b3d8487d14610196578063c64e9480146101c3578063caac51ba146101e3578063cd62a1ae146101f6578063e670ec3c1461022c57600080fd5b806319c95959146100a15780631d65e77e146100e1578063474da79a1461010e57806350a7473814610141578063558955fb14610156575b600080fd5b3480156100ad57600080fd5b506100ce6100bc366004611932565b60026020526000908152604090205481565b6040519081526020015b60405180910390f35b3480156100ed57600080fd5b506101016100fc366004611a1d565b610262565b6040516100d89190611b8a565b34801561011a57600080fd5b5061012e610129366004611a1d565b61048e565b6040516100d89796959493929190611b1b565b61015461014f3660046119b1565b610641565b005b34801561016257600080fd5b50610154610171366004611a36565b610982565b34801561018257600080fd5b50610154610191366004611a36565b610d8a565b3480156101a257600080fd5b506100ce6101b1366004611932565b60036020526000908152604090205481565b3480156101cf57600080fd5b506101546101de366004611a36565b611161565b6101546101f1366004611956565b6114d5565b34801561020257600080fd5b506100ce610211366004611932565b6001600160a01b031660009081526002602052604090205490565b34801561023857600080fd5b506100ce610247366004611932565b6001600160a01b031660009081526003602052604090205490565b61026a61177c565b600082815260016020526040908190208151610120810190925280546001600160a01b03811660e0840190815283918390610100840190600160a01b900460ff1660028111156102bc576102bc611d95565b60028111156102cd576102cd611d95565b9052508152604080518082019091526001830180546001600160a01b0381168352602093840193830190600160a01b900460ff16600281111561031257610312611d95565b600281111561032357610323611d95565b81525050815260200160028201805461033b90611d31565b80601f016020809104026020016040519081016040528092919081815260200182805461036790611d31565b80156103b45780601f10610389576101008083540402835291602001916103b4565b820191906000526020600020905b81548152906001019060200180831161039757829003601f168201915b505050918352505060038201546020820152600482015460409091019060ff1660018111156103e5576103e5611d95565b60018111156103f6576103f6611d95565b81526020016004820160019054906101000a900460ff16600181111561041e5761041e611d95565b600181111561042f5761042f611d95565b8152604080518082019091526005830180546001600160a01b0381168352602093840193830190600160a01b900460ff16600281111561047157610471611d95565b600281111561048257610482611d95565b90525090525092915050565b600160209081526000918252604091829020825180840190935280546001600160a01b0381168452909291839190830190600160a01b900460ff1660028111156104da576104da611d95565b60028111156104eb576104eb611d95565b905250604080518082019091526001830180546001600160a01b03811683529293926020830190600160a01b900460ff16600281111561052d5761052d611d95565b600281111561053e5761053e611d95565b815250509080600201805461055290611d31565b80601f016020809104026020016040519081016040528092919081815260200182805461057e90611d31565b80156105cb5780601f106105a0576101008083540402835291602001916105cb565b820191906000526020600020905b8154815290600101906020018083116105ae57829003601f168201915b5050505060038301546004840154604080518082019091526005860180546001600160a01b03811683529596939560ff8085169650610100909404841694936020840191600160a01b900416600281111561062857610628611d95565b600281111561063957610639611d95565b905250905087565b823481811461064f57600080fd5b836001600160a01b0316836001600160a01b03161415801561067a57506001600160a01b0383163314155b6106e55760405162461bcd60e51b815260206004820152603260248201527f54686520636c69656e74206f7220667265656c616e6365722063616e6e6f742060448201527162652074686520746869726420706172747960701b606482015260840160405180910390fd5b6040805180820182526001600160a01b0386811682526002602080840182905284518086018652338152808201839052855160e0810187528581528083018290528087018d9052606081018c905260006080820152600160a082015286518088019097529389168652939460c0840192909182015290526000805481526001602090815260409091208251805182546001600160a01b031981166001600160a01b03909216918217845593820151929391928492909183916001600160a81b03191617600160a01b8360028111156107bf576107bf611d95565b0217905550505060208281015180516001840180546001600160a01b031981166001600160a01b03909316928317825593830151929390929183916001600160a81b03191617600160a01b83600281111561081c5761081c611d95565b021790555050506040820151805161083e91600284019160209091019061180c565b5060608201516003820155608082015160048201805460ff19166001838181111561086b5761086b611d95565b021790555060a082015160048201805461ff00191661010083600181111561089557610895611d95565b021790555060c082015180516005830180546001600160a01b031981166001600160a01b0390931692831782556020840151919283916001600160a81b03191617600160a01b8360028111156108ed576108ed611d95565b021790555050600080546001600160a01b038b16825260026020908152604080842083905533845260038252808420839055918352600190529081902090517f1b8ca9d6d6a53ae2ccaea11da256089d3ffa1b5c99331355e14022637ed7afb4945061095c9350909150611c1a565b60405180910390a160008054908061097383611d6c565b91905055505050505050505050565b60008281526001602052604090206005015482906001600160a01b031633146109aa57600080fd5b8260008060008381526001602081905260409091206004015460ff16908111156109d6576109d6611d95565b146109e057600080fd5b84600180600083815260016020819052604090912060040154610100900460ff1690811115610a1157610a11611d95565b14610a1b57600080fd5b6000878152600160205260409020600501805487919060ff60a01b1916600160a01b836002811115610a4f57610a4f611d95565b02179055506000878152600160205260408082208151610120810190925280546001600160a01b03811660e0840190815283918390610100840190600160a01b900460ff166002811115610aa557610aa5611d95565b6002811115610ab657610ab6611d95565b9052508152604080518082019091526001830180546001600160a01b0381168352602093840193830190600160a01b900460ff166002811115610afb57610afb611d95565b6002811115610b0c57610b0c611d95565b815250508152602001600282018054610b2490611d31565b80601f0160208091040260200160405190810160405280929190818152602001828054610b5090611d31565b8015610b9d5780601f10610b7257610100808354040283529160200191610b9d565b820191906000526020600020905b815481529060010190602001808311610b8057829003601f168201915b505050918352505060038201546020820152600482015460409091019060ff166001811115610bce57610bce611d95565b6001811115610bdf57610bdf611d95565b81526020016004820160019054906101000a900460ff166001811115610c0757610c07611d95565b6001811115610c1857610c18611d95565b8152604080518082019091526005830180546001600160a01b0381168352602093840193830190600160a01b900460ff166002811115610c5a57610c5a611d95565b6002811115610c6b57610c6b611d95565b90525090525090506000876002811115610c8757610c87611d95565b1415610cfa5780515160608201516040516001600160a01b039092169181156108fc0291906000818181858888f19350505050158015610ccb573d6000803e3d6000fd5b506040517f3c68eb814466095d6413c3d54053314f3612010356401ad9ab12567846d9625490600090a1610d80565b6001876002811115610d0e57610d0e611d95565b1415610d805760208101515160608201516040516001600160a01b039092169181156108fc0291906000818181858888f19350505050158015610d55573d6000803e3d6000fd5b506040517f3c68eb814466095d6413c3d54053314f3612010356401ad9ab12567846d9625490600090a15b5050505050505050565b6000828152600160208190526040909120015482906001600160a01b03163314610db357600080fd5b8260008060008381526001602081905260409091206004015460ff1690811115610ddf57610ddf611d95565b14610de957600080fd5b84600080600083815260016020819052604090912060040154610100900460ff1690811115610e1a57610e1a611d95565b14610e2457600080fd5b600087815260016020819052604090912001805487919060ff60a01b1916600160a01b836002811115610e5957610e59611d95565b02179055506000878152600160205260408082208151610120810190925280546001600160a01b03811660e0840190815283918390610100840190600160a01b900460ff166002811115610eaf57610eaf611d95565b6002811115610ec057610ec0611d95565b9052508152604080518082019091526001830180546001600160a01b0381168352602093840193830190600160a01b900460ff166002811115610f0557610f05611d95565b6002811115610f1657610f16611d95565b815250508152602001600282018054610f2e90611d31565b80601f0160208091040260200160405190810160405280929190818152602001828054610f5a90611d31565b8015610fa75780601f10610f7c57610100808354040283529160200191610fa7565b820191906000526020600020905b815481529060010190602001808311610f8a57829003601f168201915b505050918352505060038201546020820152600482015460409091019060ff166001811115610fd857610fd8611d95565b6001811115610fe957610fe9611d95565b81526020016004820160019054906101000a900460ff16600181111561101157611011611d95565b600181111561102257611022611d95565b8152604080518082019091526005830180546001600160a01b0381168352602093840193830190600160a01b900460ff16600281111561106457611064611d95565b600281111561107557611075611d95565b90525090525090506000816020015160200151600281111561109957611099611d95565b14156110dd5780515160608201516040516001600160a01b039092169181156108fc0291906000818181858888f19350505050158015610ccb573d6000803e3d6000fd5b600181602001516020015160028111156110f9576110f9611d95565b14801561111b575060015b8151602001516002811115610d0e57610d0e611d95565b15610d805760208101515160608201516040516001600160a01b039092169181156108fc0291906000818181858888f19350505050158015610d55573d6000803e3d6000fd5b60008281526001602052604090205482906001600160a01b0316331461118657600080fd5b8260008060008381526001602081905260409091206004015460ff16908111156111b2576111b2611d95565b146111bc57600080fd5b84600080600083815260016020819052604090912060040154610100900460ff16908111156111ed576111ed611d95565b146111f757600080fd5b6000878152600160205260409020805487919060ff60a01b1916600160a01b83600281111561122857611228611d95565b02179055506000878152600160205260408082208151610120810190925280546001600160a01b03811660e0840190815283918390610100840190600160a01b900460ff16600281111561127e5761127e611d95565b600281111561128f5761128f611d95565b9052508152604080518082019091526001830180546001600160a01b0381168352602093840193830190600160a01b900460ff1660028111156112d4576112d4611d95565b60028111156112e5576112e5611d95565b8152505081526020016002820180546112fd90611d31565b80601f016020809104026020016040519081016040528092919081815260200182805461132990611d31565b80156113765780601f1061134b57610100808354040283529160200191611376565b820191906000526020600020905b81548152906001019060200180831161135957829003601f168201915b505050918352505060038201546020820152600482015460409091019060ff1660018111156113a7576113a7611d95565b60018111156113b8576113b8611d95565b81526020016004820160019054906101000a900460ff1660018111156113e0576113e0611d95565b60018111156113f1576113f1611d95565b8152604080518082019091526005830180546001600160a01b0381168352602093840193830190600160a01b900460ff16600281111561143357611433611d95565b600281111561144457611444611d95565b90525090525090506000816020015160200151600281111561146857611468611d95565b14801561148b57506000815160200151600281111561148957611489611d95565b145b156114ce5780515160608201516040516001600160a01b039092169181156108fc0291906000818181858888f19350505050158015610ccb573d6000803e3d6000fd5b6001611104565b81348181146114e357600080fd5b6040805180820182526001600160a01b0385168152600260208083018290528351808501855233815280820192909252835160e08101855283815290810182905292830188905260608301879052909160808101600081526000602080830182905260408051808201825283815260028184018190529482015282548352600182529091208351805182546001600160a01b039091166001600160a01b0319821681178455938201519294919385939284926001600160a81b03191690911790600160a01b9084908111156115ba576115ba611d95565b0217905550505060208281015180516001840180546001600160a01b031981166001600160a01b03909316928317825593830151929390929183916001600160a81b03191617600160a01b83600281111561161757611617611d95565b021790555050506040820151805161163991600284019160209091019061180c565b5060608201516003820155608082015160048201805460ff19166001838181111561166657611666611d95565b021790555060a082015160048201805461ff00191661010083600181111561169057611690611d95565b021790555060c082015180516005830180546001600160a01b031981166001600160a01b0390931692831782556020840151919283916001600160a81b03191617600160a01b8360028111156116e8576116e8611d95565b021790555050600080546001600160a01b038a16825260026020908152604080842083905533845260038252808420839055918352600190529081902090517f1b8ca9d6d6a53ae2ccaea11da256089d3ffa1b5c99331355e14022637ed7afb494506117579350909150611c1a565b60405180910390a160008054908061176e83611d6c565b919050555050505050505050565b604080516101208101909152600060e08201818152610100830191909152819081526020016117bb604080518082019091526000808252602082015290565b81526020016060815260200160008152602001600060018111156117e1576117e1611d95565b815260200160008152602001611807604080518082019091526000808252602082015290565b905290565b82805461181890611d31565b90600052602060002090601f01602090048101928261183a5760008555611880565b82601f1061185357805160ff1916838001178555611880565b82800160010185558215611880579182015b82811115611880578251825591602001919060010190611865565b5061188c929150611890565b5090565b5b8082111561188c5760008155600101611891565b600082601f8301126118b657600080fd5b813567ffffffffffffffff808211156118d1576118d1611dab565b604051601f8301601f19908116603f011681019082821181831017156118f9576118f9611dab565b8160405283815286602085880101111561191257600080fd5b836020870160208301376000602085830101528094505050505092915050565b60006020828403121561194457600080fd5b813561194f81611dd4565b9392505050565b60008060006060848603121561196b57600080fd5b833567ffffffffffffffff81111561198257600080fd5b61198e868287016118a5565b9350506020840135915060408401356119a681611dd4565b809150509250925092565b600080600080608085870312156119c757600080fd5b843567ffffffffffffffff8111156119de57600080fd5b6119ea878288016118a5565b945050602085013592506040850135611a0281611dd4565b91506060850135611a1281611dd4565b939692955090935050565b600060208284031215611a2f57600080fd5b5035919050565b60008060408385031215611a4957600080fd5b82359150602083013560038110611a5f57600080fd5b809150509250929050565b611a7381611dc1565b9052565b60038110611a7357611a73611d95565b6000815180845260005b81811015611aad57602081850181015186830182015201611a91565b81811115611abf576000602083870101525b50601f01601f19169290920160200192915050565b80516001600160a01b0316825260208082015190611af490840182611a77565b505050565b80546001600160a01b0381168352611af46020840160a083901c60ff16611a77565b6000610140611b2a838b611ad4565b611b37604084018a611ad4565b806080840152611b4981840189611a87565b9150508560a0830152611b5b85611dc1565b8460c0830152611b6a84611dc1565b8360e0830152611b7e610100830184611ad4565b98975050505050505050565b60208152611b9c602082018351611ad4565b60006020830151611bb06060840182611ad4565b50604083015161014060a0840152611bcc610160840182611a87565b9050606084015160c08401526080840151611be681611dc1565b60e084015260a0840151611bf981611dc1565b61010084015260c0840151611c12610120850182611ad4565b509392505050565b60006020808352611c2d81840185611af9565b6001611c3e60608501828701611af9565b61014060a085015260028501805460009080841c84821680611c6157607f821691505b868210811415611c7f57634e487b7160e01b84526022600452602484fd5b61016089018290526101808901818015611ca05760018114611cb157611cdc565b60ff19851682528882019550611cdc565b60008781526020902060005b85811015611cd657815484820152908901908a01611cbd565b83019650505b5050505050600387015460c087015260048701549350611d0260e0870160ff8616611a6a565b611d16610100870160ff8660081c16611a6a565b611d27610120870160058901611af9565b9695505050505050565b600181811c90821680611d4557607f821691505b60208210811415611d6657634e487b7160e01b600052602260045260246000fd5b50919050565b6000600019821415611d8e57634e487b7160e01b600052601160045260246000fd5b5060010190565b634e487b7160e01b600052602160045260246000fd5b634e487b7160e01b600052604160045260246000fd5b60028110611dd157611dd1611d95565b50565b6001600160a01b0381168114611dd157600080fdfea2646970667358221220da352be768c45623b35f4184d2f1be69e3f3417f6aef62e92a880e8d104d615564736f6c63430008070033",
    "sourcePath": "/Users/dsinghvi/Documents/faucet-Dapp/contracts/Freelancer.sol",
    "compiler": {
        "name": "solc",
        "version": "0.8.7+commit.e28d00a7"
    },
    "functionHashes": {
        "clientToContractId(address)": "b3d8487d",
        "clientVote(uint256,uint8)": "68886a2a",
        "contracts(uint256)": "474da79a",
        "freelancerToContractId(address)": "19c95959",
        "freelancerVote(uint256,uint8)": "c64e9480",
        "fundWork(string,uint256,address)": "caac51ba",
        "fundWorkWithThirdParty(string,uint256,address,address)": "50a74738",
        "getTask(uint256)": "1d65e77e",
        "getTaskForClient(address)": "e670ec3c",
        "getTaskForFreelancer(address)": "cd62a1ae",
        "thirdPartyVote(uint256,uint8)": "558955fb"
    },
    "gasEstimates": {
        "creation": {
            "codeDepositCost": "1542200",
            "executionCost": "6616",
            "totalCost": "1548816"
        },
        "external": {
            "clientToContractId(address)": "2524",
            "clientVote(uint256,uint8)": "infinite",
            "contracts(uint256)": "infinite",
            "freelancerToContractId(address)": "2503",
            "freelancerVote(uint256,uint8)": "infinite",
            "fundWork(string,uint256,address)": "infinite",
            "fundWorkWithThirdParty(string,uint256,address,address)": "infinite",
            "getTask(uint256)": "infinite",
            "getTaskForClient(address)": "2630",
            "getTaskForFreelancer(address)": "2608",
            "thirdPartyVote(uint256,uint8)": "infinite"
        }
    }
}